:020000040800F2
:100000002005002045010008631000080F0F0008BC
:1000100061100008D50100080D150008000000005F
:100020000000000000000000000000006710000851
:10003000D7010008000000006510000869100008E2
:100040005F0100085F0100085F0100085F01000810
:100050005F0100085F0100085F0100085F01000800
:100060005F0100085F0100085F0100085F010008F0
:100070005F0100085F0100085F0100085F010008E0
:100080005F0100085F0100085F0100085F010008D0
:100090005F0100085F0100085F0100085F010008C0
:1000A0005F0100085F0100085F0100085F010008B0
:1000B0005F0100085F0100085F0100085F010008A0
:1000C0005F0100085F0100085F0100085F01000890
:1000D0005F010008B91400085F0100085F01000813
:1000E0005F0100085F0100085F0100085F01000870
:1000F0005F0100085F0100085F0100085F01000860
:100100005F0100085F0100085F0100085F0100084F
:100110005F0100085F0100085F0100085F0100083F
:100120005F0100085F0100085F0100085F0100082F
:10013000DFF80CD000F03CF80048004799150008A3
:10014000200500200648804706480047FEE7FEE7F6
:10015000FEE7FEE7FEE7FEE7FEE7FEE7FEE7FEE777
:10016000BD10000831010008D2B201E000F8012BF7
:10017000491EFBD270470022F6E710B513460A4627
:1001800004461946FFF7F0FF204610BD30B505467E
:100190002A460B4612F8010B13F8014B08B1A04296
:1001A000F8D01CB1002802D06D1CF1E7284630BD04
:1001B000064C074D06E0E06840F0010394E80700B4
:1001C00098471034AC42F6D3FFF7B6FF3817000853
:1001D00058170008FEE770477047000070B50446E6
:1001E00000F010F90546601C02D004480078044471
:1001F00000F008F9401BA042FAD370BD08000020AF
:100200002DE9F84FDFF8C891002409F1040A0AF13A
:10021000040B23460F270BF1040ED1E00125A54066
:1002200006EA0502AA4276D1DFF8A8C14E68A6EB1D
:100230000C0866452BD00DDC032E34D005DC36B31C
:10024000012E19D0022E2FD11BE0112E16D0122E06
:100250002AD119E0B8F5881F19D006DCB8F5803F1F
:1002600015D0B8F5801F1FD111E0B8F5001F0ED0D2
:10027000B8F5041F18D10AE0CB6815E0CB681B1D48
:1002800012E0CB6808330FE0CB680C330CE08B68CE
:100290002BB1012B4FF0080303D0456104E0042388
:1002A00002E0056100E00023FF2A01D8064601E0D4
:1002B00000F104064FEA840501D9A5F12005D6F81E
:1002C000008007FA05FC28EA0C0803FA05F548EA5D
:1002D0000508C6F800804D68ED0070D53E4DAE694A
:1002E00046F00106AE61AD6924F0030605F0010594
:1002F00000953A4D06EB050CDCF80850A607360FC2
:1003000007FA06F825EA0805DFF8D480404503D14E
:100310004FF0000825E052E0DFF8C880404502D1E8
:100320004FF001081DE0DFF8C080404502D14FF0DA
:10033000020816E0DFF8B480404502D14FF0030810
:100340000FE0DFF8AC80404502D14FF0040808E030
:10035000DFF8A080404502D14FF0050801E04FF0E2
:10036000060808FA06F848EA0508CCF808804D683F
:10037000D9F80060ED034D4601D5164300E09643E1
:100380002E604D68DAF80060AD03554601D516437E
:1003900000E096432E604D68DBF80060ED025D469C
:1003A00001D5164300E096432E604D68DEF80060EC
:1003B000AD02754601D5164300E096432E60641CDD
:1003C0000A681646E2407FF429AFBDE8F88F0000C6
:1003D0000004014000001110001002400000014024
:1003E00000080140000C01400010014000140140D1
:1003F00000180140001C01400AB101617047090466
:10040000FBE70000014880687047000008000020FA
:10041000024881680278114481607047080000201A
:10042000074810B5016841F010010160032000F099
:1004300075F8002000F006F800F024F8002010BD48
:100440000020024070B50D4D04464FF47A712878B3
:10045000B1FBF0F00A490968B1FBF0F000F0ECFAEA
:1004600048B9102C07D200222146501E00F036F861
:1004700000206C6070BD012070BD000008000020ED
:10048000140000200C4808B5816941F00101816128
:10049000816901F001010091C16941F08051C161A0
:1004A000C06900F0805000900448416821F0E0618C
:1004B00041F00071416008BD0010024000000140A1
:1004C000002809DB00F01F02012191404009800053
:1004D00000F1E020C0F8001170470000F0B40E4BAE
:1004E0001B680C46C3F30223C3F10705042D00D992
:1004F0000425191D072901D2002300E0DB1E012677
:1005000006FA05F1491E214099409E40761E16408C
:100510003143F0BC01F004B80CED00E0064900F0F6
:10052000070208684FF6FF03184040EA0220034A1A
:1005300010430860704700000CED00E00000FA0571
:100540002DE9F0470F46050061D0434E306800F0BA
:100550000700B84209D2306820F007003843306005
:10056000306800F00700B84251D128683B4C810741
:1005700012D5400703D5606840F4E06060602878D9
:10058000000703D5606840F4605060606068A96847
:1005900020F0F000084360602878C00728D0686821
:1005A000012810D02168022810D0890700292EDAEE
:1005B000616821F0030101436160FFF723FF80467A
:1005C00041F288390DE021688903EFE78901EDE701
:1005D000FFF718FFA0EB0801494502D90320BDE849
:1005E000F0876068696800F00C00B0EB810FEFD114
:1005F000306800F00700B8420BD9306820F00700DF
:1006000038433060306800F00700B84201D0012064
:10061000E5E72878400705D56068E96820F4E060E0
:10062000084360602878000706D56068296920F4CF
:10063000605040EAC100606000F038F86168084A24
:10064000C1F30311515CC8400649086006480068C0
:10065000FFF7F8FE0020C2E7002002400010024031
:1006600020170008140000200C0000200448054951
:1006700000684968044AC1F30221515CC8407047D0
:1006800014000020001002403017000804480549FB
:1006900000684968044AC1F3C221515CC8407047F0
:1006A00014000020001002403017000812A185B08D
:1006B0000FC98DE80F0014A0144A00680490516817
:1006C000134801F00C03042B10D0082B0ED1C1F3FA
:1006D0008343C9031DF803000AD5516804AAC1F376
:1006E0004041515C0A4A5043B0FBF1F005B07047FD
:1006F00008494843FAE70000020304050607080911
:100700000A0B0C0D0E0F1010010200000010024029
:1007100000127A0000093D002DE9F84F040070D066
:100720002078C04DC00749D06868C0F38100012817
:1007300007D06868C0F38100022809D16868C00347
:1007400006D52868800339D560680028E7D035E0F1
:100750006068B0F5803F0BD010B1B0F5A02F11D07C
:10076000286820F480302860286820F4802002E087
:10077000286840F480302860606890B1FFF742FE3E
:1007800006460AE0286840F480202860F0E700BFB1
:10079000FFF738FE801B642873D828688003F7D5DC
:1007A0000CE0FFF72FFE064605E000BFFFF72AFE2C
:1007B000801B6428F0D828688003F7D420789A4EEC
:1007C00080074FF001094FF0000839D5686810F034
:1007D0000C0F07D06868C0F38100022809D168684F
:1007E000C00306D42868800714D52069012808D1E1
:1007F00010E02069B0B1C6F80090FFF703FE07468D
:1008000005E00AE1FFF7FEFDC01B0228C4D82868F6
:100810008007F7D52868616920F0F80040EAC10038
:1008200028600DE0C6F80080FFF7ECFD074604E005
:10083000FFF7E8FDC01B022823D828688007F7D4FB
:10084000207800072CD57948A169D9B1C0F800906B
:10085000FFF7D8FD074604E0FFF7D4FDC01B0228D0
:100860000FD8686A8007F7D571484FF4FA510068CD
:10087000B0FBF1F0009000BF0098411E0091FAD249
:100880000EE080E0C0F80080FFF7BCFD074604E002
:10089000FFF7B8FDC01B022875D8686A8007F7D437
:1008A0002078400760D5E8690027C00008D4E869CF
:1008B00040F08050E861E869012700F08050009026
:1008C0005C480168C90513D40168834641F480710E
:1008D0000160FFF797FD824606E000BFFFF792FD3B
:1008E000A0EB0A0064284ED8DBF80000C005F5D55F
:1008F000E06801280AD008B1052813D0286A20F042
:1009000001002862286A20F0040002E0286A40F012
:1009100001002862E06841F2883B98B1FFF772FD60
:1009200082460BE0286A40F004002862EEE700BF30
:10093000FFF768FDA0EB0A0159455AD8286A8007DD
:10094000F6D50CE0FFF75EFD824605E0FFF75AFDA5
:10095000A0EB0A0159454CD8286A8007F6D41FB18C
:10096000E86920F08050E861E06988B36968C1F304
:100970008101022944D00228C6F8608004D0FFF724
:1009800041FD044638E034E0FFF73CFD074604E053
:10099000FFF738FDC01B02282BD828688001F7D448
:1009A000206AB0F5803F05D16868A16820F4003066
:1009B00008436860D4E908010843696821F47411A8
:1009C00008436860C6F86090FFF71CFD044606E027
:1009D00025E000BFFFF716FD001B022809D8286894
:1009E0008001F7D51BE000BFFFF70CFD001B0228BC
:1009F00002D90320BDE8F88F28688001F4D40EE006
:100A00000128F7D06868226A00F48031914204D14D
:100A1000616A00F47010884201D00120EAE70020EA
:100A2000E8E7000000100240000042428004424219
:100A3000140000200070004010B5401EB0F1807F0F
:100A400001D3012010BD4FF0E02460610F21601739
:100A500000F066FD0020A06107202061002010BD8D
:100A600070B590F83C20012A19D0012400F83C4FC1
:100A70000222427050F83C3C5A689D6822F0700691
:100A80000A684968324325F0800529435A6050F8C6
:100A90003C2C9160447000210170084670BD02201A
:100AA00070BD10B5040003D094F83D0010B107E00C
:100AB000012010BD002084F83C00204600F00CF816
:100AC000022084F83D00211D206800F01BFB01205E
:100AD00084F83D00002010BD08B500680649884232
:100AE00008D10648C16941F00401C161C06900F044
:100AF0000400009008BD0000000800400010024003
:100B000070B5044690F83C00012817D0012584F800
:100B10003C50022084F83D002068826822F0770271
:100B200022F47F4282600868502830D00DDC2028F3
:100B30004DD005DC98B310283BD148E0022070BDB1
:100B4000302844D0402834D139E0602828D070289B
:100B500006D0B0F5805F2CD0B0F5005F29D10AE057
:100B6000CB68D1E90121206800F01FFB2068816873
:100B700041F0770109E0CB68D1E90121206800F05C
:100B800014FB2068816841F48041816011E0CA68EB
:100B90004968206800F0DEFB5021206807E016E07D
:100BA000CA684968206800F0E6FB6021206800F010
:100BB00006FB84F83D50002084F83C0070BDCA68F4
:100BC0004968206800F0C6FB40212068EFE72268F2
:100BD00001461046EBE7000000B585B0002100910A
:100BE00001910291039100680B49884212D10B4890
:100BF000816941F0080181618069694600F008005F
:100C000004904FF4807000900220019003900448FB
:100C1000FFF7F6FA05B000BD0008004000100240E2
:100C2000000C014070B5044690F83C000D460128C8
:100C30000DD0012684F83C60022084F83D0042B1CA
:100C4000042A18D0082A2AD00C2A4DD139E00220D3
:100C500070BD206800F0BCFA2068816941F008018D
:100C600081612068816921F00401816120688169C6
:100C70002A69114311E0206800F0DAFA20688169DE
:100C800041F4006181612068816921F480618161A2
:100C9000206881692A6941EA0221816124E0206893
:100CA00000F0FCFA2068C16941F00801C1612068C8
:100CB000C16921F00401C1612068C1692A69114339
:100CC00011E0206800F01EFB2068C16941F400615A
:100CD000C1612068C16921F48061C1612068C16976
:100CE0002A6941EA0221C16184F83D60002084F84C
:100CF0003C0070BD10B5040003D094F83D0010B165
:100D000007E0012010BD002084F83C00204600F0E0
:100D10000CF8022084F83D00211D206800F0F2F953
:100D2000012084F83D00002010BD704710B5044636
:100D30000068012200F02CFA0B492068884202D09A
:100D40000A49884203D1416C41F400414164206862
:100D5000816801F00701062903D0016841F0010113
:100D60000160002010BD0000002C01400034014053
:100D700070B5040004D094F83900002510B106E0E5
:100D8000012070BD84F83850204600F023F824205C
:100D900084F839002068C16821F40051C160204600
:100DA00000F0FCFA2068016921F49041016120689B
:100DB000416921F02A0141612068C16841F4005174
:100DC000C160E563202084F8390084F83A000020EF
:100DD00070BD000030B585B00024009401940294E9
:100DE00003940068184988422CD11848816941F45D
:100DF00080418161816901F480410491816941F000
:100E0000040181618069124D00F0040004904FF4E8
:100E1000007000900220019003200390694628464C
:100E2000FFF7EEF92815CDE900046946284602943B
:100E3000FFF7E6F9002211462520FFF74FFB25209A
:100E4000FFF73EFB05B030BD003801400010024006
:100E5000000801402DE9F843044690F839001F4688
:100E600016460D46202850D1A5B19EB194F8380001
:100E700001284AD0012084F838004FF00008C4F857
:100E80003C80212084F83900FFF7BCFAA684814613
:100E9000E68426E00120BDE8F883E08C401EE08473
:100EA000A0684B46B0F5805F4FF000024FF0800124
:100EB0002046009703D000F0CDFAE8B90DE000F02D
:100EC000C9FAC8B928882168C0F3080048602069B9
:100ED00008B16D1C05E0AD1C03E0216815F8010B9D
:100EE0004860E08C0028D8D14B46002240212046A3
:100EF000009700F0AFFA08B10320CCE7202084F877
:100F0000390084F838800020C5E70220C3E7FEE7F7
:100F100030B585B000241C480094019402940394D9
:100F2000816941F040018161816901F040010491D2
:100F3000816941F010018161816901F01001049122
:100F4000816941F004018161816901F0040104912A
:100F5000816941F00801816180690C4D00F0080051
:100F600004900022FE212846FFF746FAFE2000905A
:100F70000120CDE901040220039069462846FFF7CD
:100F80003FF905B030BD00000010024000180140DC
:100F900010B58EB000240794089409940A940B9419
:100FA0001C2168460C94FFF7E6F81E481C490160B6
:100FB0004721C0E901146321C0E903148461FFF7EC
:100FC00070FD08B1FFF708F94FF48050079007A9AA
:100FD0001448FFF795FD08B1FFF7FEF81148FFF739
:100FE00089FE08B1FFF7F8F80B940BA90D480C9493
:100FF000FFF736FD08B1FFF7EFF86020CDE90004F8
:10100000022002900822694604940648FFF70AFE6F
:1010100008B1FFF7E1F80348FFF7DEFD0EB010BDA1
:10102000000800409C0000200C4810B50A490160EF
:101030004FF4E1314160002181600C22C160C0E9C0
:1010400004128161C161FFF793FE002803D0BDE85F
:101050001040FFF7C1B810BD00380140DC0000208F
:10106000FEE7704770477047FFF7D2B930B58FB0D1
:1010700028216846FFF77FF814210AA8FFF77BF8BC
:1010800001210804CDE900100024029402250491F6
:10109000CDE907504FF4E01009906846FFF73CFB9C
:1010A0000F20CDE90A056802CDE90C4002210AA80B
:1010B0000E94FFF745FA0FB030BD00000D480168EF
:1010C00041F00101016041680B4A11404160016833
:1010D0000A4A11400160016821F4802101604168E1
:1010E00021F4FE0141604FF41F0181600449C003F7
:1010F00008607047001002400000FFF8FFFFF6FE96
:1011000008ED00E0F0B502681C4B1D4D1D4E1E4F52
:101110001E4C4FF0804C984209D0A04207D0604549
:1011200005D0A84203D0B04201D0B84204D122F089
:10113000700E4A6842EA0E02984209D0A04207D0D7
:10114000604505D0A84203D0B04201D0B84203D1D7
:1011500022F44075CA682A434D6922F080022A436E
:1011600002608A68C2620A688262984201D0A04224
:1011700001D10969016301214161F0BD002C0140E9
:101180000004004000080040000C00400034014012
:1011900010B501F01F030121046A99408C430462D9
:1011A000016A9A401143016210BD10B5846842EA99
:1011B000032224F47F440A432243826010BD8268E4
:1011C00022F070020A4342F007018160704700007C
:1011D000F0B5026A22F001020262036A4268846981
:1011E000124E24F073050C682C4323F002058B6823
:1011F0002B430D4DA84201D0B04205D123F0080782
:10120000CB683B4323F00403A84201D0B04205D190
:101210004D6922F4407215438A692A434260846111
:10122000496841630362F0BD002C01400034014075
:10123000F0B5026A22F010020262026A4368846911
:101240000D6824F4E64444EA05248D6822F0200267
:1012500042EA05120F4D104EA84201D0B04206D10D
:10126000CF6822F0800242EA071222F04002A84230
:1012700001D0B04207D14D6923F4406343EA8503AE
:101280008D6943EA85034360846149688163026232
:10129000F0BD0000002C014000340140F0B5026AAE
:1012A00022F480720262026A4368C46922F4007206
:1012B00024F073050C68124E2C438D6842EA052217
:1012C0000E4DA84201D0B04206D1CF6822F4006290
:1012D00042EA072222F48062A84201D0B04207D13C
:1012E0004D6923F4405343EA05138D6943EA05131E
:1012F0004360C4614968C1630262F0BD002C0140D3
:101300000034014030B5026A22F480520262046A5D
:101310004268C3690D6823F4E64343EA05238D68F8
:1013200024F4005444EA0534084DA84202D0084D84
:10133000A84204D14D6922F4804242EA85124260FB
:10134000C36149680164046230BD0000002C0140A3
:101350000034014010B5036A046A24F001040462F9
:10136000846924F0F00444EA021423F00A020A43D8
:101370008461026210BD10B5036A23F0100303629A
:101380008369046A23F4704343EA023224F0A00321
:1013900043EA01118261016210BD00002DE9F041B4
:1013A000044600680169E26821F44051114301617B
:1013B0002169A0680843616908432168CA6841F24D
:1013C0000C639A430243CA6020684169A26921F410
:1013D0004071114341611E492068642532268842CC
:1013E00002D1FFF753F901E0FFF740F900EBC0012C
:1013F00001EB001160686FF018078000B1FBF0F29C
:10140000B2FBF5F2B1FBF0F37A4303EB8202B1FBDE
:10141000F0F306EB0212B2FBF5F2B3FBF5F302F0C8
:10142000F00202EB0312B1FBF0F3B1FBF0F0B0FB02
:10143000F5F0784303EB800006EB0010B0FBF5F00D
:10144000216800F00F0010448860BDE8F0810000C2
:10145000003801402DE9F041984617460E460446F3
:10146000069D1DE0681C1BD02DB1FEF7CBFFA0EB45
:101470000800A84214D92068C16821F4D071C16065
:101480002068416921F001014161202084F8390080
:1014900084F83A00002084F838000320BDE8F08189
:1014A0002068006836EA000004D00020B842D9D095
:1014B0000020F3E70120F9E7AFF3008030B51048D2
:1014C00002681168C9438B060E490DD4D36843F0F6
:1014D0001003D36003685C680B4D8A78AC54521CCF
:1014E0008A706FF020021A6000680268D243D20648
:1014F00005D4C26822F01002C2600120487030BDDD
:10150000DC000020000000201C000020FEE700009E
:10151000014A024900F023B8811500081800002094
:101520000907090E002804DB00F1E02080F8001410
:10153000704700F00F0000F1E02080F8141D7047A4
:1015400002E008C8121F08C1002AFAD1704770478C
:10155000002001E001C1121F002AFBD170472DE9D4
:10156000F04116460F460446002503E03946B047D1
:10157000641C6D1C20780028F8D12846BDE8F08155
:1015800013B54FF6FF73012269460248FFF762FC6C
:1015900000981CBDDC000020FEF742FFFFF766FD4F
:1015A000FFF7B6FCFFF740FDFFF7F2FC3B48006891
:1015B000C16841F02001C16039A0FFF7A9FF0821EF
:1015C0003B48FFF7B3FB3B4E01273B4C4FF47A7986
:1015D0004FF0800800256078012837D13749384816
:1015E000FEF7D4FD30B137A0FFF792FF2770A4F8C3
:1015F000048025E0314932480831FEF7C7FD30B19B
:1016000034A0FFF785FF02202070A78018E02B4947
:101610002B481031FEF7BAFD38B132A0FFF778FF42
:10162000234932200968C8630AE024492448183154
:10163000FEF7ACFD20B12FA0FFF76AFF2570A58053
:101640006570A57080211E48FEF795FD0122FF21DF
:101650003046FEF7D1FE0022A1883046FEF7CCFED0
:101660004846FEF7BBFD94F90000A8B101280CD054
:101670000228B0D1A0884FF6FF7101EA4000A08097
:10168000B0F5807FA7D1A780A5E7A0884008A080FB
:10169000A1D1A4F804809EE7A5809CE7DC0000208F
:1016A00068656C6C6F20776F72642E0D0A00000005
:1016B0009C000020001801400000002000170008D6
:1016C0001C00002049276D206D6F64655F31210D7E
:1016D0000A00000049276D206D6F64655F32210D9F
:1016E0000A00000049276D206D6F64655F33210D8E
:1016F0000A00000049276D2073746F70210D0A00E5
:101700006D6F64655F3123006D6F64655F32230028
:101710006D6F64655F33230073746F702300000086
:101720000000000000000000010203040607080991
:101730000000000001020304581700080000002008
:101740001C00000040150008741700081C00002051
:101750000405000050150008FF0000000000000014
:101760000100000010000000000000000024F40050
:041770000000000075
:0400000508000131BD
:00000001FF
