:020000040800F2
:10000000C8040020450100082715000873140008E3
:1000100025150008A502000875170008000000005B
:100020000000000000000000000000002B15000888
:10003000A702000800000000291500082D1500087F
:100040005F0100085F0100085F0100085F01000810
:100050005F0100085F0100085F0100085F01000800
:100060005F0100085F0100085F0100085F010008F0
:100070005F0100085F0100085F0100085F010008E0
:100080005F0100085F010008DD0100085F01000852
:100090005F0100085F0100085F0100085F010008C0
:1000A0005F0100085F0100085F0100085F010008B0
:1000B0005F0100085F0100085F0100085F010008A0
:1000C0005F0100085F0100085F0100085F01000890
:1000D0005F0100085F0100085F0100085F01000880
:1000E0005F0100085F0100085F0100085F01000870
:1000F0005F0100085F0100085F0100085F01000860
:100100005F0100085F0100085F0100085F0100084F
:100110005F0100085F0100085F0100085F0100083F
:100120005F0100085F0100085F0100085F0100082F
:10013000DFF80CD000F040F80048004741190008F3
:10014000C80400200648804706480047FEE7FEE74F
:10015000FEE7FEE7FEE7FEE7FEE7FEE7FEE7FEE777
:100160009515000831010008D2B201E000F8012B1A
:10017000491EFBD270470022F6E710B513460A4627
:1001800004461946FFF7F0FF204610BD30B50B4678
:10019000014600202022012409E021FA02F59D42B7
:1001A00005D303FA02F5491B04FA02F52844151E8B
:1001B000A2F10102F1DC30BD064C074D06E0E0681B
:1001C00040F0010394E8070098471034AC42F6D39E
:1001D000FFF7B2FFA4190008C4190008014800F095
:1001E00013B900001400002070B50446006881684F
:1001F000C943C9071CD1816821F00101816000F069
:1002000063FC05460FE000BF00F05EFC401B0228C7
:1002100009D9A06A40F01000A062E06A40F0010035
:10022000E062012070BD20688068C043C007EBD049
:10023000002070BDF8B5002604460096006881686D
:10024000C943C90728D0816841F001018160134882
:1002500013490068B0FBF1F000E0401E0090002858
:10026000FBD100F031FC054611E000BF00F02CFC92
:10027000401B02280BD9A06A40F01000A062E06A7F
:1002800040F00100E06284F824600120F8BD20689D
:100290008068C043C007E9D10020F8BD10000020ED
:1002A00040420F00FEE7704710B5124800F07EFA9A
:1002B000114C00220421204600F000FC0A210D48C8
:1002C00000F0DCF950B90B4800F09BF80B4A81B202
:1002D0004FF4A57011804143080B508001F00CFAD7
:1002E00001220421204600F0E9FBBDE8104001484E
:1002F00000F0BCBA140000200018014000000020EB
:1003000070470000F8B50024009490F8242025469A
:10031000012A12D0012280F824204A681F23072ACC
:100320000DD20668776B521E02EB820293409F4308
:100330000B6893401F43776319E00220F8BD0668FD
:100340000D2A0AD2376BD21F02EB820293409F43E1
:100350000B6893401F43376309E0F76A0D3A02EBDD
:10036000820293409F430B6893401F43F7620A68E1
:10037000072306680A2A0AD3F7680A3A02EB420200
:1003800093409F438B6893401F43F76008E03769B1
:1003900002EB420293409F438B6893401F433761B7
:1003A0000A68102A01D0112A20D1124B02689A4201
:1003B00017D193681B0219D4936843F40003936028
:1003C0000968102912D10C490C4A0968B1FBF2F1F5
:1003D00001EB8101490000E0491E00910029FBD199
:1003E00004E0816A41F020018162012480F82450F8
:1003F0002046F8BD002401401000002040420F00BC
:1004000070470068C06C704710B5044600684168CA
:10041000890626D50168890723D5A16AC90603D4B0
:10042000A16A41F40071A1628168C1F342410729C8
:1004300010D1217B71B9416821F020014160A06A8F
:1004400020F48070A062A06AC00403D4A06A40F0C7
:100450000100A0622046FFF7D3FF21686FF0120071
:1004600008602068416809062ED5016849072BD528
:10047000A16AC90603D4A16A41F40051A16281684E
:10048000C1F30231072909D04168490515D48168B3
:10049000C1F34241072910D1217B71B9416821F094
:1004A00080014160A06A20F48050A062A06AC0056B
:1004B00003D4A06A40F00100A0622046FFF720FFAD
:1004C00021686FF00C0008602068416849060DD56E
:1004D0000068C0070AD0A06A40F48030A0622046BD
:1004E00000F096F821686FF00100086010BD000070
:1004F0002DE9F04104004FF000057FD0A06A0026EE
:1005000028B9E66284F82460204600F083F820468B
:10051000FFF76AFEA16AC90600D420B1A06A40F0C4
:100520001000A0626AE0A16A21F4885141F0020142
:10053000A162334923688B42E16904D1B1F5402FB0
:1005400001D14FF40021277B4FF4807C41EA470220
:1005500061680A43A168614508D0012906D00021DD
:1005600094F814E0BEF1010F02D00AE06146F7E70B
:10057000C7B1A76A47F02007A762E76A47F00107FB
:10058000E7625F6827F469470F435F6023689968F3
:100590001C4F394011439960A16861450BD0012976
:1005A00009D00CE0DFF860E0A7690EEB47370F4396
:1005B00047F40061E5E7218A0D05A5F5801521685E
:1005C000CB6A23F470032B43CB62216889680F4BFD
:1005D0001940914208D1E662A16A21F0020141F07E
:1005E0000101A162BDE8F081A06A20F0020040F0A4
:1005F0001000A062E06A40F00100E0620120F1E733
:10060000003C0140FDF7E1FF00E0FFFFFE0E1FFF91
:100610007047000000B585B0002100910191029162
:10062000039100681249884220D11248816941F43F
:1006300000718161816901F400710491816941F067
:10064000040181618069694600F004000490012082
:10065000009003200190084800F034F90022114670
:10066000122000F09DFA122000F08CFA05B000BDB7
:100670000024014000100240000801402DE9F84329
:1006800000260D460446009600F01EFA80462068BB
:100690008168C90508D5A06A40F02000A06284F8EE
:1006A00024600120BDE8F8834168C90503D4C06A0D
:1006B00010F4700F26D0022000F0A4FA384909681F
:1006C000B1FBF0F72068036936490B424FEA61013C
:1006D0004FEAA1121BD1C3684FEA611C13EA0C0F49
:1006E00015D103690B4221D1C06810421ED11420DC
:1006F0001FE0681C06D045B300F0E6F9A0EB080047
:10070000A84222D8206800688007F2D52AE0036951
:100710000B4202D1C168114206D0026922490A4245
:1007200006D1C068084203D1542002E0292000E02D
:10073000FC204743009813E0681C0ED02DB100F058
:10074000C3F9A0EB0800A84207D9A06A40F0040052
:10075000A06284F824600320A4E70098401C009065
:10076000B842E9D321686FF012000860A06A40F433
:100770000070A06220688068C0F3424007280CD156
:10078000207B50B9A06A20F48070A062A06AC004E7
:1007900003D4A06A40F00100A062002082E70000BC
:1007A00010000020244992244992240070B5044688
:1007B00090F8240001280DD0012084F82400204660
:1007C000FFF738FD02004FF0000005D084F8240048
:1007D000104670BD022070BDA16A40F2012399430A
:1007E00041F48071A1621F4D23681F49AB4218D1AB
:1007F0000E6816F4702F14D0A66A46F48016A6620E
:100800000E68760505D5A66A26F4005646F480568D
:10081000A662A66AF6040AD5E66A26F00606E6622D
:1008200006E0A66A26F48016A6625E68E9E7E06242
:1008300084F824006FF00200186020688368C3F316
:100840004243072B05D1A84208D1096811F4702F43
:1008500004D0816841F480118160B9E7816841F476
:10086000A001F9E7002801400424014010B5044626
:1008700090F82400012807D0012084F824002046A5
:10088000FFF7B2FC10B107E0022010BDA16A21F40D
:10089000885141F00101A162002184F8241010BDAB
:1008A00070B5044600F010F90546601C02D00448FB
:1008B0000078044400F008F9401BA042FAD370BD50
:1008C000040000202DE9F84FDFF8C891002409F159
:1008D000040A0AF1040B23460F270BF1040ED1E0A2
:1008E0000125A54006EA0502AA4276D1DFF8A8C193
:1008F0004E68A6EB0C0866452BD00DDC032E34D0D9
:1009000005DC36B3012E19D0022E2FD11BE0112E9B
:1009100016D0122E2AD119E0B8F5881F19D006DC9E
:10092000B8F5803F15D0B8F5801F1FD111E0B8F59C
:10093000001F0ED0B8F5041F18D10AE0CB6815E0EF
:10094000CB681B1D12E0CB6808330FE0CB680C337B
:100950000CE08B682BB1012B4FF0080303D04561ED
:1009600004E0042302E0056100E00023FF2A01D82F
:10097000064601E000F104064FEA840501D9A5F11D
:100980002005D6F8008007FA05FC28EA0C0803FACF
:1009900005F548EA0508C6F800804D68ED0070D5F9
:1009A0003E4DAE6946F00106AE61AD6924F0030626
:1009B00005F0010500953A4D06EB050CDCF80850F2
:1009C000A607360F07FA06F825EA0805DFF8D480EF
:1009D000404503D14FF0000825E052E0DFF8C88021
:1009E000404502D14FF001081DE0DFF8C0804045CE
:1009F00002D14FF0020816E0DFF8B480404502D182
:100A00004FF003080FE0DFF8AC80404502D14FF013
:100A1000040808E0DFF8A080404502D14FF0050847
:100A200001E04FF0060808FA06F848EA0508CCF895
:100A300008804D68D9F80060ED034D4601D5164396
:100A400000E096432E604D68DAF80060AD0355462D
:100A500001D5164300E096432E604D68DBF8006038
:100A6000ED025D4601D5164300E096432E604D68C9
:100A7000DEF80060AD02754601D5164300E09643EE
:100A80002E60641C0A681646E2407FF429AFBDE878
:100A9000F88F000000040140000011100010024017
:100AA0000000014000080140000C0140001001401E
:100AB0000014014000180140001C01400AB101610E
:100AC00070470904FBE70000014880687047000098
:100AD0000400002002488168027811448160704758
:100AE00004000020074810B5016841F010010160C2
:100AF000032000F075F8002000F006F800F024F85C
:100B0000002010BD0020024070B50D4D04464FF48A
:100B10007A712878B1FBF0F00A490968B1FBF0F06E
:100B200000F0CCFB48B9102C07D200222146501E01
:100B300000F036F800206C6070BD012070BD000030
:100B400004000020100000200C4808B5816941F025
:100B500001018161816901F001010091C16941F0E8
:100B60008051C161C06900F0805000900448416824
:100B700021F0E06141F00071416008BD00100240C9
:100B800000000140002809DB00F01F020121914014
:100B90004009800000F1E020C0F80011704700001B
:100BA000F0B40E4B1B680C46C3F30223C3F10705D8
:100BB000042D00D90425191D072901D2002300E0C6
:100BC000DB1E012606FA05F1491E214099409E4090
:100BD000761E16403143F0BC00F0E2BD0CED00E0A3
:100BE000064900F0070208684FF6FF03184040EA84
:100BF0000220034A10430860704700000CED00E03B
:100C00000000FA0510B52CA401461DCC86B08DE875
:100C10001D002DA02D4C00680490002004292FD029
:100C20000BDC01292FD0022928D100F071F961686D
:100C3000C1F38131491C49001EE0082920D0102948
:100C40001CD161682268D20118D5C1F38342C9035F
:100C50001DF8020009D5616804AAC1F34041515C46
:100C60001B4AB2FBF1F1484301E01A49484361686D
:100C7000490203D440000321B0FBF1F006B010BDDF
:100C800000F056F9FAE7226AC2F30121012903D1E3
:100C9000920701D5C803F1E7022905D1626A9207DC
:100CA00002D549F64040E9E70329E7D121688903E5
:100CB000E4D54FF22440E1E70203040506070809E2
:100CC0000A0B0C0D0E0F1010010200000010024064
:100CD00000127A0000093D002DE9F843054600782E
:100CE000354CC00754D0E0690026C00008D4E06944
:100CF00040F08050E061E069012600F080500090F3
:100D00002E480168C90512D40168804641F48071FB
:100D10000160FFF7D9FE074605E000BFFFF7D4FEEC
:100D2000C01B642823D8D8F80000C005F6D5206A77
:100D300010F4407021D0A98801F4407181421CD088
:100D4000206A1F49012220F440700A6000220A60D4
:100D50002062C00711D0FFF7B7FE074641F288387E
:100D600008E000BFFFF7B0FEC11B414502D90320D8
:100D7000BDE8F883206A8007F4D5206A696820F40A
:100D80004070084320621EB1E06920F08050E061AD
:100D90002878800705D56068A96820F4404008439A
:100DA00060602878C00605D56068696920F4800015
:100DB000084360600020DBE7001002400070004044
:100DC000400442422DE9F0470F46050061D0434EF2
:100DD000306800F00700B84209D2306820F0070000
:100DE00038433060306800F00700B84251D12868BD
:100DF0003B4C810712D5400703D5606840F4E060A2
:100E000060602878000703D5606840F46050606037
:100E10006068A96820F0F000084360602878C00787
:100E200028D06868012810D02168022810D08907CE
:100E300000292EDA616821F0030101436160FFF7A8
:100E400043FE804641F288390DE021688903EFE7CF
:100E50008901EDE7FFF738FEA0EB0801494502D90B
:100E60000320BDE8F0876068696800F00C00B0EB13
:100E7000810FEFD1306800F00700B8420BD930681D
:100E800020F0070038433060306800F00700B842B7
:100E900001D00120E5E72878400705D56068E968BA
:100EA00020F4E060084360602878000706D5606899
:100EB000296920F4605040EAC100606000F038F811
:100EC0006168084AC1F30311515CC84006490860D3
:100ED00006480068FFF718FE0020C2E70020024025
:100EE000001002408C1900081000002008000020AB
:100EF0000448054900684968044AC1F30221515C6D
:100F0000C840704710000020001002409C190008E3
:100F10000448054900684968044AC1F3C221515C8C
:100F2000C840704710000020001002409C190008C3
:100F300012A185B00FC98DE80F0014A0144A0068F3
:100F400004905168134801F00C03042B10D0082BB7
:100F50000ED1C1F38343C9031DF803000AD55168BC
:100F600004AAC1F34041515C0A4A5043B0FBF1F07E
:100F700005B0704708494843FAE70000020304053A
:100F8000060708090A0B0C0D0E0F101001020000D5
:100F90000010024000127A0000093D002DE9F84FD0
:100FA000040070D02078C04DC00749D06868C0F3F5
:100FB0008100012807D06868C0F38100022809D1A8
:100FC0006868C00306D52868800339D560680028A2
:100FD000E7D035E06068B0F5803F0BD010B1B0F5D8
:100FE000A02F11D0286820F480302860286820F4D1
:100FF000802002E0286840F480302860606890B16A
:10100000FFF762FD06460AE0286840F48020286069
:10101000F0E700BFFFF758FD801B642873D82868ED
:101020008003F7D50CE0FFF74FFD064605E000BF53
:10103000FFF74AFD801B6428F0D828688003F7D4A6
:1010400020789A4E80074FF001094FF0000839D5FB
:10105000686810F00C0F07D06868C0F381000228A0
:1010600009D16868C00306D42868800714D52069B0
:10107000012808D110E02069B0B1C6F80090FFF750
:1010800023FD074605E00AE1FFF71EFDC01B02280D
:10109000C4D828688007F7D52868616920F0F8006F
:1010A00040EAC10028600DE0C6F80080FFF70CFDA3
:1010B000074604E0FFF708FDC01B022823D8286874
:1010C0008007F7D4207800072CD57948A169D9B1D9
:1010D000C0F80090FFF7F8FC074604E0FFF7F4FCC7
:1010E000C01B02280FD8686A8007F7D571484FF4F3
:1010F000FA510068B0FBF1F0009000BF0098411E6B
:101100000091FAD20EE080E0C0F80080FFF7DCFC2E
:10111000074604E0FFF7D8FCC01B022875D8686AB0
:101120008007F7D42078400760D5E8690027C00021
:1011300008D4E86940F08050E861E869012700F0D0
:10114000805000905C480168C90513D4016883464B
:1011500041F480710160FFF7B7FC824606E000BFF2
:10116000FFF7B2FCA0EB0A0064284ED8DBF80000C1
:10117000C005F5D5E06801280AD008B1052813D0CC
:10118000286A20F001002862286A20F0040002E0AA
:10119000286A40F001002862E06841F2883B98B17B
:1011A000FFF792FC82460BE0286A40F004002862B8
:1011B000EEE700BFFFF788FCA0EB0A0159455AD8BB
:1011C000286A8007F6D50CE0FFF77EFC824605E032
:1011D000FFF77AFCA0EB0A0159454CD8286A800732
:1011E000F6D41FB1E86920F08050E861E06988B367
:1011F0006968C1F38101022944D00228C6F86080E1
:1012000004D0FFF761FC044638E034E0FFF75CFCF3
:10121000074604E0FFF758FCC01B02282BD82868BB
:101220008001F7D4206AB0F5803F05D16868A168D5
:1012300020F4003008436860D4E908010843696875
:1012400021F4741108436860C6F86090FFF73CFC15
:10125000044606E025E000BFFFF736FC001B02282D
:1012600009D828688001F7D51BE000BFFFF72CFCE8
:10127000001B022802D90320BDE8F88F28688001EE
:10128000F4D40EE00128F7D06868226A00F48031B7
:10129000914204D1616A00F47010884201D00120AB
:1012A000EAE70020E8E700000010024000004242A8
:1012B00080044242100000200070004010B5401E23
:1012C000B0F1807F01D3012010BD4FF0E0246061B8
:1012D0000F21601700F064FA0020A0610720206150
:1012E000002010BD70B5040004D094F8390000252A
:1012F00010B106E0012070BD84F83850204600F09F
:1013000023F8242084F839002068C16821F40051B2
:10131000C160204600F062F92068016921F4904123
:1013200001612068416921F02A0141612068C1689A
:1013300041F40051C160E563202084F8390084F84D
:101340003A00002070BD000030B585B00024009444
:1013500001940294039400681449884224D11448EB
:10136000816941F480418161816901F48041049186
:10137000816941F00401816180690E4D00F0040033
:1013800004904FF40070009002200190032003901D
:1013900069462846FFF796FA2815CDE90004694604
:1013A00028460294FFF78EFA05B030BD00380140A0
:1013B00000100240000801402DE9F843044690F86F
:1013C00039001F4616460D46202850D1A5B19EB1C2
:1013D00094F8380001284AD0012084F838004FF0F2
:1013E0000008C4F83C80212084F83900FFF76CFB2A
:1013F000A6848146E68426E00120BDE8F883E08CDF
:10140000401EE084A0684B46B0F5805F4FF00002BC
:101410004FF080012046009703D000F03BF9E8B977
:101420000DE000F037F9C8B928882168C0F308003A
:101430004860206908B16D1C05E0AD1C03E021681F
:1014400015F8010B4860E08C0028D8D14B460022EB
:1014500040212046009700F01DF908B10320CCE799
:10146000202084F8390084F838800020C5E7022065
:10147000C3E7FEE73EB500240D48009401940294B2
:101480000A498460016004730475012505614FF405
:1014900060214460C161FFF72BF8CDE90045694642
:1014A00003480294FEF72EFF3EBD000000240140D9
:1014B0001400002030B585B0002418480094019431
:1014C00002940394816941F040018161816901F0D6
:1014D00040010491816941F010018161816901F04D
:1014E00010010491816941F00401816180690C4D12
:1014F00000F004000490002204212846FFF7DEFAE1
:10150000042000900120CDE90104022003906946E7
:101510002846FFF7D7F905B030BD000000100240A3
:1015200000180140FEE7704770477047FFF7D2BAD6
:1015300030B595B028216846FEF71DFE14210AA893
:10154000FEF719FE18210FA8FEF715FE0121080469
:10155000CDE900100024029402250491CDE9075042
:101560004FF4E01009906846FFF718FD0F20CDE911
:101570000A056802CDE90C4002210AA80E94FFF783
:1015800021FCA80311900F950FA8FFF7A5FB15B03C
:1015900030BD00000D48016841F001010160416863
:1015A0000B4A1140416001680A4A1140016001681C
:1015B00021F480210160416821F4FE0141604FF473
:1015C0001F0181600449C003086070470010024099
:1015D0000000FFF8FFFFF6FE08ED00E02DE9F04106
:1015E000044600680169E26821F440511143016139
:1015F0002169A0680843616908432168CA6841F20B
:101600000C639A430243CA6020684169A26921F4CD
:101610004071114341611E49206864253226884289
:1016200002D1FFF775FC01E0FFF762FC00EBC0019F
:1016300001EB001160686FF018078000B1FBF0F259
:10164000B2FBF5F2B1FBF0F37A4303EB8202B1FB9C
:10165000F0F306EB0212B2FBF5F2B3FBF5F302F086
:10166000F00202EB0312B1FBF0F3B1FBF0F0B0FBC0
:10167000F5F0784303EB800006EB0010B0FBF5F0CB
:10168000216800F00F0010448860BDE8F081000080
:10169000003801402DE9F041984617460E460446B1
:1016A000069D1DE0681C1BD02DB1FFF70DFAA0EBC5
:1016B0000800A84214D92068C16821F4D071C16023
:1016C0002068416921F001014161202084F839003E
:1016D00084F83A00002084F838000320BDE8F08147
:1016E0002068006836EA000004D00020B842D9D053
:1016F0000020F3E70120F9E77CB5114964230A24AF
:101700004888B0FBF3F5B0FBF4F203FB150504FBCE
:101710001202B5FBF4F4B0FBF3F3CDE900420A8802
:1017200008A1134800F028F802B01149BDE8704044
:1017300042F210734022A1F14000FFF73DBE0000CD
:1017400000000020E98787E6A0B7E580BCEFBC9ADF
:101750002564EFBC8CE794B5E58E8BEFBFBD3FEF02
:10176000BFBDEFBC9A25642E25642564560D0A0082
:1017700084000020FEE700000FB4084B10B504A958
:1017800002AA039800F02CF8044602A9002000F0F9
:10179000D1F8204610BC5DF814FB00003519000894
:1017A0000907090E002804DB00F1E02080F800148E
:1017B000704700F00F0000F1E02080F8141D704722
:1017C00002E008C8121F08C1002AFAD1704770470A
:1017D000002001E001C1121F002AFBD17047000068
:1017E0002DE9FF4F89B09B460446002506E02528D9
:1017F0000BD05A460B999047641C6D1C207800282A
:10180000F5D10DB02846BDE8F08F0027B84601227B
:10181000474900E0074314F8013F203B02FA03F078
:101820000842F7D120782E2819D114F8010F47F07B
:1018300004072A280ED06FF02F022078A0F1300183
:1018400009290CD808EB880102EB410100EB0108E3
:10185000641CF2E70A98641C50F8048B0A90207804
:101860000028CED0642808D0692806D075281ED05C
:101870005A460B9990476D1C58E00A994FF00A0997
:1018800001C90A91002802DA40422D2102E03905FF
:1018900004D52B218DF82010012103E0F90704D095
:1018A0002021F7E78A4608AE0DE00021FAE70A9901
:1018B0004FF00A0901C90A91F7E74946FEF766FCAD
:1018C000303106F8011D0028F7D1ADEB060000F11C
:1018D0002009780701D44FF00108C84502DDA8EBC4
:1018E000090000E000208046002706E008A85A46CC
:1018F000C05D0B9990476D1C7F1C5745F6DB04E0DB
:1019000030205A460B9990476D1CB8F10001A8F1A0
:101910000108F5DC05E016F8010B5A460B999047D3
:101920006D1CB9F10001A9F10109F4DC641C65E743
:10193000092801000A68531C0B60107070470000F2
:10194000FEF7B2FCFFF7D8FE4FF4FA70FEF7A8FFDF
:10195000FFF7C8F8FFF7ECFDFFF7ACFDFFF78AFDD6
:10196000094808490C2201604FF4E131416000212F
:101970008160C160C0E904128161C161FFF7B2FCFE
:10198000FEE7000000380140440000200000000095
:10199000000000000102030406070809000000001F
:1019A00001020304C4190008000000201400000014
:1019B000C0170008D819000814000020B404000063
:1019C000D017000800000000010000001000000017
:0819D000000000000024F400F7
:0400000508000131BD
:00000001FF
