:020000040800F2
:1000000000C0002021290008412700084D270008D2
:1000100053270008592700085F2700080000000048
:10002000000000000000000000000000652700083C
:1000300071270008000000007D27000889270008BC
:100040006929000869290008692900086929000848
:100050006929000869290008692900086929000838
:100060006929000869290008692900086929000828
:100070006929000869290008692900086929000818
:1000800069290008692900089527000869290008DE
:1000900069290008692900086929000869290008F8
:1000A00069290008692900086929000869290008E8
:1000B00069290008692900086929000869290008D8
:1000C00069290008692900086929000869290008C8
:1000D00069290008A927000869290008692900087A
:1000E00069290008692900086929000869290008A8
:1000F0006929000869290008692900086929000898
:100100006929000869290008692900086929000887
:100110006929000869290008692900086929000877
:100120006929000869290008692900086929000867
:1001300000000000000000000000000000000000BF
:1001400000000000000000000000000000000000AF
:10015000000000000000000000000000000000009F
:10016000000000000000000000000000000000008F
:10017000000000000000000000000000000000007F
:10018000000000000000000000000000000000006F
:10019000000000000000000000000000000000005F
:1001A000000000000000000000000000000000004F
:1001B000000000000000000000000000000000003F
:1001C000000000000000000000000000000000002F
:1001D000000000000000000000000000000000001F
:0401E0005FF8E0F1F3
:1001E40010B5054C237833B9044B13B10448AFF36D
:1001F40000800123237010BD6C0400200000000067
:10020400342B000808B5034B1BB103490348AFF373
:10021400008008BD0000000070040020342B00089A
:1002240080B500AF084B1B68074A43F01003136006
:10023400032000F043FC002000F008F802F04CFA20
:100244000023184680BD00BF0020024080B582B064
:1002540000AF7860124B1A68124B1B7819464FF4A2
:100264007A73B3FBF1F3B2FBF3F3184600F05BFCD3
:100274000346002B01D001230EE07B680F2B0AD824
:10028400002279684FF0FF3000F023FC064A7B68B7
:100294001360002300E0012318460837BD4680BDE3
:1002A40038000020040000200000002080B400AFCB
:1002B400054B1B781A46054B1B681344034A13600D
:1002C40000BFBD4680BC70470400002088040020A5
:1002D40080B400AF024B1B681846BD4680BC704713
:1002E4008804002080B584B000AF7860FFF7F0FF89
:1002F400B8607B68FB60FB68B3F1FF3F05D00A4B35
:100304001B781A46FB681344FB6000BFFFF7E0FF4D
:100314000246BB68D31AFA689A42F7D800BF00BFF6
:100324001037BD4680BD00BF0400002080B586B0F4
:1003340000AF78600023FB7500233B610023BB60A2
:100344000023FB607B68002B01D10123CEE07B6896
:100354009B68002B7B689B6A002B09D17B68002279
:10036400DA627B68002283F82420786802F034F88B
:10037400786800F093FA0346FB757B689B6A03F088
:100384001003002B40F0A980FB7D002B40F0A580DA
:100394007B689B6A23F4885323F0020343F0020230
:1003A4007B689A627B685A687B681B6851498B42F8
:1003B4000AD17B68DB69B3F5402F02D07B68DB6927
:1003C40004E04FF4002301E07B68DB691A437B6897
:1003D4001B7B5B001343BA681343BB607B689B6859
:1003E400B3F5807F03D07B689B68012B02D14FF467
:1003F400807300E000233A6913433B617B681B7DF3
:10040400012B19D17B681B7B002B09D17B689B696D
:10041400013B5A033B69134343F400633B610BE024
:100424007B689B6A43F020027B689A627B68DB6A84
:1004340043F001027B68DA627B681B685B6823F423
:1004440069417B681B683A690A435A607B681B6888
:100454009A68294B13407A681268B9680B43936011
:100464007B689B68B3F5807F03D07B689B68012B16
:1004740004D17B681B69013B1B05FB607B681B681F
:10048400DB6A23F470017B681B68FA680A43DA624A
:100494007B681B689A68194B1340BA689A420BD15F
:1004A4007B680022DA627B689B6A23F0030343F0D3
:1004B40001027B689A6218E07B689B6A23F012034E
:1004C40043F010027B689A627B68DB6A43F00102A6
:1004D4007B68DA620123FB7507E07B689B6A43F063
:1004E40010027B689A620123FB75FB7D184618375E
:1004F400BD4680BD003C0140FDF7E1FFFE0E1FFF3D
:1005040080B582B000AF78607B681B685B6803F0DD
:100514002003202B40D17B681B681B6803F0020377
:10052400022B39D17B689B6A03F01003002B05D1A1
:100534007B689B6A43F400727B689A627B681B68E1
:100544009B6803F46023B3F5602F1DD17B681B7B8C
:10055400002B19D17B681B685A687B681B6822F0E2
:1005640020025A607B689B6A23F480727B689A62DB
:100574007B689B6A03F48053002B05D17B689B6ADC
:1005840043F001027B689A62786800F07CF87B682B
:100594001B686FF012021A607B681B685B6803F0CB
:1005A4008003802B4FD17B681B681B6803F0040316
:1005B400042B48D17B689B6A03F01003002B05D100
:1005C4007B689B6A43F400527B689A627B681B6871
:1005D4009B6803F4E043B3F5E04F12D07B681B68DB
:1005E4005B6803F48063002B25D17B681B689B68E0
:1005F40003F46023B3F5602F1DD17B681B7B002BB4
:1006040019D17B681B685A687B681B6822F08002DA
:100614005A607B689B6A23F480527B689A627B6889
:100624009B6A03F48073002B05D17B689B6A43F0BB
:1006340001027B689A62786800F06AF97B681B683B
:100644006FF00C021A607B681B685B6803F0400360
:10065400402B14D17B681B681B6803F00103012B3A
:100664000DD17B689B6A43F480327B689A62786818
:1006740000F012F87B681B686FF001021A6000BF7B
:100684000837BD4680BD80B483B000AF786000BF3A
:100694000C37BD4680BC704780B483B000AF78602F
:1006A40000BF0C37BD4680BC7047000080B485B0E5
:1006B40000AF786039600023FB730023BB607B6864
:1006C40093F82430012B01D10223DCE07B68012262
:1006D40083F824203B685B68062B1CD87B681B6866
:1006E400596B3B685A6813469B001344053B1F2211
:1006F40002FA03F3DB4319403B6818683B685A6805
:1007040013469B001344053B00FA03F27B681B6805
:100714000A435A633CE03B685B680C2B1CD87B683B
:100724001B68196B3B685A6813469B001344233BB0
:100734001F2202FA03F3DB4319403B6818683B6845
:100744005A6813469B001344233B00FA03F27B6868
:100754001B680A431A631BE07B681B68D96A3B6801
:100764005A6813469B001344413B1F2202FA03F3C9
:10077400DB4319403B6818683B685A6813469B0082
:100784001344413B00FA03F27B681B680A43DA62B4
:100794003B681B68092B1CD97B681B68D9683B68BC
:1007A4001A6813465B0013441E3B072202FA03F344
:1007B400DB4319403B6898683B681A6813465B0042
:1007C40013441E3B00FA03F27B681B680A43DA6099
:1007D40019E07B681B6819693B681A6813465B005B
:1007E4001344072202FA03F3DB4319403B68986879
:1007F4003B681A6813465B00134400FA03F27B68F3
:100804001B680A431A613B681B68102B03D03B68C2
:100814001B68112B32D17B681B681D4A934225D17A
:100824007B681B689B6803F40003002B26D17B685C
:100834001B689A687B681B6842F400029A603B68F4
:100844001B68102B1AD1134B1B68134AA2FB0323FA
:100854009A0C13469B0013445B00BB6002E0BB6828
:10086400013BBB60BB68002BF9D107E07B689B6A46
:1008740043F020027B689A620123FB737B680022A9
:1008840083F82420FB7B18461437BD4680BC704790
:10089400002401403800002083DE1B4380B584B06F
:1008A40000AF78600023FB607B681B689B6803F0E3
:1008B4000103012B27D17B681B689A687B681B683E
:1008C40022F001029A60FFF703FDF86014E0FFF7DD
:1008D400FFFC0246FB68D31A022B0DD97B689B6A86
:1008E40043F010027B689A627B68DB6A43F0010282
:1008F4007B68DA62012307E07B681B689B6803F06E
:100904000103012BE3D0002318461037BD4680BDF8
:1009140080B483B000AF786000BF0C37BD4680BCA4
:100924007047000080B485B000AF78607B6803F046
:100934000703FB600C4BDB68BB60BA684FF6FF0330
:100944001340BB60FB681A02BB68134343F0BF63E8
:1009540043F40033BB60044ABB68D36000BF143760
:10096400BD4680BC704700BF00ED00E080B400AF1E
:10097400044BDB681B0A03F007031846BD4680BC22
:10098400704700BF00ED00E080B483B000AF0346C1
:10099400FB7197F90730002B0BDBFB7903F01F0287
:1009A400064997F907305B09012000FA02F241F881
:1009B400232000BF0C37BD4680BC704700E100E037
:1009C40080B483B000AF03463960FB7197F90730F8
:1009D400002B0ADB3B68DAB20C4997F907301201A5
:1009E400D2B20B4483F800230AE03B68DAB2084928
:1009F400FB7903F00F03043B1201D2B20B441A76C5
:100A040000BF0C37BD4680BC704700BF00E100E06A
:100A140000ED00E080B489B000AFF860B9607A609E
:100A2400FB6803F00703FB61FB69C3F10703042BB5
:100A340028BF0423BB61FB690433062B02D9FB697D
:100A4400033B00E000237B614FF0FF32BB6902FAF5
:100A540003F3DA43BB681A407B699A404FF0FF31D5
:100A64007B6901FA03F3D9437B680B4013431846AF
:100A74002437BD4680BC704780B582B000AF786033
:100A84007B68013BB3F1807F01D301230FE00A4A65
:100A94007B68013B53600F214FF0FF30FFF790FF5D
:100AA400054B00229A60044B07221A600023184663
:100AB4000837BD4680BD00BF10E000E080B582B0BD
:100AC40000AF78607868FFF72DFF00BF0837BD4698
:100AD40080BD80B586B000AF0346B9607A60FB7311
:100AE40000237B61FFF742FF78617A68B96878690F
:100AF400FFF790FF024697F90F3011461846FFF7AB
:100B04005FFF00BF1837BD4680BD80B582B000AF1F
:100B14000346FB7197F907301846FFF735FF00BF0E
:100B24000837BD4680BD80B582B000AF7860786874
:100B3400FFF7A2FF034618460837BD4680BD0000F4
:100B440080B584B000AF78600023FB737B6893F8B2
:100B54002130022B05D07B6804229A630123FB73A6
:100B6400D6E07B681B681A687B681B6822F00E025B
:100B74001A607B681B681A687B681B6822F0010294
:100B84001A607B681B681A46644B9A4258D97B6882
:100B94001B68634A93424FD07B681B68614A934247
:100BA40048D07B681B68604A934240D07B681B68CE
:100BB4005E4A934238D07B681B685D4A934230D0CA
:100BC4007B681B685B4A934228D07B681B68534A46
:100BD400934220D07B681B68574A934219D07B68A4
:100BE4001B68564A934212D07B681B68544A93424E
:100BF4000AD07B681B68534A934202D14FF4805356
:100C04001BE04FF4803318E04FF4807315E0102399
:100C140013E0012311E04FF080730EE04FF48013D2
:100C24000BE04FF4803308E04FF4805305E04FF4B9
:100C3400807302E0102300E00123434A536057E02D
:100C44007B681B68364A93424FD07B681B68354AE1
:100C5400934248D07B681B68334A934240D07B68F8
:100C64001B68324A934238D07B681B68304A9342EF
:100C740030D07B681B682F4A934228D07B681B685E
:100C8400264A934220D07B681B682B4A934219D092
:100C94007B681B68294A934212D07B681B68284AE8
:100CA40093420AD07B681B68264A934202D14FF4D0
:100CB40080531BE04FF4803318E04FF4807315E049
:100CC400102313E0012311E04FF080730EE04FF482
:100CD40080130BE04FF4803308E04FF4805305E0B9
:100CE4004FF4807302E0102300E00123174A53609D
:100CF4007B68012283F821207B68002283F820206E
:100D04007B685B6B002B03D07B685B6B78689847D0
:100D1400FB7B18461037BD4680BD00BF80000240F3
:100D2400080002401C00024030000240440002401F
:100D3400580002406C000240080402401C040240B7
:100D44003004024044040240000402400000024017
:100D540080B48BB000AF7860396000237B620023DD
:100D64003B6279E101227B6A02FA03F3FB613B688F
:100D74001B68FA691340BB61BA69FB699A4240F087
:100D840068813B685B68A04A93425ED09E4A934266
:100D940075D89E4A934258D09C4A93426FD89C4A35
:100DA400934252D09A4A934269D89A4A93424CD079
:100DB400984A934263D8984A934246D0964A9342BB
:100DC4005DD8122B2AD8122B59D801A252F823F03D
:100DD4004F0E0008290E00083B0E00087D0E000887
:100DE400830E0008830E0008830E0008830E00089B
:100DF400830E0008830E0008830E0008830E00088B
:100E0400830E0008830E0008830E0008830E00087A
:100E1400830E0008310E0008450E00087F4A9342F5
:100E240013D02CE03B68DB683B6229E03B68DB685D
:100E340004333B6224E03B68DB6808333B621FE019
:100E44003B68DB680C333B621AE03B689B68002B11
:100E540002D104233B6213E03B689B68012B05D15C
:100E640008233B627B68FA691A6109E008233B6244
:100E74007B68FA695A6103E000233B6200E000BF2B
:100E8400BB69FF2B01D87B6801E07B6804337B617D
:100E9400BB69FF2B02D87B6A9B0002E07B6A083B9C
:100EA4009B003B617B691A680F213B6901FA03F3DC
:100EB400DB431A40396A3B6901FA03F31A437B693D
:100EC4001A603B685B6803F08053002B00F0C1801C
:100ED400534B9B69524A43F001039361504B9B6906
:100EE40003F00103BB60BB684E4A7B6A9B08023374
:100EF40052F82330FB607B6A03F003039B000F224C
:100F040002FA03F3DB43FA681340FB607B68464A4A
:100F140093421FD07B68454A934219D07B68444A68
:100F2400934213D07B68434A93420DD07B68424A74
:100F3400934207D07B68414A934201D105230AE0DA
:100F4400062308E0042306E0032304E0022302E06E
:100F5400012300E000237A6A02F003029200934026
:100F6400FA681343FB602F497B6A9B080233FA68D3
:100F740041F823203B685B6803F48033002B06D0E0
:100F84002F4B1A682E49BB6913430B6006E02C4BA8
:100F94001A68BB69DB432A4913400B603B685B68F2
:100FA40003F40033002B06D0254B5A682449BB694F
:100FB40013434B6006E0224B5A68BB69DB4320496C
:100FC40013404B603B685B6803F48013002B06D02E
:100FD4001B4B9A681A49BB6913438B6006E0184B94
:100FE4009A68BB69DB43164913408B603B685B68B6
:100FF40003F40013002B25D0114BDA681049BB69A8
:101004001343CB6025E000BF000032100000311014
:101014000000221000002110000012100000111026
:10102400001002400000014000080140000C014093
:10103400001001400014014000180140001C014050
:10104400000401400B4BDA68BB69DB4309491340D8
:10105400CB607B6A01337B623B681A687B6A22FA45
:1010640003F3002B7FF47EAE00BF00BF2C37BD46D8
:1010740080BC70470004014080B483B000AF786046
:101084000B467B8013467B707B78002B03D07A88D9
:101094007B681A6103E07B881A047B681A6100BFCD
:1010A4000C37BD4680BC704780B586B000AF786011
:1010B4007B68002B01D101236CE27B681B6803F081
:1010C4000103002B00F08780924B5B6803F00C0354
:1010D400042B0CD08F4B5B6803F00C03082B12D14C
:1010E4008C4B5B6803F48033B3F5803F0BD1894BA1
:1010F4001B6803F40033002B6CD07B685B68002B07
:1011040068D1012346E27B685B68B3F5803F06D172
:10111400804B1B687F4A43F4803313602EE07B6866
:101124005B68002B0CD17B4B1B687A4A23F4803319
:101134001360784B1B68774A23F4802313601DE007
:101144007B685B68B3F5A02F0CD1724B1B68714AA6
:1011540043F4802313606F4B1B686E4A43F480335F
:1011640013600BE06B4B1B686A4A23F480331360F3
:10117400684B1B68674A23F4802313607B685B68B1
:10118400002B13D0FFF7A4F8386108E0FFF7A0F8AC
:1011940002463B69D31A642B01D90323FAE15D4B60
:1011A4001B6803F40033002BF0D014E0FFF790F831
:1011B400386108E0FFF78CF802463B69D31A642BC8
:1011C40001D90323E6E1534B1B6803F40033002BDE
:1011D400F0D100E000BF7B681B6803F00203002B22
:1011E40063D04C4B5B6803F00C03002B0BD0494BD2
:1011F4005B6803F00C03082B1CD1464B5B6803F4BB
:101204008033002B16D1434B1B6803F00203002BE1
:1012140005D07B681B69012B01D00123BAE13D4B4A
:101224001B6823F0F8027B685B69DB0039491343D0
:101234000B603AE07B681B69002B20D0364B0122FF
:101244001A60FFF745F8386108E0FFF741F80246F5
:101254003B69D31A022B01D903239BE12D4B1B6855
:1012640003F00203002BF0D02A4B1B6823F0F80292
:101274007B685B69DB00274913430B6015E0264B51
:1012840000221A60FFF724F8386108E0FFF720F81D
:1012940002463B69D31A022B01D903237AE11D4B81
:1012A4001B6803F00203002BF0D17B681B6803F07A
:1012B4000803002B3AD07B689B69002B19D0174B8D
:1012C40001221A60FFF704F8386108E0FFF700F81C
:1012D40002463B69D31A022B01D903235AE10D4B71
:1012E4005B6A03F00203002BF0D0012000F0D8FA6F
:1012F4001CE00A4B00221A60FEF7EAFF38610FE097
:10130400FEF7E6FF02463B69D31A022B08D90323F2
:1013140040E100BF0010024000004242800442420B
:101324009E4B5B6A03F00203002BE9D17B681B68C8
:1013340003F00403002B00F0A6800023FB75974BF9
:10134400DB6903F08053002B0DD1944BDB69934A86
:1013540043F08053D361914BDB6903F08053BB604E
:10136400BB680123FB758E4B1B6803F48073002B51
:1013740018D18B4B1B688A4A43F480731360FEF7C1
:10138400A7FF386108E0FEF7A3FF02463B69D31AC2
:10139400642B01D90323FDE0814B1B6803F48073A4
:1013A400002BF0D07B68DB68012B06D17B4B1B6ADA
:1013B4007A4A43F0010313622DE07B68DB68002B5B
:1013C4000CD1764B1B6A754A23F001031362734BED
:1013D4001B6A724A23F0040313621CE07B68DB6817
:1013E400052B0CD16D4B1B6A6C4A43F0040313624A
:1013F4006A4B1B6A694A43F0010313620BE0674BB3
:101404001B6A664A23F001031362644B1B6A634A36
:1014140023F0040313627B68DB68002B15D0FEF70E
:1014240057FF38610AE0FEF753FF02463B69D31ABF
:1014340041F28832934201D90323ABE0574B1B6A34
:1014440003F00203002BEED014E0FEF741FF3861F5
:101454000AE0FEF73DFF02463B69D31A41F28832A7
:10146400934201D9032395E04C4B1B6A03F002031A
:10147400002BEED1FB7D012B05D1484BDB69474A9C
:1014840023F08053D3617B68DB69002B00F08180FB
:10149400424B5B6803F00C03082B61D07B68DB696B
:1014A400022B46D13F4B00221A60FEF711FF386130
:1014B40008E0FEF70DFF02463B69D31A022B01D95F
:1014C400032367E0354B1B6803F00073002BF0D156
:1014D4007B681B6AB3F5803F08D1304B5B6823F40B
:1014E40000327B689B682D4913434B602B4B5B6830
:1014F40023F474127B68196A7B685B6A0B4327497F
:1015040013434B60274B01221A60FEF7E1FE38615A
:1015140008E0FEF7DDFE02463B69D31A022B01D92F
:10152400032337E01D4B1B6803F00073002BF0D03E
:101534002FE01C4B00221A60FEF7CAFE386108E057
:10154400FEF7C6FE02463B69D31A022B01D90323D8
:1015540020E0124B1B6803F00073002BF0D118E05D
:101564007B68DB69012B01D1012313E00B4B5B6822
:10157400FB60FB6803F480327B681B6A9A4206D1E5
:10158400FB6803F470127B685B6A9A4201D0012302
:1015940000E0002318461837BD4680BD0010024005
:1015A400007000406000424280B584B000AF7860B3
:1015B40039607B68002B01D10123D0E06A4B1B68A2
:1015C40003F007033A689A4210D9674B1B6823F06B
:1015D400070265493B6813430B60634B1B6803F0C8
:1015E40007033A689A4201D00123B8E07B681B687C
:1015F40003F00203002B20D07B681B6803F0040374
:10160400002B05D0594B5B68584A43F4E0635360A0
:101614007B681B6803F00803002B05D0534B5B6801
:10162400524A43F460535360504B5B6823F0F0021A
:101634007B689B684D4913434B607B681B6803F0D0
:101644000103002B40D07B685B68012B07D1474B1B
:101654001B6803F40033002B15D101237FE07B6862
:101664005B68022B07D1414B1B6803F00073002B0E
:1016740009D1012373E03D4B1B6803F00203002BE7
:1016840001D101236BE0394B5B6823F003027B68D3
:101694005B68364913434B60FEF71AFEF8600AE0B4
:1016A400FEF716FE0246FB68D31A41F288329342D3
:1016B40001D9032353E02D4B5B6803F00C027B68D4
:1016C4005B689B009A42EBD1274B1B6803F007032E
:1016D4003A689A4210D2244B1B6823F0070222492D
:1016E4003B6813430B60204B1B6803F007033A6805
:1016F4009A4201D0012332E07B681B6803F00403A3
:10170400002B08D0194B5B6823F4E0627B68DB682C
:10171400164913434B607B681B6803F00803002BD6
:1017240009D0124B5B6823F460527B681B69DB00B1
:101734000E4913434B6000F021F802460B4B5B68E3
:101744001B0903F00F030A49CB5C22FA03F3094A8D
:101754001360094B1B681846FEF778FD00231846F2
:101764001037BD4680BD00BF00200240001002407B
:101774005C2B0008380000200000002090B48AB0E0
:1017840000AF2A4B3C1D0FCB84E80F0040F201232D
:101794003B800023FB610023BB6100237B620023A9
:1017A4007B6100233B62224B5B68FB61FB6903F0B6
:1017B4000C03042B02D0082B03D02DE01D4B3B62FD
:1017C4002DE0FB699B0C03F00F0307F1280213447F
:1017D40013F8243C7B61FB6903F48033002B13D0A2
:1017E400134B5B685B0C03F0010307F128021344FD
:1017F40013F8283CBB617B690E4A02FB03F2BB6908
:10180400B2FBF3F37B6204E07B690B4A02FB03F354
:101814007B627B6A3B6202E0064B3B6200BF3B6A31
:1018240018462837BD4690BC704700BF4C2B0008B3
:101834000010024000127A0000093D0080B400AF9D
:10184400024B1B681846BD4680BC70473800002018
:1018540080B500AFFFF7F2FF0246054B5B681B0A39
:1018640003F007030349CB5C22FA03F3184680BD57
:10187400001002406C2B000880B500AFFFF7DEFFBC
:101884000246054B5B68DB0A03F007030349CB5CA4
:1018940022FA03F3184680BD001002406C2B0008A6
:1018A40080B485B000AF78600A4B1B680A4AA2FB7B
:1018B40003235B0A7A6802FB03F3FB6000BFFB6847
:1018C4005A1EFA60002BF9D100BF00BF1437BD4681
:1018D40080BC704738000020D34D621080B586B0BC
:1018E40000AF786000233B610023FB607B681B68CA
:1018F40003F00103002B7DD00023FB754F4BDB6904
:1019040003F08053002B0DD14C4BDB694B4A43F061
:101914008053D361494BDB6903F08053BB60BB68E0
:101924000123FB75464B1B6803F48073002B18D10D
:10193400434B1B68424A43F480731360FEF7C8FCB0
:10194400386108E0FEF7C4FC02463B69D31A642BF5
:1019540001D903236DE03A4B1B6803F48073002B19
:10196400F0D0364B1B6A03F44073FB60FB68002B1A
:101974002ED07B685B6803F44073FA689A4227D0E0
:101984002E4B1B6A23F44073FB602E4B01221A601A
:101994002C4B00221A60294AFB681362FB6803F08F
:1019A4000103002B14D0FEF793FC38610AE0FEF724
:1019B4008FFC02463B69D31A41F28832934201D923
:1019C400032336E01D4B1B6A03F00203002BEED009
:1019D4001A4B1B6A23F440727B685B6817491343F4
:1019E4000B62FB7D012B05D1144BDB69134A23F0F9
:1019F4008053D3617B681B6803F00203002B08D07B
:101A04000E4B5B6823F440427B689B680B4913438D
:101A14004B607B681B6803F01003002B08D0074B56
:101A24005B6823F480027B685B69044913434B6061
:101A3400002318461837BD4680BD00BF0010024081
:101A4400007000404004424280B582B000AF78602C
:101A54007B68002B01D101233FE07B6893F8393088
:101A6400DBB2002B06D17B68002283F8382078682B
:101A740000F000FF7B68242283F839207B681B6810
:101A8400DA687B681B6822F40052DA60786800F038
:101A94008BFB7B681B681A697B681B6822F4904285
:101AA4001A617B681B685A697B681B6822F02A02EA
:101AB4005A617B681B68DA687B681B6842F40052D1
:101AC400DA607B680022DA637B68202283F839209D
:101AD4007B68202283F83A20002318460837BD4645
:101AE40080BD80B588B002AFF860B9603B60134632
:101AF400FB8000237B61FB6893F83930DBB2202B39
:101B040040F08380BB68002B02D0FB88002B01D1FE
:101B140001237BE0FB6893F83830012B01D10223C9
:101B240074E0FB68012283F83820FB680022DA6342
:101B3400FB68212283F83920FEF7CAFB7861FB6831
:101B4400FA889A84FB68FA88DA8442E0FB68DB8CC2
:101B54009BB2013B9AB2FB68DA84FB689B68B3F5DD
:101B6400805F22D13B6800937B6900228021F86862
:101B740000F0B0F90346002B01D0032346E0BB6814
:101B84003B613B691B881A46FB681B68C2F3080269
:101B94005A60FB681B69002B03D1BB680233BB602E
:101BA40017E0BB680133BB6013E03B6800937B69BB
:101BB40000228021F86800F08DF90346002B01D043
:101BC400032323E0BB685A1CBA601A78FB681B68BD
:101BD4005A60FB68DB8C9BB2002BB7D13B68009347
:101BE4007B6900224021F86800F074F90346002B59
:101BF40001D003230AE0FB68202283F83920FB6824
:101C0400002283F83820002300E002231846183706
:101C1400BD4680BD80B485B000AFF860B96013469E
:101C2400FB80FB6893F83A30DBB2202B40D1BB68D1
:101C3400002B02D0FB88002B01D1012339E0FB6883
:101C440093F83830012B01D1022332E0FB680122E2
:101C540083F83820FB68BA689A62FB68FA889A8528
:101C6400FB68FA88DA85FB680022DA63FB682222C3
:101C740083F83A20FB68002283F83820FB681B684D
:101C8400DA68FB681B6842F48072DA60FB681B68E0
:101C94005A69FB681B6842F001025A61FB681B68C1
:101CA400DA68FB681B6842F02002DA60002300E077
:101CB400022318461437BD4680BC704780B588B0EF
:101CC40000AF78607B681B681B68FB617B681B68DE
:101CD400DB68BB617B681B685B697B6100233B61DC
:101CE4000023FB60FB6903F00F033B613B69002B9E
:101CF4000DD1FB6903F02003002B08D0BB6903F06E
:101D04002003002B03D0786800F0CCF9CBE03B69CA
:101D1400002B00F0AB807B6903F00103002B05D19D
:101D2400BB6903F49073002B00F0A080FB6903F0FF
:101D34000103002B0AD0BB6903F48073002B05D088
:101D44007B68DB6B43F001027B68DA63FB6903F0B9
:101D54000403002B0AD07B6903F00103002B05D098
:101D64007B68DB6B43F002027B68DA63FB6903F098
:101D74000203002B0AD07B6903F00103002B05D07A
:101D84007B68DB6B43F004027B68DA63FB6903F076
:101D94000803002B0AD07B6903F00103002B05D054
:101DA4007B68DB6B43F008027B68DA637B68DB6B80
:101DB400002B77D0FB6903F02003002B07D0BB690D
:101DC40003F02003002B02D0786800F06BF97B68E5
:101DD4001B685B6903F04003002B14BF012300233D
:101DE400DBB2FB607B68DB6B03F00803002B02D1E2
:101DF400FB68002B31D0786800F0B6F87B681B686C
:101E04005B6903F04003002B23D07B681B685A698D
:101E14007B681B6822F040025A617B685B6B002B75
:101E240013D07B685B6B214A5A637B685B6B1846F3
:101E3400FEF786FE0346002B16D07B685B6B5B6B5C
:101E44007A68526B104698470EE0786800F039F8CB
:101E54000AE0786800F035F806E0786800F031F8B8
:101E64007B680022DA631DE000BF1BE0FB6903F01E
:101E74008003002B08D0BB6903F08003002B03D040
:101E8400786800F0A2F80EE0FB6903F04003002B31
:101E940009D0BB6903F04003002B04D0786800F03C
:101EA400E9F800E000BF2037BD4680BDA71F000849
:101EB40080B483B000AF786000BF0C37BD4680BCEF
:101EC400704780B483B000AF786000BF0C37BD4664
:101ED40080BC704780B584B000AFF860B9603B60E7
:101EE4001346FB712CE0BB69B3F1FF3F28D0BB69FB
:101EF400002B07D0FEF7ECF902463B68D31ABA6907
:101F04009A421DD2FB681B68DA68FB681B6822F4DE
:101F1400D072DA60FB681B685A69FB681B6822F0A0
:101F240001025A61FB68202283F83920FB682022D1
:101F340083F83A20FB68002283F8382003230FE05B
:101F4400FB681B681A68BB681340BA689A420CBFE6
:101F540001230023DBB21A46FB799A42C3D0002343
:101F640018461037BD4680BD80B483B000AF78609A
:101F74007B681B68DA687B681B6822F49072DA60FD
:101F84007B681B685A697B681B6822F001025A61EE
:101F94007B68202283F83A2000BF0C37BD4680BC02
:101FA400704780B584B000AF78607B685B6AFB6083
:101FB400FB680022DA85FB680022DA84F868FFF700
:101FC40080FF00BF1037BD4680BD80B485B000AF30
:101FD40078607B6893F83930DBB2212B44D17B687D
:101FE4009B68B3F5805F1AD17B681B6AFB60FB6852
:101FF4001B881A467B681B68C2F308025A607B6818
:102004001B69002B05D17B681B6A9A1C7B681A62CA
:102014000EE07B681B6A5A1C7B681A6208E07B68C6
:102024001B6A591C7A6811621A787B681B685A60AB
:102034007B68DB8C9BB2013B9BB27A681946D184E6
:10204400002B0FD17B681B68DA687B681B6822F061
:102054008002DA607B681B68DA687B681B6842F080
:102064004002DA60002300E0022318461437BD461C
:1020740080BC704780B582B000AF78607B681B6815
:10208400DA687B681B6822F04002DA607B682022F1
:1020940083F839207868FFF70BFF002318460837C8
:1020A400BD4680BD80B584B000AF78607B6893F88E
:1020B4003A30DBB2222B71D17B689B68B3F5805F29
:1020C40023D17B689B6AFB607B681B69002B0ED164
:1020D4007B681B685B689BB2C3F308039AB2FB6816
:1020E4001A807B689B6A9A1C7B689A6229E07B68E9
:1020F4001B685B689BB2DBB29AB2FB681A807B6890
:102104009B6A5A1C7B689A621BE07B681B69002BE4
:102114000AD17B681B6858687B689B6A591C7A687B
:102124009162C2B21A700CE07B681B685B68DAB219
:102134007B689B6A581C7968886202F07F02D2B27D
:102144001A707B68DB8D9BB2013B9BB27A6819469F
:10215400D185002B20D17B681B68DA687B681B68FB
:1021640022F02002DA607B681B68DA687B681B68EF
:1021740022F48072DA607B681B685A697B681B688A
:1021840022F001025A617B68202283F83A207868A1
:1021940000F0B2F9002302E0002300E00223184615
:1021A4001037BD4680BD000080B584B000AF7860B4
:1021B4007B681B681B6923F440517B68DA687B6881
:1021C4001B680A431A617B689A687B681B691A4317
:1021D4007B685B691343FB607B681B68DB6823F4E3
:1021E400B05323F00C037A681268F9680B43D36088
:1021F4007B681B685B6923F440717B689A697B6820
:102204001B680A435A617B681B68524A93424ED149
:10221400FFF732FBB860BA6813469B0013449A0078
:102224001A447B685B689B00B2FBF3F34A4AA2FB47
:1022340003235B091901BA6813469B0013449A00EF
:102244001A447B685B689B00B2FBF3F2424BA3FB2E
:1022540002035B09642000FB03F3D31A1B0132332E
:102264003D4AA2FB03235B0903F0F0031944BA6857
:1022740013469B0013449A001A447B685B689B00D6
:10228400B2FBF3F2344BA3FB02035B09642000FBB3
:1022940003F3D31A1B0132332F4AA2FB03235B0936
:1022A40003F00F027B681B680A449A604DE0FFF755
:1022B400CFFAB860BA6813469B0013449A001A44D4
:1022C4007B685B689B00B2FBF3F3234AA2FB032306
:1022D4005B091901BA6813469B0013449A001A4417
:1022E4007B685B689B00B2FBF3F21B4BA3FB02030E
:1022F4005B09642000FB03F3D31A1B013233164A33
:10230400A2FB03235B0903F0F0031944BA681346E4
:102314009B0013449A001A447B685B689B00B2FBE1
:10232400F3F20D4BA3FB02035B09642000FB03F3F0
:10233400D31A1B013233084AA2FB03235B0903F0BF
:102344000F027B681B680A449A6000BF1037BD46C1
:1023540080BD00BF003801401F85EB5180B584B0BB
:1023640000AF3B1D00221A605A609A60184B194A4C
:102374001A60174B00229A60154B00221A73144BF3
:1023840000221A75124B4FF46022DA61104B0022BE
:102394005A600F4B01221A610D48FDF7C7FF03462F
:1023A400002B01D000F091F90E237B600123BB6068
:1023B4000023FB603B1D19460548FEF777F90346E9
:1023C400002B01D000F081F900BF1037BD4680BD5D
:1023D4008C0400200024014080B588B000AF7860F0
:1023E40007F1100300221A605A609A60DA607B6871
:1023F4001B68184A934229D1174B9B69164A43F428
:1024040000739361144B9B6903F40073FB60FB68D6
:10241400114B9B69104A43F0100393610E4B9B6967
:1024240003F01003BB60BB6810233B6103237B6193
:1024340007F1100319460948FEF78AFC002200211F
:102444001220FEF746FB1220FEF75FFB00BF203789
:10245400BD4680BD00240140001002400010014030
:1024640080B588B000AF07F1100300221A605A60EB
:102474009A60DA601E4B9B691D4A43F01003936116
:102484001B4B9B6903F01003FB60FB68184B9B69B3
:10249400174A43F020039361154B9B6903F0200313
:1024A400BB60BB68124B9B69114A43F00403936100
:1024B4000F4B9B6903F004037B607B6800224FF49D
:1024C40080710C48FEF7D8FD4FF480733B61012303
:1024D4007B610023BB610223FB6107F110031946F2
:1024E4000448FEF735FC00BF2037BD4680BD00BF61
:1024F400001002400008014080B582B000AF78604F
:102504007B681B68224A93423ED1224B1B78A12B45
:1025140018D101224FF400711F48FEF7ADFD0022CF
:102524004FF480711D48FEF7A7FD42F210730D228F
:102534001B491C48FFF7D5FA012216491948FFF731
:1025440069FB21E0134B1B78A22B1DD100224FF411
:1025540000711148FEF790FD00224FF480710F487E
:10256400FEF78AFD42F210730F220F490D48FFF760
:10257400B8FA01224FF480710848FEF77DFD01226C
:1025840004490848FFF746FB00BF0837BD4680BD35
:1025940000380140BC040020000C01400008014048
:1025A40018000020C00400202800002080B500AFDF
:1025B400FDF736FE00F02CF8FFF752FF00F030F97B
:1025C400FFF7CCFE00224FF480710D48FEF754FD56
:1025D4004FF4FA70FDF786FE42F210730E22094999
:1025E4000948FFF77EFA01224FF480710448FEF790
:1025F40043FD012205490448FFF70CFBFEE700BF39
:102604000008014008000020C0040020BC04002091
:1026140080B596B000AF07F1300328220021184698
:1026240000F0C6F907F11C0300221A605A609A6090
:10263400DA601A613B1D00221A605A609A60DA60FF
:102644001A615A6101233B634FF480337B63002397
:10265400BB6301233B640223FB644FF480333B657B
:102664004FF4E0137B6507F130031846FEF71CFDB9
:102674000346002B01D000F028F80F23FB6102234E
:102684003B6200237B624FF48063BB620023FB62E6
:1026940007F11C0302211846FEF786FF0346002BB0
:1026A40001D000F012F802237B604FF40043FB607A
:1026B4003B1D1846FFF712F90346002B01D000F02A
:1026C40004F800BF5837BD4680BD80B400AF00BFDA
:1026D400BD4680BC7047000080B485B000AF154B88
:1026E4009B69144A43F001039361124B9B6903F005
:1026F4000103BB60BB680F4BDB690E4A43F0805398
:10270400D3610C4BDB6903F080537B607B680A4B1D
:102714005B68FB60FB6823F0E063FB60FB6843F0ED
:102724000073FB60044AFB68536000BF1437BD4666
:1027340080BC7047001002400000014080B400AF2C
:1027440000BFBD4680BC704780B400AFFEE780B4D4
:1027540000AFFEE780B400AFFEE780B400AFFEE751
:1027640080B400AF00BFBD4680BC704780B400AFEA
:1027740000BFBD4680BC704780B400AF00BFBD46FB
:1027840080BC704780B500AFFDF790FD00BF80BDF1
:1027940080B500AF0248FDF7B3FE00BF80BD00BFA7
:1027A4008C04002080B500AF0248FFF787FA00BF11
:1027B40080BD00BFC004002080B400AF154B1B686F
:1027C400144A43F001031360124B5A681149124B27
:1027D40013404B600F4B1B680E4A23F0847323F4A1
:1027E400803313600B4B1B680A4A23F48023136065
:1027F400084B5B68074A23F4FE035360054B4FF410
:102804001F029A60054B4FF000629A6000BFBD46FC
:1028140080BC7047001002400000FFF800ED00E0AB
:1028240080B500AF114B124A1A60104B4FF4E132DD
:102834005A600E4B00229A600C4B0022DA600B4B5C
:1028440000221A61094B0C225A61084B00229A613A
:10285400064B0022DA610548FFF7F6F80346002B21
:1028640001D0FFF732FF00BF80BD00BFC0040020CD
:102874000038014080B588B000AF786007F11003DC
:1028840000221A605A609A60DA607B681B68204AEA
:10289400934239D11F4B9B691E4A43F48043936191
:1028A4001C4B9B6903F48043FB60FB68194B9B69D9
:1028B400184A43F004039361164B9B6903F0040325
:1028C400BB60BB684FF400733B6102237B6103234D
:1028D400FB6107F1100319460F48FEF739FA4FF46C
:1028E40080633B6100237B610023BB6107F110031C
:1028F40019460948FEF72CFA002200212520FEF78C
:10290400E8F82520FEF701F900BF2037BD4680BD59
:10291400003801400010024000080140002103E09B
:102924000B4B5B58435004310A480B4B42189A42F4
:10293400F6D30A4A02E0002342F8043B084B9A42C9
:10294400F9D3FFF739FF00F00FF8FFF72FFE7047B8
:10295400842B0008000000206C0400206C0400207C
:1029640024050020FEE7000070B50D4E0D4D761BCA
:10297400B61006D0002455F8043B01349847A6420B
:10298400F9D1094E094D00F0D3F8761BB61006D0E4
:10299400002455F8043B01349847A642F9D170BD90
:1029A400782B0008782B0008802B0008782B00086F
:1029B400F0B4860746D0541E002A3CD00346CAB25F
:1029C40001E0013C37D303F8012B9D07F9D1032C17
:1029D4002AD9CDB245EA05250F2C45EA054534D957
:1029E400A4F1100222F00F0C03F12007160967442A
:1029F40003F1100242E9045542E902551032BA4289
:102A0400F8D1721C14F00C0F03EB021204F00F0641
:102A140013D0331F23F003030433134442F8045B3D
:102A24009342FBD106F003042CB1CAB21C4403F850
:102A3400012B9C42FBD1F0BC704734461346002C5A
:102A4400F3D1F8E714460346C1E71A462646E0E701
:102A5400024B13B1024800F005B8704700000000B3
:102A6400752A0008002301461A46184600F01AB8D1
:102A740038B5084B084D5B1B9C1007D0043B1D4424
:102A8400013C55F804399847002CF9D1BDE8384089
:102A940000F054B8842B0008802B0008704700BF56
:102AA400704700BF2DE9F047DFF880A00646DAF84A
:102AB400000098460F469146FFF7F0FF1A4B1B683B
:102AC400D3F8484124B365681F2D26DC5EB96B1C1E
:102AD4000235DAF80000636044F82570FFF7E0FF80
:102AE4000020BDE8F087012304EB8501C1F888903C
:102AF400D4F88821AB401A43022EC4F88821C1F8C7
:102B04000881E4D1D4F88C211343C4F88C31DEE776
:102B140003F5A674C3F84841D5E7DAF80000FFF7D7
:102B2400BFFF4FF0FF30DCE7742B0008680400207F
:102B3400F8B500BFF8BC08BC9E467047F8B500BFA6
:082B4400F8BC08BC9E46704776
:102B4C0002030405060708090A0B0C0D0E0F1010E2
:102B5C000000000000000000010203040607080941
:0C2B6C00000000000102030440000020F3
:082B7800552A000809020008BB
:042B8000E501000863
:102B8400100000000100000068656C6C6F20636831
:102B9400656E210D0A0000004C454431204F7065DC
:102BA4006E210D0A000000004C45443120436C6F37
:102BB400736564210D0A00000024F4000000000085
:102BC400000000002C03002094030020FC030020DC
:102BD40000000000000000000000000000000000F1
:102BE40000000000000000000000000000000000E1
:102BF40000000000000000000000000000000000D1
:102C040000000000000000000000000000000000C0
:102C140000000000000000000000000000000000B0
:102C240000000000000000000000000000000000A0
:102C34000000000000000000000000000000000090
:102C44000000000000000000000000000000000080
:102C54000000000000000000000000000000000070
:102C6400000000000000000001000000000000005F
:102C74000E33CDAB34126DE6ECDE05000B00000024
:102C84000000000000000000000000000000000040
:102C94000000000000000000000000000000000030
:102CA4000000000000000000000000000000000020
:102CB4000000000000000000000000000000000010
:0C2FE400000000000000000000050020BC
:0400000508002921A5
:00000001FF
