:020000040800F2
:1000000000000120693700084D3400085934000809
:100010005F340008653400086B34000800000000FD
:100020000000000000000000000000007134000823
:100030007D34000800000000893400089534000871
:10004000B1370008B1370008B1370008B1370008F0
:10005000B1370008B1370008B1370008B1370008E0
:10006000B1370008B1370008B1370008B1370008D0
:10007000B1370008B1370008B1370008B1370008C0
:10008000B1370008B1370008B1370008B1370008B0
:10009000B1370008B1370008B1370008B1370008A0
:1000A000B1370008B1370008B1370008B137000890
:1000B000A1340008B1370008B1370008B137000893
:1000C000B1370008B1370008B1370008B137000870
:1000D000B1370008B5340008B1370008B13700085F
:1000E000B1370008B1370008B1370008B137000850
:1000F000B1370008B1370008B1370008B137000840
:10010000B1370008B1370008B1370008B13700082F
:10011000B1370008B1370008B1370008B13700081F
:10012000B1370008B1370008B1370008B13700080F
:1001300000000000000000000000000000000000BF
:1001400000000000000000000000000000000000AF
:10015000000000000000000000000000000000009F
:10016000000000000000000000000000000000008F
:10017000000000000000000000000000000000007F
:10018000000000000000000000000000000000006F
:10019000000000000000000000000000000000005F
:1001A000000000000000000000000000000000004F
:1001B000000000000000000000000000000000003F
:1001C000000000000000000000000000000000002F
:1001D000000000000000000000000000000000001F
:0401E0005FF8E0F1F3
:1001E80010B5054C237833B9044B13B10448AFF369
:1001F80000800123237010BDF009002000000000DA
:10020800807B000808B5034B1BB103490348AFF3D3
:10021800008008BD00000000F4090020807B000871
:10022800844641EA000313F0030349D1403A23D33B
:100238000B6803604B6843608B688360CB68C3605E
:100248000B6903614B6943618B698361CB69C36146
:100258000B6A03624B6A43628B6A8362CB6AC3622E
:100268000B6B03634B6B43638B6B8363CB6BC36316
:1002780040304031403ADBD230320BD30B68036058
:100288004B6843608B688360CB68C3601030103163
:10029800103AF3D20C3205D351F8043B40F8043B32
:1002A800043AF9D2043208D0D2071CBF11F8013B36
:1002B80000F8013B01D30B8803806046704700BFFC
:1002C800082A13D38B07B1D010F00303AED0C3F1C3
:1002D8000403D21ADB071CBF11F8013B00F8013BED
:1002E800A4D331F8023B20F8023B9FE7043AD9D364
:1002F800013A11F8013B00F8013BF9D20B78037081
:100308004B7843708B7883706046704781F000416A
:1003180002E000BF83F0004330B54FEA41044FEAE2
:10032800430594EA050F08BF90EA020F1FBF54EA7D
:10033800000C55EA020C7FEA645C7FEA655C00F019
:10034800E2804FEA5454D4EB5555B8BF6D420CDDEA
:100358002C4480EA020281EA030382EA000083EA6D
:10036800010180EA020281EA0303362D88BF30BD0D
:1003780011F0004F4FEA01314FF4801C4CEA113163
:1003880002D0404261EB410113F0004F4FEA0333C2
:100398004CEA133302D0524263EB430394EA050F4D
:1003A80000F0A780A4F10104D5F1200E0DDB02FABC
:1003B8000EFC22FA05F2801841F1000103FA0EF250
:1003C800801843FA05F359410EE0A5F120050EF116
:1003D800200E012A03FA0EFC28BF4CF0020C43FA47
:1003E80005F3C01851EBE37101F0004507D54FF054
:1003F800000EDCF1000C7EEB00006EEB0101B1F5A4
:10040800801F1BD3B1F5001F0CD349085FEA3000E9
:100418004FEA3C0C04F101044FEA445212F5800FF4
:1004280080F09A80BCF1004F08BF5FEA500C50F191
:10043800000041EB045141EA050130BD5FEA4C0C74
:10044800404141EB0101013C28BFB1F5801FE9D2D1
:1004580091F0000F04BF01460020B1FA81F308BFF4
:100468002033A3F10B03B3F120020CDA0C3208DDC0
:1004780002F1140CC2F10C0201FA0CF021FA02F19B
:100488000CE002F11402D8BFC2F1200C01FA02F10B
:1004980020FA0CFCDCBF41EA0C019040E41AA2BF30
:1004A80001EB0451294330BD6FEA04041F3C1CDAF8
:1004B8000C340EDC04F11404C4F1200220FA04F018
:1004C80001FA02F340EA030021FA04F345EA0301C2
:1004D80030BDC4F10C04C4F1200220FA02F001FA84
:1004E80004F340EA0300294630BD21FA04F0294606
:1004F80030BD94F0000F83F4801306BF81F480119F
:100508000134013D4EE77FEA645C18BF7FEA655C11
:1005180029D094EA050F08BF90EA020F05D054EAE3
:10052800000C04BF1946104630BD91EA030F1EBFE8
:100538000021002030BD5FEA545C05D140004941EC
:1005480028BF41F0004130BD14F580043CBF01F5DF
:10055800801130BD01F0004545F0FE4141F47001C5
:100568004FF0000030BD7FEA645C1ABF19461046A0
:100578007FEA655C1CBF0B46024650EA013406BFA1
:1005880052EA033591EA030F41F4002130BD00BF60
:1005980090F0000F04BF0021704730B54FF480641D
:1005A80004F132044FF000054FF0000150E700BF9E
:1005B80090F0000F04BF0021704730B54FF48064FD
:1005C80004F1320410F0004548BF40424FF00001EA
:1005D8003EE700BF42004FEAE2014FEA31014FEA2D
:1005E80002701FBF12F07F4393F07F4F81F060517C
:1005F800704732F07F4208BF704793F07F4F04BFC7
:1006080041F40021704730B54FF4607401F00045A3
:1006180021F000411CE700BF50EA010208BF704703
:1006280030B54FF000050AE050EA010208BF7047F4
:1006380030B511F0004502D5404261EB41014FF45D
:10064800806404F132045FEA915C3FF4D8AE4FF065
:1006580003025FEADC0C18BF03325FEADC0C18BF48
:10066800033202EBDC02C2F1200300FA03FC20FA99
:1006780002F001FA03FE40EA0E0021FA02F11444E6
:10068800BDE600BF70B54FF0FF0C4CF4E06C1CEAFF
:1006980011541DBF1CEA135594EA0C0F95EA0C0F70
:1006A80000F0DEF82C4481EA030621EA4C5123EAE3
:1006B8004C5350EA013518BF52EA033541F4801112
:1006C80043F4801338D0A0FB02CE4FF00005E1FBC5
:1006D80002E506F00042E0FB03E54FF00006E1FB0F
:1006E80003569CF0000F18BF4EF0010EA4F1FF0452
:1006F800B6F5007F64F5407404D25FEA4E0E6D4192
:1007080046EB060642EAC62141EA55514FEAC520A2
:1007180040EA5E504FEACE2EB4F1FD0C88BFBCF51E
:10072800E06F1ED8BEF1004F08BF5FEA500E50F1CF
:10073800000041EB045170BD06F0004646EA010195
:1007480040EA020081EA0301B4EB5C04C2BFD4EBC7
:100758000C0541EA045170BD41F480114FF0000EC0
:10076800013C00F3AB8014F1360FDEBF002001F02E
:10077800004170BDC4F10004203C35DA0C341BDCA8
:1007880004F11404C4F1200500FA05F320FA04F07A
:1007980001FA05F240EA020001F0004221F00041AE
:1007A80010EBD37021FA04F642EB06015EEA430E21
:1007B80008BF20EAD37070BDC4F10C04C4F1200551
:1007C80000FA04F320FA05F001FA04F240EA020004
:1007D80001F0004110EBD37041F100015EEA430ED5
:1007E80008BF20EAD37070BDC4F1200500FA05F2F5
:1007F8004EEA020E20FA04F301FA05F243EA020374
:1008080021FA04F001F0004121FA04F220EA020082
:1008180000EBD3705EEA430E08BF20EAD37070BDC8
:1008280094F0000F0FD101F00046400041EB0101A8
:1008380011F4801F08BF013CF7D041EA060195F08A
:10084800000F18BF704703F00046520043EB030344
:1008580013F4801F08BF013DF7D043EA0603704731
:1008680094EA0C0F0CEA135518BF95EA0C0F0CD03C
:1008780050EA410618BF52EA4306D1D181EA030182
:1008880001F000414FF0000070BD50EA410606BF7C
:100898001046194652EA430619D094EA0C0F02D1C1
:1008A80050EA013613D195EA0C0F05D152EA033606
:1008B8001CBF104619460AD181EA030101F0004124
:1008C80041F0FE4141F470014FF0000070BD41F06D
:1008D800FE4141F4780170BD70B54FF0FF0C4CF447
:1008E800E06C1CEA11541DBF1CEA135594EA0C0F66
:1008F80095EA0C0F00F0A7F8A4EB050481EA030EB3
:1009080052EA03354FEA013100F088804FEA033399
:100918004FF0805545EA131343EA12634FEA022267
:1009280045EA111545EA10654FEA00260EF0004128
:100938009D4208BF964244F1FD0404F5407402D27A
:100948005B084FEA3202B61A65EB03055B084FEA0B
:1009580032024FF480104FF4002CB6EB020E75EB08
:10096800030E22BFB61A754640EA0C005B084FEA30
:100978003202B6EB020E75EB030E22BFB61A7546AD
:1009880040EA5C005B084FEA3202B6EB020E75EBF8
:10099800030E22BFB61A754640EA9C005B084FEA70
:1009A8003202B6EB020E75EB030E22BFB61A75467D
:1009B80040EADC0055EA060E18D04FEA051545EA6C
:1009C80016754FEA06164FEAC30343EA52734FEA15
:1009D800C2025FEA1C1CC0D111F4801F0BD141EA8E
:1009E80000014FF000004FF0004CB6E711F4801FF3
:1009F80004BF01430020B4F1FD0C88BFBCF5E06FD3
:100A08003FF6AFAEB5EB030C04BFB6EB020C5FEAE2
:100A1800500C50F1000041EB045170BD0EF0004E37
:100A28004EEA113114EB5C04C2BFD4EB0C0541EA69
:100A3800045170BD41F480114FF0000E013C90E666
:100A480045EA060E8DE60CEA135594EA0C0F08BF2A
:100A580095EA0C0F3FF43BAF94EA0C0F0AD150EA29
:100A680001347FF434AF95EA0C0F7FF425AF1046BC
:100A780019462CE795EA0C0F06D152EA03353FF4E4
:100A8800FDAE1046194622E750EA410618BF52EA61
:100A980043067FF4C5AE50EA41047FF40DAF52EA35
:100AA80043057FF4EBAE12E74FF0FF3C06E000BFD2
:100AB8004FF0010C02E000BF4FF0010C4DF804CDDF
:100AC8004FEA410C7FEA6C5C4FEA430C18BF7FEA9F
:100AD8006C5C1BD001B050EA410C0CBF52EA430CCD
:100AE80091EA030F02BF90EA020F0020704710F14D
:100AF800000F91EA030F58BF994208BF90422CBFDC
:100B0800D8176FEAE37040F0010070474FEA410CD4
:100B18007FEA6C5C02D150EA013C07D14FEA430CF2
:100B28007FEA6C5CD6D152EA033CD3D05DF8040B63
:100B3800704700BF8446104662468C461946634695
:100B480000E000BF01B5FFF7B7FF002848BF10F16C
:100B5800000F01BD4DF808EDFFF7F4FF0CBF0120B1
:100B680000205DF808FB00BF4DF808EDFFF7EAFF2D
:100B780034BF012000205DF808FB00BF4DF808EDE8
:100B8800FFF7E0FF94BF012000205DF808FB00BFDD
:100B98004DF808EDFFF7CEFF94BF012000205DF867
:100BA80008FB00BF4DF808EDFFF7C4FF34BF012074
:100BB80000205DF808FB00BF4FEA410C7FEA6C5C3F
:100BC80002D150EA013C0AD14FEA430C7FEA6C5C3F
:100BD80002D152EA033C02D14FF0000070474FF0B7
:100BE800010070474FEA410212F5001215D211D5E3
:100BF8006FF47873B3EB625212D94FEAC12343F012
:100C0800004343EA505311F0004F23FA02F018BF93
:100C1800404270474FF00000704750EA013005D15C
:100C280011F0004008BF6FF0004070474FF000001F
:100C3800704700BF53B94AB9002908BF00281CBF34
:100C48004FF0FF314FF0FF3000F06EB9ADF1080CF6
:100C58006DE904CE00F006F8DDF804E0DDE90223D2
:100C680004B070472DE9F047089E0D4604468E46AD
:100C7800002B40F083808A42174647D9B2FA82F3A4
:100C88004BB1C3F1200105FA03FE20FA01F19F40A0
:100C980041EA0E0E9C404FEA1748BEFBF8FC1FFACB
:100CA80087F908FB1CE20CFB09F0210C41EA02421F
:100CB80090420AD9BA180CF1FF3180F0188190429D
:100CC80040F21581ACF1020C3A44121AB2FBF8F06A
:100CD80008FB102200FB09F1A4B244EA0244A14235
:100CE80009D93C1900F1FF3280F00381A14240F29A
:100CF800008102383C44641A002140EA0C401EB1CD
:100D08000022DC40C6E90042BDE8F08702B9FFDEF8
:100D1800B2FA82F3002B4FD18D1A01214FEA124EFD
:100D28001FFA82F8B5FBFEFC0EFB1C5508FB0CF005
:100D3800220C42EA0545A84207D97D190CF1FF3279
:100D480002D2A84200F2E98094462D1AB5FBFEF0C3
:100D58000EFB105508FB00F8A4B244EA0544A04570
:100D680007D93C1900F1FF3202D2A04500F2D98020
:100D78001046A4EB080440EA0C40C0E78B4208D9AF
:100D8800002E00F0B1800021C6E900050846BDE844
:100D9800F087B3FA83F100294BD1AB4202D38242E8
:100DA80000F2B980841A65EB030301209E46002EE9
:100DB800AAD0C6E9004EA7E79F40C3F12002D14060
:100DC8004FEA174EB1FBFEF01FFA87F80EFB101121
:100DD80024FA02F29D4000FB08FC2A43150C45EA60
:100DE8000145AC4504FA03F409D97D1900F1FF3136
:100DF80080F08F80AC4540F28C8002383D44A5EBF2
:100E08000C05B5FBFEF10EFB115C01FB08F995B270
:100E180045EA0C45A94507D97D1901F1FF3274D27D
:100E2800A94572D902393D44A5EB090541EA0041BB
:100E380078E7C1F120078B4022FA07FC4CEA030C43
:100E480025FA07F44FEA1C4EB4FBFEF91FFA8CF89A
:100E58000EFB194420FA07F309FB08FA8D401D43DD
:100E68002B0C43EA0444A24502FA01F200FA01F30A
:100E780009D91CEB040409F1FF3048D2A24546D930
:100E8800A9F102096444A4EB0A04B4FBFEF00EFBCA
:100E9800104400FB08FAADB245EA0444A24508D95B
:100EA8001CEB040400F1FF352DD2A2452BD90238E2
:100EB800644440EA0940A0FB0289A4EB0A044C45BB
:100EC800C6464D4619D316D05EB1B3EB0E0264EB9D
:100ED800050404FA07F722FA01F31F43CC40C6E9D8
:100EE80000740021BDE8F087314630460CE78C4697
:100EF800EBE61046FFE64345E6D2B8EB020E69EB97
:100F08000C050138E0E72846D3E711468CE781460F
:100F1800B9E7084673E7084649E7ACF1020C3D44D7
:100F280013E702383C4424E7704700BF80B500AFA0
:100F3800084B1B68074A43F010031360032000F0B6
:100F480047F9002000F008F802F04AFA0023184692
:100F580080BD00BF0020024080B582B000AF78603D
:100F6800124B1A68124B1B7819464FF47A73B3FB6D
:100F7800F1F3B2FBF3F3184600F05FF90346002BD8
:100F880001D001230EE07B680F2B0AD80022796874
:100F98004FF0FF3000F027F9064A7B681360002302
:100FA80000E0012318460837BD4680BD3C000020FC
:100FB800040000200000002080B400AF054B1B781F
:100FC8001A46054B1B681344034A136000BFBD460D
:100FD80080BC7047040000200C0A002080B400AFD9
:100FE800024B1B681846BD4680BC70470C0A00209F
:100FF80080B584B000AF7860FFF7F0FFB8607B6819
:10100800FB60FB68B3F1FF3F05D00A4B1B781A461B
:10101800FB681344FB6000BFFFF7E0FF0246BB68B4
:10102800D31AFA689A42F7D800BF00BF1037BD46F6
:1010380080BD00BF0400002080B485B000AF786098
:101048007B6803F00703FB600C4BDB68BB60BA6886
:101058004FF6FF031340BB60FB681A02BB681343DB
:1010680043F0BF6343F40033BB60044ABB68D360FA
:1010780000BF1437BD4680BC704700BF00ED00E0DC
:1010880080B400AF044BDB681B0A03F00703184663
:10109800BD4680BC704700BF00ED00E080B483B05F
:1010A80000AF0346FB7197F90730002B0BDBFB7988
:1010B80003F01F02064997F907305B09012000FA7F
:1010C80002F241F8232000BF0C37BD4680BC7047B0
:1010D80000E100E080B483B000AF03463960FB71E3
:1010E80097F90730002B0ADB3B68DAB20C4997F90D
:1010F80007301201D2B20B4483F800230AE03B68A0
:10110800DAB20849FB7903F00F03043B1201D2B2AB
:101118000B441A7600BF0C37BD4680BC704700BF31
:1011280000E100E000ED00E080B489B000AFF860B5
:10113800B9607A60FB6803F00703FB61FB69C3F1E0
:101148000703042B28BF0423BB61FB690433062B68
:1011580002D9FB69033B00E000237B614FF0FF32BB
:10116800BB6902FA03F3DA43BB681A407B699A4009
:101178004FF0FF317B6901FA03F3D9437B680B40D9
:10118800134318462437BD4680BC704780B582B0EB
:1011980000AF78607B68013BB3F1807F01D3012306
:1011A8000FE00A4A7B68013B53600F214FF0FF3084
:1011B800FFF790FF054B00229A60044B07221A6044
:1011C800002318460837BD4680BD00BF10E000E088
:1011D80080B582B000AF78607868FFF72DFF00BF58
:1011E8000837BD4680BD80B586B000AF0346B960FC
:1011F8007A60FB7300237B61FFF742FF78617A68AE
:10120800B9687869FFF790FF024697F90F301146E1
:101218001846FFF75FFF00BF1837BD4680BD80B591
:1012280082B000AF0346FB7197F907301846FFF705
:1012380035FF00BF0837BD4680BD80B582B000AF1E
:1012480078607868FFF7A2FF034618460837BD465E
:1012580080BD000080B584B000AF78600023FB73C8
:101268007B6893F82130022B05D07B6804229A63AF
:101278000123FB73D6E07B681B681A687B681B68D0
:1012880022F00E021A607B681B681A687B681B686C
:1012980022F001021A607B681B681A46644B9A4266
:1012A80058D97B681B68634A93424FD07B681B6898
:1012B800614A934248D07B681B68604A934240D099
:1012C8007B681B685E4A934238D07B681B685D4A1E
:1012D800934230D07B681B685B4A934228D07B6876
:1012E8001B68534A934220D07B681B68574A934235
:1012F80019D07B681B68564A934212D07B681B68DA
:10130800544A93420AD07B681B68534A934202D1DD
:101318004FF480531BE04FF4803318E04FF4807390
:1013280015E0102313E0012311E04FF080730EE065
:101338004FF480130BE04FF4803308E04FF48053F0
:1013480005E04FF4807302E0102300E00123434AD4
:10135800536057E07B681B68364A93424FD07B68DE
:101368001B68354A934248D07B681B68334A9342CE
:1013780040D07B681B68324A934238D07B681B6830
:10138800304A934230D07B681B682F4A934228D05A
:101398007B681B68264A934220D07B681B682B4ACF
:1013A800934219D07B681B68294A934212D07B6804
:1013B8001B68284A93420AD07B681B68264A9342D6
:1013C80002D14FF480531BE04FF4803318E04FF400
:1013D800807315E0102313E0012311E04FF08073B0
:1013E8000EE04FF480130BE04FF4803308E04FF425
:1013F800805305E04FF4807302E0102300E00123DE
:10140800174A53607B68012283F821207B680022F9
:1014180083F820207B685B6B002B03D07B685B6BB9
:1014280078689847FB7B18461037BD4680BD00BFDB
:1014380080000240080002401C00024030000240C8
:1014480044000240580002406C0002400804024078
:101458001C040240300402404404024000040240DC
:101468000000024080B48BB000AF78603960002380
:101478007B6200233B6279E101227B6A02FA03F373
:10148800FB613B681B68FA691340BB61BA69FB6979
:101498009A4240F068813B685B68A04A93425ED0FC
:1014A8009E4A934275D89E4A934258D09C4A93428A
:1014B8006FD89C4A934252D09A4A934269D89A4A22
:1014C80093424CD0984A934263D8984A934246D064
:1014D800964A93425DD8122B2AD8122B59D801A2CA
:1014E80052F823F067150008411500085315000845
:1014F800951500089B1500089B1500089B1500080A
:101508009B1500089B1500089B1500089B150008F3
:101518009B1500089B1500089B1500089B150008E3
:101528009B1500089B150008491500085D15000863
:101538007F4A934213D02CE03B68DB683B6229E08A
:101548003B68DB6804333B6224E03B68DB680833B4
:101558003B621FE03B68DB680C333B621AE03B6888
:101568009B68002B02D104233B6213E03B689B6815
:10157800012B05D108233B627B68FA691A6109E0EF
:1015880008233B627B68FA695A6103E000233B62E7
:1015980000E000BFBB69FF2B01D87B6801E07B68D6
:1015A80004337B61BB69FF2B02D87B6A9B0002E096
:1015B8007B6A083B9B003B617B691A680F213B698A
:1015C80001FA03F3DB431A40396A3B6901FA03F372
:1015D8001A437B691A603B685B6803F08053002BF1
:1015E80000F0C180534B9B69524A43F00103936159
:1015F800504B9B6903F00103BB60BB684E4A7B6A92
:101608009B08023352F82330FB607B6A03F0030324
:101618009B000F2202FA03F3DB43FA681340FB60D6
:101628007B68464A93421FD07B68454A934219D04B
:101638007B68444A934213D07B68434A93420DD057
:101648007B68424A934207D07B68414A934201D162
:1016580005230AE0062308E0042306E0032304E048
:10166800022302E0012300E000237A6A02F0030269
:1016780092009340FA681343FB602F497B6A9B08EA
:101688000233FA6841F823203B685B6803F480332F
:10169800002B06D02F4B1A682E49BB6913430B60E9
:1016A80006E02C4B1A68BB69DB432A4913400B60E0
:1016B8003B685B6803F40033002B06D0254B5A685F
:1016C8002449BB6913434B6006E0224B5A68BB6947
:1016D800DB43204913404B603B685B6803F480138D
:1016E800002B06D01B4B9A681A49BB6913438B60C1
:1016F80006E0184B9A68BB69DB43164913408B60B8
:101708003B685B6803F40013002B25D0114BDA68A3
:101718001049BB691343CB6025E000BF00003210BD
:1017280000003110000022100000211000001210EB
:1017380000001110001002400000014000080140A4
:10174800000C014000100140001401400018014045
:10175800001C0140000401400B4BDA68BB69DB4305
:1017680009491340CB607B6A01337B623B681A6886
:101778007B6A22FA03F3002B7FF47EAE00BF00BF22
:101788002C37BD4680BC70470004014080B483B04C
:1017980000AF78600B467B8013467B707B78002B0C
:1017A80003D07A887B681A6103E07B881A047B6817
:1017B8001A6100BF0C37BD4680BC704780B483B047
:1017C80000AF78600B467B807B68DA687B881340C3
:1017D800002B03D07A887B685A6102E07A887B689C
:1017E8001A6100BF0C37BD4680BC704780B586B013
:1017F80000AF78607B68002B01D101236CE27B6825
:101808001B6803F00103002B00F08780924B5B6894
:1018180003F00C03042B0CD08F4B5B6803F00C0314
:10182800082B12D18C4B5B6803F48033B3F5803FEF
:101838000BD1894B1B6803F40033002B6CD07B68F9
:101848005B68002B68D1012346E27B685B68B3F5CF
:10185800803F06D1804B1B687F4A43F48033136076
:101868002EE07B685B68002B0CD17B4B1B687A4AA7
:1018780023F480331360784B1B68774A23F4802362
:1018880013601DE07B685B68B3F5A02F0CD1724B29
:101898001B68714A43F4802313606F4B1B686E4AC0
:1018A80043F4803313600BE06B4B1B686A4A23F4E4
:1018B80080331360684B1B68674A23F480231360E6
:1018C8007B685B68002B13D0FFF788FB386108E062
:1018D800FFF784FB02463B69D31A642B01D9032323
:1018E800FAE15D4B1B6803F40033002BF0D014E0E1
:1018F800FFF774FB386108E0FFF770FB02463B69AD
:10190800D31A642B01D90323E6E1534B1B6803F474
:101918000033002BF0D100E000BF7B681B6803F0A8
:101928000203002B63D04C4B5B6803F00C03002BC5
:101938000BD0494B5B6803F00C03082B1CD1464BBA
:101948005B6803F48033002B16D1434B1B6803F00C
:101958000203002B05D07B681B69012B01D00123F2
:10196800BAE13D4B1B6823F0F8027B685B69DB003A
:10197800394913430B603AE07B681B69002B20D080
:10198800364B01221A60FFF729FB386108E0FFF7A0
:1019980025FB02463B69D31A022B01D903239BE19D
:1019A8002D4B1B6803F00203002BF0D02A4B1B6859
:1019B80023F0F8027B685B69DB00274913430B605F
:1019C80015E0264B00221A60FFF708FB386108E093
:1019D800FFF704FB02463B69D31A022B01D9032304
:1019E8007AE11D4B1B6803F00203002BF0D17B68E2
:1019F8001B6803F00803002B3AD07B689B69002B17
:101A080019D0174B01221A60FFF7E8FA386108E08D
:101A1800FFF7E4FA02463B69D31A022B01D90323E4
:101A28005AE10D4B5B6A03F00203002BF0D0012052
:101A380000F0D8FA1CE00A4B00221A60FFF7CEFA31
:101A480038610FE0FFF7CAFA02463B69D31A022B46
:101A580008D9032340E100BF0010024000004242C1
:101A6800800442429E4B5B6A03F00203002BE9D1DB
:101A78007B681B6803F00403002B00F0A68000239A
:101A8800FB75974BDB6903F08053002B0DD1944B0A
:101A9800DB69934A43F08053D361914BDB6903F0D0
:101AA8008053BB60BB680123FB758E4B1B6803F436
:101AB8008073002B18D18B4B1B688A4A43F48073C0
:101AC8001360FFF78BFA386108E0FFF787FA0246E0
:101AD8003B69D31A642B01D90323FDE0814B1B68B2
:101AE80003F48073002BF0D07B68DB68012B06D1F0
:101AF8007B4B1B6A7A4A43F0010313622DE07B6833
:101B0800DB68002B0CD1764B1B6A754A23F0010366
:101B18001362734B1B6A724A23F0040313621CE0BE
:101B28007B68DB68052B0CD16D4B1B6A6C4A43F054
:101B3800040313626A4B1B6A694A43F00103136288
:101B48000BE0674B1B6A664A23F001031362644B80
:101B58001B6A634A23F0040313627B68DB68002B6B
:101B680015D0FFF73BFA38610AE0FFF737FA02466B
:101B78003B69D31A41F28832934201D90323ABE07F
:101B8800574B1B6A03F00203002BEED014E0FFF75B
:101B980025FA38610AE0FFF721FA02463B69D31AB1
:101BA80041F28832934201D9032395E04C4B1B6ADA
:101BB80003F00203002BEED1FB7D012B05D1484B2E
:101BC800DB69474A23F08053D3617B68DB69002BCC
:101BD80000F08180424B5B6803F00C03082B61D056
:101BE8007B68DB69022B46D13F4B00221A60FFF766
:101BF800F5F9386108E0FFF7F1F902463B69D31AB5
:101C0800022B01D9032367E0354B1B6803F00073EF
:101C1800002BF0D17B681B6AB3F5803F08D1304BAD
:101C28005B6823F400327B689B682D4913434B6043
:101C38002B4B5B6823F474127B68196A7B685B6AB8
:101C48000B43274913434B60274B01221A60FFF7C8
:101C5800C5F9386108E0FFF7C1F902463B69D31AB4
:101C6800022B01D9032337E01D4B1B6803F00073D7
:101C7800002BF0D02FE01C4B00221A60FFF7AEF9C2
:101C8800386108E0FFF7AAF902463B69D31A022B2C
:101C980001D9032320E0124B1B6803F00073002BCB
:101CA800F0D118E07B68DB69012B01D1012313E037
:101CB8000B4B5B68FB60FB6803F480327B681B6A34
:101CC8009A4206D1FB6803F470127B685B6A9A42F9
:101CD80001D0012300E0002318461837BD4680BD17
:101CE80000100240007000406000424280B584B09D
:101CF80000AF786039607B68002B01D10123D0E008
:101D08006A4B1B6803F007033A689A4210D9674B7D
:101D18001B6823F0070265493B6813430B60634B5C
:101D28001B6803F007033A689A4201D00123B8E020
:101D38007B681B6803F00203002B20D07B681B68BC
:101D480003F00403002B05D0594B5B68584A43F451
:101D5800E06353607B681B6803F00803002B05D021
:101D6800534B5B68524A43F460535360504B5B6873
:101D780023F0F0027B689B684D4913434B607B68F6
:101D88001B6803F00103002B40D07B685B68012BC4
:101D980007D1474B1B6803F40033002B15D10123EF
:101DA8007FE07B685B68022B07D1414B1B6803F01F
:101DB8000073002B09D1012373E03D4B1B6803F02E
:101DC8000203002B01D101236BE0394B5B6823F040
:101DD80003027B685B68364913434B60FFF7FEF8E4
:101DE800F8600AE0FFF7FAF80246FB68D31A41F2F6
:101DF8008832934201D9032353E02D4B5B6803F0EB
:101E08000C027B685B689B009A42EBD1274B1B68EE
:101E180003F007033A689A4210D2244B1B6823F058
:101E2800070222493B6813430B60204B1B6803F0F1
:101E380007033A689A4201D0012332E07B681B68A5
:101E480003F00403002B08D0194B5B6823F4E0620D
:101E58007B68DB68164913434B607B681B6803F09B
:101E68000803002B09D0124B5B6823F460527B688F
:101E78001B69DB000E4913434B6000F021F8024652
:101E88000B4B5B681B0903F00F030A49CB5C22FA72
:101E980003F3094A1360094B1B681846FFF75CF8FF
:101EA800002318461037BD4680BD00BF0020024001
:101EB80000100240047C00083C00002000000020C4
:101EC80090B48AB000AF2A4B3C1D0FCB84E80F00BA
:101ED80040F201233B800023FB610023BB61002308
:101EE8007B6200237B6100233B62224B5B68FB61C2
:101EF800FB6903F00C03042B02D0082B03D02DE060
:101F08001D4B3B622DE0FB699B0C03F00F0307F1AF
:101F18002802134413F8243C7B61FB6903F48033E3
:101F2800002B13D0134B5B685B0C03F0010307F124
:101F38002802134413F8283CBB617B690E4A02FB54
:101F480003F2BB69B2FBF3F37B6204E07B690B4AE3
:101F580002FB03F37B627B6A3B6202E0064B3B6257
:101F680000BF3B6A18462837BD4690BC704700BF83
:101F7800987B00080010024000127A0000093D001A
:101F880080B400AF024B1B681846BD4680BC704742
:101F98003C00002080B500AFFFF7F2FF0246054B7A
:101FA8005B681B0A03F007030349CB5C22FA03F3BF
:101FB800184680BD00100240147C000880B500AFB0
:101FC800FFF7DEFF0246054B5B68DB0A03F00703F9
:101FD8000349CB5C22FA03F3184680BD0010024087
:101FE800147C000880B485B000AF78600A4B1B6889
:101FF8000A4AA2FB03235B0A7A6802FB03F3FB602D
:1020080000BFFB685A1EFA60002BF9D100BF00BF61
:102018001437BD4680BC70473C000020D34D621089
:1020280080B582B000AF78607B68002B01D10123B6
:102038001DE07B6893F83D30DBB2002B06D17B684E
:10204800002283F83C20786801F0E8FA7B680222D5
:1020580083F83D207B681A687B680433194610466C
:1020680000F01CFA7B68012283F83D200023184603
:102078000837BD4680BD80B485B000AF78607B6806
:102088001B68DA687B681B6842F00102DA607B68CB
:102098001B689B6803F00703FB60FB68062B07D0EF
:1020A8007B681B681A687B681B6842F001021A602B
:1020B800002318461437BD4680BC704780B582B0EF
:1020C80000AF78607B681B681B6903F00203022B72
:1020D80022D17B681B68DB6803F00203022B1BD14B
:1020E8007B681B686FF002021A617B6801221A770D
:1020F8007B681B689B6903F00303002B03D0786897
:1021080000F0B1F905E0786800F0A4F9786800F00B
:10211800B3F97B6800221A777B681B681B6903F098
:102128000403042B22D17B681B68DB6803F00403DB
:10213800042B1BD17B681B686FF004021A617B6853
:1021480002221A777B681B689B6903F44073002B93
:1021580003D0786800F087F905E0786800F07AF92C
:10216800786800F089F97B6800221A777B681B6819
:102178001B6903F00803082B22D17B681B68DB6806
:1021880003F00803082B1BD17B681B686FF008025B
:102198001A617B6804221A777B681B68DB6903F085
:1021A8000303002B03D0786800F05DF905E0786838
:1021B80000F050F9786800F05FF97B6800221A7720
:1021C8007B681B681B6903F01003102B22D17B6806
:1021D8001B68DB6803F01003102B1BD17B681B689E
:1021E8006FF010021A617B6808221A777B681B68F7
:1021F800DB6903F44073002B03D0786800F033F9EF
:1022080005E0786800F026F9786800F035F97B6811
:1022180000221A777B681B681B6903F00103012BF6
:102228000ED17B681B68DB6803F00103012B07D123
:102238007B681B686FF001021A61786800F0A0FFE4
:102248007B681B681B6903F08003802B0ED17B68B9
:102258001B68DB6803F08003802B07D17B681B6851
:102268006FF080021A61786800F075FA7B681B6865
:102278001B6903F04003402B0ED17B681B68DB68A9
:1022880003F04003402B07D17B681B686FF04002C6
:102298001A61786800F0F9F87B681B681B6903F01D
:1022A8002003202B0ED17B681B68DB6803F020031A
:1022B800202B07D17B681B686FF020021A617868B1
:1022C80000F040FA00BF0837BD4680BD80B584B035
:1022D80000AF786039607B6893F83C30012B01D1FE
:1022E8000223B3E07B68012283F83C207B6802224A
:1022F80083F83D207B681B689B68FB60FB6823F0C4
:102308007703FB60FB6823F47F43FB607B681B68F3
:10231800FA689A603B681B68B3F5005F3ED0B3F576
:10232800005F00F28780B3F5805F00F08580B3F529
:10233800805F7FD8702B1AD0702B7BD8602B50D041
:10234800602B77D8502B3CD0502B73D8402B58D0CB
:10235800402B6FD8302B64D0302B6BD8202B60D01B
:10236800202B67D8002B5CD0102B5AD062E07B68FA
:1023780018683B6899683B685A683B68DB6800F0F6
:102388007EF97B681B689B68FB60FB6843F07703FA
:10239800FB607B681B68FA689A604EE07B68186887
:1023A8003B6899683B685A683B68DB6800F067F9E6
:1023B8007B681B689A687B681B6842F480429A6055
:1023C8003BE07B6818683B6859683B68DB681A46DD
:1023D80000F0DEF87B681B685021184600F035F9DC
:1023E8002BE07B6818683B6859683B68DB681A46CD
:1023F80000F0FCF87B681B686021184600F025F99E
:102408001BE07B6818683B6859683B68DB681A46BC
:1024180000F0BEF87B681B684021184600F015F9EB
:102428000BE07B681A683B681B681946104600F089
:102438000CF902E000BF00E000BF7B68012283F8CE
:102448003D207B68002283F83C2000231846103783
:10245800BD4680BD80B483B000AF786000BF0C3744
:10246800BD4680BC704780B483B000AF786000BFC1
:102478000C37BD4680BC704780B483B000AF78602D
:1024880000BF0C37BD4680BC704780B483B000AF36
:10249800786000BF0C37BD4680BC704780B485B0FB
:1024A80000AF786039607B681B68FB607B68334AE3
:1024B800934213D07B68324A93420FD07B68B3F1C2
:1024C800804F0BD07B682F4A934207D07B682E4AF7
:1024D800934203D07B682D4A934208D1FB6823F0CE
:1024E8007003FB603B685B68FA681343FB607B68BA
:1024F800224A934213D07B68214A93420FD07B68CB
:10250800B3F1804F0BD07B681E4A934207D07B689B
:102518001D4A934203D07B681C4A934208D1FB684A
:1025280023F44073FB603B68DB68FA681343FB6085
:10253800FB6823F080023B685B691343FB607B68A0
:10254800FA681A603B689A687B68DA623B681A68BE
:102558007B689A627B68094A934203D07B68084A81
:10256800934203D13B681A697B681A637B6801222E
:102578005A6100BF1437BD4680BC7047002C01402B
:10258800003401400004004000080040000C0040F6
:1025980080B487B000AFF860B9607A60FB681B6AE6
:1025A8007B61FB681B6A23F00102FB681A62FB6807
:1025B8009B693B613B6923F0F0033B617B681B012E
:1025C8003A6913433B617B6923F00A037B617A69AB
:1025D800BB6813437B61FB683A699A61FB687A6957
:1025E8001A6200BF1C37BD4680BC704780B487B0F4
:1025F80000AFF860B9607A60FB681B6A23F01002CC
:10260800FB681A62FB689B697B61FB681B6A3B611C
:102618007B6923F470437B617B681B037A691343EE
:102628007B613B6923F0A0033B61BB681B013A69EE
:1026380013433B61FB687A699A61FB683A691A62DD
:1026480000BF1C37BD4680BC704780B485B000AF62
:10265800786039607B689B68FB60FB6823F07003D7
:10266800FB603A68FB68134343F00703FB607B6831
:10267800FA689A6000BF1437BD4680BC704780B4C2
:1026880087B000AFF860B9607A603B60FB689B6810
:102698007B617B6923F47F437B613B681A027B681B
:1026A8001A43BB6813437A6913437B61FB687A69F1
:1026B8009A6000BF1C37BD4680BC704780B485B0A7
:1026C80000AF786039607B6893F83C30012B01D10A
:1026D800022332E07B68012283F83C207B680222D7
:1026E80083F83D207B681B685B68FB607B681B6820
:1026F8009B68BB60FB6823F07003FB603B681B684A
:10270800FA681343FB60BB6823F08003BB603B6837
:102718005B68BA681343BB607B681B68FA685A60D9
:102728007B681B68BA689A607B68012283F83D2041
:102738007B68002283F83C20002318461437BD46E6
:1027480080BC704780B483B000AF786000BF0C379E
:10275800BD4680BC704780B483B000AF786000BFCE
:102768000C37BD4680BC704780B582B000AF78603A
:102778007B68002B01D101233FE07B6893F8393057
:10278800DBB2002B06D17B68002283F838207868FA
:1027980000F092FF7B68242283F839207B681B684D
:1027A800DA687B681B6822F40052DA60786800F007
:1027B8008BFB7B681B681A697B681B6822F4904254
:1027C8001A617B681B685A697B681B6822F02A02B9
:1027D8005A617B681B68DA687B681B6842F40052A0
:1027E800DA607B680022DA637B68202283F839206C
:1027F8007B68202283F83A20002318460837BD4614
:1028080080BD80B588B002AFF860B9603B60134600
:10281800FB8000237B61FB6893F83930DBB2202B07
:1028280040F08380BB68002B02D0FB88002B01D1CD
:1028380001237BE0FB6893F83830012B01D1022398
:1028480074E0FB68012283F83820FB680022DA6311
:10285800FB68212283F83920FEF7C0FB7861FB680A
:10286800FA889A84FB68FA88DA8442E0FB68DB8C91
:102878009BB2013B9AB2FB68DA84FB689B68B3F5AC
:10288800805F22D13B6800937B6900228021F86831
:1028980000F0B0F90346002B01D0032346E0BB68E3
:1028A8003B613B691B881A46FB681B68C2F3080238
:1028B8005A60FB681B69002B03D1BB680233BB60FD
:1028C80017E0BB680133BB6013E03B6800937B698A
:1028D80000228021F86800F08DF90346002B01D012
:1028E800032323E0BB685A1CBA601A78FB681B688C
:1028F8005A60FB68DB8C9BB2002BB7D13B68009316
:102908007B6900224021F86800F074F90346002B27
:1029180001D003230AE0FB68202283F83920FB68F2
:10292800002283F83820002300E0022318461837D5
:10293800BD4680BD80B485B000AFF860B96013466D
:10294800FB80FB6893F83A30DBB2202B40D1BB68A0
:10295800002B02D0FB88002B01D1012339E0FB6852
:1029680093F83830012B01D1022332E0FB680122B1
:1029780083F83820FB68BA689A62FB68FA889A85F7
:10298800FB68FA88DA85FB680022DA63FB68222292
:1029980083F83A20FB68002283F83820FB681B681C
:1029A800DA68FB681B6842F48072DA60FB681B68AF
:1029B8005A69FB681B6842F001025A61FB681B6890
:1029C800DA68FB681B6842F02002DA60002300E046
:1029D800022318461437BD4680BC704780B588B0BE
:1029E80000AF78607B681B681B68FB617B681B68AD
:1029F800DB68BB617B681B685B697B6100233B61AB
:102A08000023FB60FB6903F00F033B613B69002B6C
:102A18000DD1FB6903F02003002B08D0BB6903F03C
:102A28002003002B03D0786800F0CCF9CBE03B6999
:102A3800002B00F0AB807B6903F00103002B05D16C
:102A4800BB6903F49073002B00F0A080FB6903F0CE
:102A58000103002B0AD0BB6903F48073002B05D057
:102A68007B68DB6B43F001027B68DA63FB6903F088
:102A78000403002B0AD07B6903F00103002B05D067
:102A88007B68DB6B43F002027B68DA63FB6903F067
:102A98000203002B0AD07B6903F00103002B05D049
:102AA8007B68DB6B43F004027B68DA63FB6903F045
:102AB8000803002B0AD07B6903F00103002B05D023
:102AC8007B68DB6B43F008027B68DA637B68DB6B4F
:102AD800002B77D0FB6903F02003002B07D0BB69DC
:102AE80003F02003002B02D0786800F06BF97B68B4
:102AF8001B685B6903F04003002B14BF012300230C
:102B0800DBB2FB607B68DB6B03F00803002B02D1B0
:102B1800FB68002B31D0786800F0B6F87B681B683A
:102B28005B6903F04003002B23D07B681B685A695C
:102B38007B681B6822F040025A617B685B6B002B44
:102B480013D07B685B6B214A5A637B685B6B1846C2
:102B5800FEF780FB0346002B16D07B685B6B5B6B34
:102B68007A68526B104698470EE0786800F039F89A
:102B78000AE0786800F035F806E0786800F031F887
:102B88007B680022DA631DE000BF1BE0FB6903F0ED
:102B98008003002B08D0BB6903F08003002B03D00F
:102BA800786800F0A2F80EE0FB6903F04003002B00
:102BB80009D0BB6903F04003002B04D0786800F00B
:102BC800E9F800E000BF2037BD4680BDCB2C0008E7
:102BD80080B483B000AF786000BF0C37BD4680BCBE
:102BE800704780B483B000AF786000BF0C37BD4633
:102BF80080BC704780B584B000AFF860B9603B60B6
:102C08001346FB712CE0BB69B3F1FF3F28D0BB69C9
:102C1800002B07D0FEF7E2F902463B68D31ABA69DF
:102C28009A421DD2FB681B68DA68FB681B6822F4AD
:102C3800D072DA60FB681B685A69FB681B6822F06F
:102C480001025A61FB68202283F83920FB682022A0
:102C580083F83A20FB68002283F8382003230FE02A
:102C6800FB681B681A68BB681340BA689A420CBFB5
:102C780001230023DBB21A46FB799A42C3D0002312
:102C880018461037BD4680BD80B483B000AF786069
:102C98007B681B68DA687B681B6822F49072DA60CC
:102CA8007B681B685A697B681B6822F001025A61BD
:102CB8007B68202283F83A2000BF0C37BD4680BCD1
:102CC800704780B584B000AF78607B685B6AFB6052
:102CD800FB680022DA85FB680022DA84F868FFF7CF
:102CE80080FF00BF1037BD4680BD80B485B000AFFF
:102CF80078607B6893F83930DBB2212B44D17B684C
:102D08009B68B3F5805F1AD17B681B6AFB60FB6820
:102D18001B881A467B681B68C2F308025A607B68E6
:102D28001B69002B05D17B681B6A9A1C7B681A6299
:102D38000EE07B681B6A5A1C7B681A6208E07B6895
:102D48001B6A591C7A6811621A787B681B685A607A
:102D58007B68DB8C9BB2013B9BB27A681946D184B5
:102D6800002B0FD17B681B68DA687B681B6822F030
:102D78008002DA607B681B68DA687B681B6842F04F
:102D88004002DA60002300E0022318461437BD46EB
:102D980080BC704780B582B000AF78607B681B68E4
:102DA800DA687B681B6822F04002DA607B682022C0
:102DB80083F839207868FFF70BFF00231846083797
:102DC800BD4680BD80B584B000AF78607B6893F85D
:102DD8003A30DBB2222B71D17B689B68B3F5805FF8
:102DE80023D17B689B6AFB607B681B69002B0ED133
:102DF8007B681B685B689BB2C3F308039AB2FB68E5
:102E08001A807B689B6A9A1C7B689A6229E07B68B7
:102E18001B685B689BB2DBB29AB2FB681A807B685E
:102E28009B6A5A1C7B689A621BE07B681B69002BB3
:102E38000AD17B681B6858687B689B6A591C7A684A
:102E48009162C2B21A700CE07B681B685B68DAB2E8
:102E58007B689B6A581C7968886202F07F02D2B24C
:102E68001A707B68DB8D9BB2013B9BB27A6819466E
:102E7800D185002B20D17B681B68DA687B681B68CA
:102E880022F02002DA607B681B68DA687B681B68BE
:102E980022F48072DA607B681B685A697B681B6859
:102EA80022F001025A617B68202283F83A20786870
:102EB80000F0AEF9002302E0002300E002231846E8
:102EC8001037BD4680BD000080B584B000AF786083
:102ED8007B681B681B6923F440517B68DA687B6850
:102EE8001B680A431A617B689A687B681B691A43E6
:102EF8007B685B691343FB607B681B68DB6823F4B2
:102F0800B05323F00C037A681268F9680B43D36056
:102F18007B681B685B6923F440717B689A697B68EE
:102F28001B680A435A617B681B68524A93424ED118
:102F3800FFF744F8B860BA6813469B0013449A0038
:102F48001A447B685B689B00B2FBF3F34A4AA2FB16
:102F580003235B091901BA6813469B0013449A00BE
:102F68001A447B685B689B00B2FBF3F2424BA3FBFD
:102F780002035B09642000FB03F3D31A1B013233FD
:102F88003D4AA2FB03235B0903F0F0031944BA6826
:102F980013469B0013449A001A447B685B689B00A5
:102FA800B2FBF3F2344BA3FB02035B09642000FB82
:102FB80003F3D31A1B0132332F4AA2FB03235B0905
:102FC80003F00F027B681B680A449A604DE0FEF725
:102FD800E1FFB860BA6813469B0013449A001A448C
:102FE8007B685B689B00B2FBF3F3234AA2FB0323D5
:102FF8005B091901BA6813469B0013449A001A44E6
:103008007B685B689B00B2FBF3F21B4BA3FB0203DC
:103018005B09642000FB03F3D31A1B013233164A01
:10302800A2FB03235B0903F0F0031944BA681346B3
:103038009B0013449A001A447B685B689B00B2FBB0
:10304800F3F20D4BA3FB02035B09642000FB03F3BF
:10305800D31A1B013233084AA2FB03235B0903F08E
:103068000F027B681B680A449A6000BF1037BD4690
:1030780080BD00BF003801401F85EB5180B588B086
:1030880000AF07F1100300221A605A609A60DA60F4
:10309800234B9B69224A43F040039361204B9B6971
:1030A80003F04003FB60FB681D4B9B691C4A43F01F
:1030B800100393611A4B9B6903F01003BB60BB6854
:1030C800174B9B69164A43F004039361144B9B69A1
:1030D80003F004037B607B6801221F211148FEF77F
:1030E80055FB1F233B6101237B610023BB61022346
:1030F800FB6107F1100319460A48FEF7B3F94FF4CC
:1031080000533B6100237B610023BB6107F110037F
:1031180019460548FEF7A6F900BF2037BD4680BD11
:1031280000100240001801400010014080B500AFB7
:10313800002201211148FEF729FB4FF4FA70FDF730
:1031480057FF002202210D48FEF720FB4FF4FA70CA
:10315800FDF74EFF012201210848FEF717FB4FF447
:10316800FA70FDF745FF012202210448FEF70EFB25
:103178004FF4FA70FDF73CFF00BF80BD0018014016
:1031880080B582B000AF786004211C48FEF716FBBA
:1031980008211A48FEF712FB194B1B780133DAB2E3
:1031A800174B1A70164B1B78022B22D1144B002296
:1031B8001A70144B1B780133DAB2124B1A70114B88
:1031C8001B783C2B15D10F4B00221A700E4B1B7825
:1031D8000133DAB20C4B1A700B4B1B783C2B08D11D
:1031E800094B00221A70094B1B780133DAB2074BDE
:1031F8001A7000BF0837BD4680BD00BF00180140E7
:10320800130A0020120A0020110A0020100A0020C8
:1032180080B584B002AF78607B681B682C4A934203
:1032280051D12C4B1B78BF2B4DD12A4B9B78FB2BB4
:1032380049D1284B5B78A12B02D0A22B14D027E0D0
:10324800002202212448FEF7A1FA244B1B781A46D3
:10325800234B1B781946234B1B7800930B462249B6
:10326800224800F01DFB22E0012202211A48FEF745
:103278008DFA1A4B1B781A46194B1B781946194BAD
:103288001B7800930B461A49184800F009FB0EE01A
:10329800124B1B781A46124B1B781946114B1B7898
:1032A80000930B461349114800F0FAFA00BF42F2A6
:1032B800107340220D491048FFF7A3FA032205496D
:1032C8000D48FFF737FB00BF0837BD4680BD00BF7C
:1032D80000380140540A002000180140100A00205C
:1032E800110A0020120A0020A87B0008140A0020F6
:1032F800C47B0008E07B0008A80A002080B500AF66
:10330800FDF714FE00F020F8FFF7B8FE00F038F9DA
:1033180000F0A8F9FFF70AFF42F2107334220649B9
:103328000648FFF76EFA0648FEF7A5FE0322054990
:103338000248FFF7FFFAFEE708000020A80A00206D
:10334800680A0020540A002080B590B000AF07F149
:10335800180328220021184600F052FA3B1D0022CB
:103368001A605A609A60DA601A610123BB614FF4EF
:103378008033FB6100233B620123BB6202237B6332
:103388004FF48033BB634FF4E013FB6307F118037A
:103398001846FEF72BFA0346002B01D000F019F867
:1033A8000F237B600223BB600023FB604FF4806324
:1033B8003B6100237B613B1D02211846FEF796FC0A
:1033C8000346002B01D000F004F800BF4037BD468B
:1033D80080BD80B400AF00BFBD4680BC7047000010
:1033E80080B485B000AF154B9B69144A43F00103C4
:1033F8009361124B9B6903F00103BB60BB680F4BE1
:10340800DB690E4A43F08053D3610C4BDB6903F050
:1034180080537B607B680A4B5B68FB60FB6823F02A
:10342800E063FB60FB6843F00073FB60044AFB68E1
:10343800536000BF1437BD4680BC7047001002407F
:103448000000014080B400AF00BFBD4680BC70479B
:1034580080B400AFFEE780B400AFFEE780B400AFF1
:10346800FEE780B400AFFEE780B400AF00BFBD4602
:1034780080BC704780B400AF00BFBD4680BC7047B9
:1034880080B400AF00BFBD4680BC704780B500AFB8
:10349800FDF792FD00BF80BD80B500AF0248FEF782
:1034A8000DFE00BF80BD00BF680A002080B500AFD8
:1034B8000248FFF793FA00BF80BD00BFA80A0020AA
:1034C80080B584B000AF7860114B1B68002B02D127
:1034D8000F4B104A1A600E4B1B68FB600C4B1A68A6
:1034E8007B6813446A46934207D900F05FF90346A4
:1034F8000C221A604FF0FF3306E0054B1A687B6810
:103508001344034A1360FB6818461037BD4680BD54
:10351800640A0020480B002080B400AF154B1B68DC
:10352800144A43F001031360124B5A681149124BB5
:1035380013404B600F4B1B680E4A23F0847323F42F
:10354800803313600B4B1B680A4A23F480231360F3
:10355800084B5B68074A23F4FE035360054B4FF49E
:103568001F029A60054B4FF000629A6000BFBD468B
:1035780080BC7047001002400000FFF800ED00E03A
:1035880080B586B000AF07F1080300221A605A60C0
:103598009A60DA603B4600221A605A601E4B4FF070
:1035A80080421A601C4B41F61F425A601A4B002297
:1035B8009A60194B42F20F72DA60174B00221A61B7
:1035C800154B00229A611448FEF72AFD0346002B8A
:1035D80001D0FFF7FEFE4FF48053BB6007F10803EC
:1035E80019460D48FEF772FE0346002B01D0FFF77F
:1035F800F0FE00233B6000237B603B4619460648EB
:10360800FFF75CF80346002B01D0FFF7E2FE00BF8E
:103618001837BD4680BD00BF680A002080B584B059
:1036280000AF78607B681B68B3F1804F13D10C4BF7
:10363800DB690B4A43F00103D361094BDB6903F0F3
:103648000103FB60FB68002200211C20FDF7CBFD75
:103658001C20FDF7E4FD00BF1037BD4680BD00BF4C
:103668000010024080B500AF114B124A1A60104B8F
:103678004FF4E1325A600E4B00229A600C4B002244
:10368800DA600B4B00221A61094B0C225A61084B75
:1036980000229A61064B0022DA610548FFF764F8B8
:1036A8000346002B01D0FFF794FE00BF80BD00BF8A
:1036B800A80A00200038014080B588B000AF7860C3
:1036C80007F1100300221A605A609A60DA607B687A
:1036D8001B68204A934239D11F4B9B691E4A43F409
:1036E800804393611C4B9B6903F48043FB60FB6838
:1036F800194B9B69184A43F004039361164B9B6965
:1037080003F00403BB60BB684FF400733B61022302
:103718007B610323FB6107F1100319460F48FDF78E
:10372800A1FE4FF480633B6100237B610023BB61F2
:1037380007F1100319460948FDF794FE00220021FD
:103748002520FDF750FD2520FDF769FD00BF203736
:10375800BD4680BD0038014000100240000801400D
:10376800002103E00B4B5B58435004310A480B4BD4
:1037780042189A42F6D30A4A02E0002342F8043B70
:10378800084B9A42F9D3FFF7C7FE00F015F8FFF788
:10379800B5FD7047BC7E000800000020F00900203D
:1037A800F0090020440B0020FEE70000014B1868D8
:1037B800704700BF4000002070B50D4E0D4D761BC0
:1037C800B61006D0002455F8043B01349847A642A9
:1037D800F9D1094E094D04F0CFF9761BB61006D081
:1037E800002455F8043B01349847A642F9D170BD2E
:1037F800B07E0008B07E0008B87E0008B07E0008E1
:10380800F0B4860746D0541E002A3CD00346CAB2FC
:1038180001E0013C37D303F8012B9D07F9D1032CB4
:103828002AD9CDB245EA05250F2C45EA054534D9F4
:10383800A4F1100222F00F0C03F1200716096744C7
:1038480003F1100242E9045542E902551032BA4226
:10385800F8D1721C14F00C0F03EB021204F00F06DF
:1038680013D0331F23F003030433134442F8045BDB
:103878009342FBD106F003042CB1CAB21C4403F8EE
:10388800012B9C42FBD1F0BC704734461346002CF8
:10389800F3D1F8E714460346C1E71A462646E0E79F
:1038A8000EB4014630B56FF000449CB01FAB0B4816
:1038B80053F8042B0A4D02910691006802A901935E
:1038C800CDE90445079400F00DF80022029B1A7018
:1038D8001CB0BDE8304003B0704700BF4000002076
:1038E8000802FFFF2DE9F04FD7B08B4617460E931D
:1038F800814602F0F3FE03681846189303F06AFD48
:10390800BBF80C3017901D0604D5DBF81030002BDF
:1039180000F0DF87002300210022CDE92B33CDE919
:103928001A33CDE91C33139319930A932DAB984698
:103938002A933B78DA46CDE91412002B00F0A481D3
:103948003C4604E014F8013F002B00F0FD80252BD5
:10395800F8D1E51B40F0FB802378002B00F0948120
:1039680000230B938DF88B3007934FF0FF33667865
:1039780004F1010B20212B2409930BF1010BA6F173
:1039880020035A2B00F2FF80DFE813F0BC02FD0091
:10399800FD00B502FD00FD00FD009102FD00FD00E7
:1039A8006A00E702FD003402CD02FD00C6025B009A
:1039B8005B005B005B005B005B005B005B005B0027
:1039C800FD00FD00FD00FD00FD00FD00FD00900173
:1039D800FD00F7017C00900190019001FD00FD00C1
:1039E800FD00FD008A02FD00FD00A900FD00FD00AC
:1039F800FD000B02FD003B02FD00FD008107FD00FC
:103A0800FD00FD00FD00FD00FD00FD00FD00900132
:103A1800FD00F70180009001900190018002800074
:103A28007500FD007602FD005E02AD004C027500D7
:103A3800FD000B0272005B07FD00FD005F07FD0043
:103A480072000022A6F130031BF8016B02EB820220
:103A580003EB4202A6F13003092BF5D90B928EE74E
:103A68000E9B53F8042B002A0B920E93C0F2BF81D1
:103A78009BF8006081E7079B9BF8006043F02003F8
:103A880007937AE7079B43F010030793079B9C066D
:103A980040F162810E9B073323F007031946F1E8D2
:103AA800022314461D460E91002A73F10003C0F24A
:103AB800AB85099B0133079B00F0148423F0800336
:103AC80054EA0502089340F00E84099A002A40F04F
:103AD8000F840793002356AF09930C936BE2079B5F
:103AE80043F010030793079B9A0640F126810E9B2B
:103AF800073323F00703F3E802450E93079B23F4EB
:103B080080630893002300228DF88B20099A1146C0
:103B1800013100F03182089921F08001079154EABF
:103B2800050140F02782002A40F07D83002BD1D187
:103B3800089B13F001030C9300F0908530230DF2DD
:103B480057178DF8573136E2E51B00F09D80DDE907
:103B58002B3201332A44072BC8E90075CDE92B32F3
:103B680006DC08F108080A9A23782A440A92F4E63F
:103B7800514648462AAA03F08FFC002841F0CE831C
:103B88000DF1B408EFE7002E7ED0002301211A467C
:103B980008918DF8F4608DF88B300D93099312938A
:103BA800169310930C913DAF079B13F0020302D0BC
:103BB800089902310891079911F084010F9105D1F4
:103BC8000B9908980D1A002D00F34B832C9C72B1A9
:103BD80001202B9A044402440DF18B01072ACDE9F8
:103BE8002B24C8E9001000F3CD8308F108086BB155
:103BF80002212B9B0C44013323AA072BCDE92B343C
:103C0800C8E9002100F3CC8308F108080F9B802B3A
:103C180000F03482099B0C9A9D1A002D00F36E82E5
:103C2800079BD90500F1D5812B9B0C9A01331444CD
:103C3800072BC8E900722C942B9300F3978308F1A3
:103C48000808079B590705D50B9B089A9D1A002D54
:103C580000F3B283DDE90A3208998A42ACBF9B18A7
:103C68005B180A93002C40F07D8200232B930D9B58
:103C78001BB148460D9902F02BFC5F460DF1B408C4
:103C88003B78002B7FF45CAE2C9BD346002B41F095
:103C98004B82BBF80C3013F0400F0A9B18BF4FF053
:103CA800FF330A930A9857B0BDE8F08F0E9B07338D
:103CB80023F007031946F1E80223CDE91423DDE9CF
:103CC800143424F000441D4618460E914FF0FF327C
:103CD8002146A44BFCF770FF002840F0D984284601
:103CE80021464FF0FF329F4BFCF748FF002840F079
:103CF800CF84DDE9140100220023FCF735FF0028FA
:103D080041F00E809DF88B2003200021964F974BA1
:103D180008900D91472EC8BF1F46079C0C9024F0B1
:103D2800800407940991129116911091002A3FF48A
:103D38003BAF089B0133089336E7079BDB0600F18E
:103D48009C84079B5F0640F1B2870E9B002553F8C1
:103D5800044B0E93A4B2D1E6079BD80600F1688500
:103D6800079B590640F1BE870E9B53F8044B24B2BB
:103D7800E5170E9322462B4696E6002101240E9B5A
:103D88000A4653F8040B0894CDE90D138DF88B10EF
:103D98008DF8F40009911291169110910C943DAF91
:103DA80002E700250E9C8DF88B5054F8047B002FF9
:103DB80000F09F85099A1346013300F07087294661
:103DC800384602F041FF0D90002801F0B9802B46DB
:103DD8000D9A0995D21B0C9222EAE27208920E946F
:103DE8009DF88B200D931293169310939EE70B9BCF
:103DF8005B420B93079B9BF8006043F00403079317
:103E0800BBE5079B43F010030893089B9D0640F110
:103E1800EA830E9B073323F00703F3E802450E936A
:103E2800012370E647F630020E9B079953F8044BBE
:103E380041F002010E934E4B002519937826022378
:103E48000891ADF88C205EE6079B9D0600F108847A
:103E5800079BDC0600F1E186079B580600F1958771
:103E6800079B990540F1D9860E9B0A9953F8042BB4
:103E78005F4611700E9303E79BF80060079B6C2E5A
:103E880000F0088543F01003079376E59BF800607F
:103E9800079B682E00F0078543F0400307936CE505
:103EA800079B9BF8006043F00803079365E54846C5
:103EB80002F014FC436818461C9303F08BFA03467F
:103EC80048461D461D9302F009FC826820211A927B
:103ED800002D3FF4CDAD1A9B002B3FF4C9AD1A9BC2
:103EE8001B78002B3FF4C4AD079B9BF8006043F49C
:103EF8008063079341E5079B9BF8006043F001034B
:103F080007933AE59DF88B30002B7FF4B1AD9BF811
:103F180000608DF88B1030E5079B9BF8006043F03C
:103F28008003079329E55A4612F8016B2A2E01F0FF
:103F38005182A6F13003092B934698BF002201F263
:103F4800EF801BF8016B02EB820203EB4202A6F141
:103F58003003092BF5D9099211E59BF800608DF81B
:103F68008B400AE5FFFFEF7F207C0008247C0008D7
:103F7800307C0008079A0892012B00F0B481022BCC
:103F880000F0598156AFE20842EA4572E90804F0A8
:103F980007030D461446303354EA05013A4607F83C
:103FA800013DF0D108990846C00700F1B88256AB28
:103FB800DB1B07910C93002309990D931293169319
:103FC80010930C9B9DF88B208B42B8BF0B4608932F
:103FD800ACE6652E40F3D880DDE914010022002309
:103FE800FCF7B8FD002800F01E8201212B9BC54A72
:103FF8000B440C44072BCDE92B34C8E9002100F30E
:10400800BB8508F10808249B139A934280F2218308
:104018002B9B179A013318991444072BC8E90012EF
:104028002C942B9300F3488408F10808139B5D1E19
:10403800002D7FF706AE102D40F3C785B24F10262E
:104048002B9B0F9705E008F10808103D102D40F351
:10405800BF8501331034072BCDE92B34C8E900762E
:10406800F1DD514648462AAA03F016FA002840F026
:104078008180DDE92B340DF1B408E6E70B9B089A43
:104088009D1A002D7FF7C6AD102D41F369809E481B
:104098002146102304462B9A0F9004E0103D102D62
:1040A80008F1080817DD01321031072ACDE92B2164
:1040B800C8E90043F2DD514648462AAA03F0ECF964
:1040C800002857D1DDE92B21103D102D4FF01003AA
:1040D8000DF1B408E7DC0C4601320F9B2C44072A8B
:1040E800CDE92B24C8E9003500F38A85099B0C9A91
:1040F80008F108089D1A002D7FF792AD102D40F3A6
:104108000A8681482146102304462B9A0F9004E022
:10411800103D102D08F1080816DD01321031072A6C
:10412800CDE92B21C8E90043F2DD514648462AAAC9
:1041380003F0B2F9F0B9DDE92B21103D102D4FF055
:1041480010030DF1B408E8DC0C4601320F9B2C4437
:10415800072ACDE92B24C8E9003500F3378208F196
:1041680008085DE5514648462AAA03F095F9002853
:104178003FF47BADD3460D9B002B3FF48AAD4846F8
:104188000D9902F0A5F984E5139B012B40F3D58125
:1041980001232B9D1C441D44072D2C94C8F8007046
:1041A8002B95C8F8043000F33A8208F10808179BE9
:1041B8000135189A1C44072DCDE92B54C8E9002372
:1041C80000F33A8208F108080023DDE9140100220F
:1041D800FCF7C0FC139B002840F0CD81013B013562
:1041E80001371C44072DCDE92B54C8F80070C8F8D6
:1041F800043000F3DC8408F108081B9A01351444E4
:1042080026AB072DCDE92B54C8E900327FF717AD4F
:10421800514648462AAA03F03FF90028AAD12C9C07
:104228000DF1B4080DE5012B00F0CA87022B079B9E
:1042380008937FF4A7AE199856AF230943EA05738C
:10424800290904F00F020D461C46835C07F8013D5E
:1042580054EA0503F1D1089B079356ABDB1B0C937B
:10426800A9E6102D40F36886DDE92B211E930B4645
:104278003946102437465646CA46894604E0103D5A
:10428800102D08F1080817DD013220491033072ADC
:10429800CDE92B23C8E90014F1DD314650462AAA9E
:1042A80003F0FAF8002840F05884DDE92B23103D8C
:1042B800102D0DF1B408E7DC4846D146B2463E461B
:1042C800074619461E9B4C1901321049072ACDE9A9
:1042D8002B24C8E9001500F31F849DF88B2008F1F2
:1042E800080874E40893002D08BF0A2C80F0D083D6
:1042F800089B3034079301238DF857410C930DF236
:10430800571758E6607C0008747C0008647C000835
:10431800514648462AAA03F0BFF800287FF42AAF7E
:10432800249A2C9C0DF1B408002A40F07F84079B46
:10433800139A03F0010313433FF483AC2B9B179AA2
:10434800013318991444072BC8E900122C942B93B5
:1043580000F3248508F10808139A01331444072B45
:10436800CDE92B34C8E900727FF769AC514648465D
:104378002AAA03F091F800287FF4FCAE2C9C0DF1DA
:10438800B4085EE4514648462AAA1E9303F084F80E
:1043980000287FF4EFAE2C9C1E9B0DF1B40826E498
:1043A800514648462AAA03F077F800287FF4E2AE7F
:1043B8002C9C0DF1B40829E4102D40F3BE8610267C
:1043C8002B9B04E0103D102D08F1080817DD013380
:1043D800AD4A1034072BCDE92B34C8E90026F1DDAE
:1043E800514648462AAA03F057F800287FF4C2AE7F
:1043F800DDE92B34103D102D0DF1B408E7DC013355
:10440800A14A2C44072BCDE92B34C8E900257FF7B6
:1044180021AC514648462AAA03F03EF800287FF40A
:10442800A9AE2C9C16E4249A002A40F38683109B9C
:10443800139A9342A8BF1346002B1D460BDD2B9BF6
:104448002C440133072BC8E900752C942B9300F3F7
:104458001E8508F10808109B002DA8BF5B1B002BC8
:104468001D4600F35682109B3B441E46079B5B0586
:1044780000F17782249B139A934203DB079AD507AE
:1044880040F17A842B9A1799013218980C44072A1C
:10449800C8E900012C942B9200F3068508F108085E
:1044A800139ABD18AD1BD31A9D42A8BF1D46002DF7
:1044B8000BDD2B9A2C440132072AC8E900652C949D
:1044C8002B9200F35F8508F10808002DB4BF1D4644
:1044D8005D1B002D7FF7B5AB102D40F376836B4F36
:1044E80010262B9B0F9705E008F10808103D102DAA
:1044F80040F36E8301331034072BCDE92B34C8E920
:104508000076F1DD514648462AAA02F0C5FF002888
:104518007FF430AEDDE92B340DF1B408E6E7302B3B
:104528003FF499AE3023023A07F8013C089956AB9C
:104538009B1A174607910C933DE5079BD8073FF553
:1045480027AE01232B9D1C441D44072D2C94C8F82D
:1045580000702B95C8F804307FF74DAE5146484699
:104568002AAA02F099FF00287FF404AEDDE92B5453
:104578000DF1B40841E65E1E002E7FF73EAE102E08
:1045880040F31E87414BCDF824B01027D3460F9334
:10459800CA46994605E008F10808103E102E40F377
:1045A800F88201351034072DCDE92B54C8E900975E
:1045B800F1DD594650462AAA02F06EFF002840F065
:1045C800CC85DDE92B540DF1B408E6E751464846A1
:1045D8002AAA02F061FF00287FF4CCAD2C9C0DF1D3
:1045E800B408FFF71DBB089BDC0600F11981089B86
:1045F800580640F168830E9A012352F8044B0025AF
:104608000E92A4B2FFF77FBA2D23079A64428DF861
:104618008B3065EB450501230892FFF777BA5146C1
:1046280048462AAA02F038FF00287FF4A3ADDDE946
:104638002B540DF1B408BAE5514648462AAA02F0AF
:104648002BFF00287FF496ADDDE92B540DF1B4085B
:10465800BAE5079BDA077FF5F4AAD9E456AFAAE4CE
:104668000E9B5F4653F8041B0E930A9BDD171A46F0
:104678002B46C1E90023FFF703BB0E9B002553F827
:10468800044B0E93FFF73ABA647C0008747C000868
:10469800DDE914010B460246FCF78EFA01460028B4
:1046A80040F04386612E00F08685412E00F07A8422
:1046B800099B26F020055A1C089500F07D83472D9C
:1046C80000F09E85DDE91401079B43F48073129383
:1046D8000B46002BC0F2BA8500220F931E920D9252
:1046E8000C90462D0C9A00F00784452D4FF00200DF
:1046F8000F9B40F0E783099900904C1C28A925A836
:10470800049124A9CDE902100194484600F034FF31
:1047180007460444129B079D0793002200230C9828
:104728000F99FCF717FA002800F098832346DB1B43
:104738001393089B472B00F05E83089B462B00F0E1
:104748000B84249B1093109B089A013B412A2493C5
:1047580000F0AD850021F2B2002B8DF89820B6BF8D
:104768002D222B22109B8DF89920B8BFC3F101038D
:10477800092B40F3A2850DF1A70E72469C46BF4C4B
:104788006046114684FB0C234FEAEC72C2EBA3028D
:1047980002EB8203ACEB430330336328944601F801
:1047A800013C01F1FF32EBDC63463033D8B28B1E9B
:1047B8009E4502F8010C40F22C860DF19A0301E0A7
:1047C80012F8010B964503F8010BF9D10DF1A90375
:1047D8000DF19A025B1A134426AA9B1A1B93139B8A
:1047E8001B9A012B1A440C9240F3CC850C9B179A08
:1047F80013440C9300231293169310930C9B25F4E7
:10480800806545F4807223EAE373079208931E9B40
:10481800002B40F017839DF88B200993FFF786BA89
:104828000E9A012352F8044B00250E92FFF76BB93C
:104838000E9B53F8044BE5170E9322462B46FFF7C1
:1048480033B9079B0893FFF7E0BA8D4B1993079B81
:10485800990640F1FE800E9B073323F00703F3E827
:1048680002450E93079AD7070AD554EA050307D0DD
:10487800302342F002028DF88D6007928DF88C305B
:10488800079A022322F480620892FFF73CB97D4B15
:104898001993DCE743F020039BF8016007930BF1C1
:1048A800010BFFF76AB843F400739BF801600793A4
:1048B8000BF1010BFFF761B8514648462AAA02F0EE
:1048C800EBFD00287FF456AC2C9C0DF1B408FFF7E3
:1048D800ADBB4021484601F009FFCBF80000CBF8FA
:1048E8001000002800F08D854023CBF81430FFF726
:1048F80011B8099B3A46062B28BF06230997129739
:10490800169710970D9708935F4F0E940C93FFF727
:104918000DBA102B40F3588551465C4ACA46099790
:104928001026174689462B9B0F9205E008F10808C8
:10493800103D102D40F3FA8101331034072BCDE9D7
:104948002B34C8E90076F1DD494650462AAA02F020
:10495800A3FD002840F0FD83DDE92B340DF1B408F8
:10496800E6E7139B4246DDF85880FB180993CDF81B
:1049780030B00F972046DDF874B01A9F129BB8F13B
:10498800000F2DD07BBB013F08F1FF382B9B1C99F2
:1049980001335844072BC2E9001B2C902B9362DC8F
:1049A800083209993B788D1B9D42A8BF1D46002DF2
:1049B8000BDD2B9B28440133072BC2E900652C90A3
:1049C8002B9300F311813B780832002DB4BF1D46AC
:1049D8005D1B002D0BDC1E44129BB8F1000FD1D1DA
:1049E800002B00F0F981129B013B1293CEE7102DAA
:1049F80040F3C5842B9910240B4604E0103D102D7C
:104A080002F1080216DD013320491030072BCDE9E9
:104A18002B30C2E90014F1DD514648462AAA02F0BB
:104A28003BFD00287FF4A6ABDDE92B30103D102DAF
:104A38002DAAE8DC19464B1C14492844072BCDE95C
:104A48002B30C2E9001500F315823B7808321E446A
:104A5800C2E7079BDA0640F184800E9B002553F8D5
:104A6800044B0E93FEE6514648462AAA02F014FD6E
:104A780000287FF47FAB2C982DAA92E767666666BC
:104A8800307C0008447C0008587C0008747C0008CE
:104A98000022089BCDF81CB003F480630C96CDF877
:104AA80034A09346CA461E46C14656AFDDF8688014
:104AB8000BE00A22002320462946FCF7BBF8002D0C
:104AC80008BF0A2C1BD304460D460A2200232046A1
:104AD8002946FCF7AFF8303207F8012C0BF1010B2F
:104AE800013F002EE5D098F800309B45E1D1BBF19D
:104AF800FF0FDED0002D08BF0A2C80F02881CDF8EA
:104B08006880CDF84CB0C8460C9ED146DDF81CB084
:104B1800DDF834A0FFF79FBB514648462AAA1E93EA
:104B280002F0BAFC00287FF425AB9DF88B202C9C62
:104B38001E9B0DF1B408FFF74AB801202B9BC5490D
:104B480003440444072BCDE92B34C8E900103FF790
:104B5800DFAB08F10808FFF7E7BBD146B346FFF71C
:104B68000ABB079B5B0640F1CB800E9B002553F8E0
:104B7800044B0E93A4B275E6514648462AAA02F0A1
:104B88008BFC00287FF4F6AA2C9C0DF1B408FFF7E3
:104B98003ABAD146DA46DDF824B001350F9B3444E1
:104BA800072DCDE92B54C8E900367FF724AB5146D1
:104BB80048462AAA02F070FC00287FF4DBAADDE947
:104BC8002B540DF1B408FFF718BBA34A2B9B0F9287
:104BD80001330F9A2C44072BCDE92B34C8E9002563
:104BE8007FF72DA8FFF7C2BB514648462AAA02F014
:104BF80053FC00287FF4BEAA3B782C982DAAE4E643
:104C0800514648462AAA02F047FC00287FF4B2AA77
:104C18002C9C0DF1B408FEF7FDBF0E9B0A9953F8C2
:104C2800042B5F4611600E93FFF72AB82B9B179948
:104C3800013318980C44072BC8E900012C942B93D6
:104C480000F3AC8008F10808002ABFF685AB55428E
:104C5800103280F2D38351467F4ACA4609971026FC
:104C6800174689460F9205E008F10808103D102DF7
:104C780040F3AA8201331034072BCDE92B34C8E95D
:104C88000076F1DD494650462AAA02F005FC0028C4
:104C980040F05F82DDE92B340DF1B408E6E73846D1
:104CA80002F098FB2B4602460995FFF794B8079B3C
:104CB800002513F4007F0E9B53F8044B0E9318BF86
:104CC800E4B2FEF71BBF0E9A089B52F8044B13F48C
:104CD800007F4FF000054FF001030E9218BFE4B2B9
:104CE800FEF711BF079B13F4007F0E9B53F8044B8C
:104CF80018BF64B2E5170E9322462B46FEF7D4BEC2
:104D0800079B002513F4007F0E9B53F8044B0E936A
:104D180018BFE4B2A6E5504B2B9A0F93FFF715BACC
:104D28002D231A468DF88B30FEF7EEBF4A46D14642
:104D38009246099F01330F9A2C44072BCDE92B3457
:104D4800C8E900253BDC08F10808FFF78CBB1D9B70
:104D58001C99FF1A1A46384602F06AFB98F8013087
:104D68000BB108F101080A22002320462946FBF767
:104D780061FF4FF0000BA6E6139ABD18AD1BD31ABE
:104D88009D42A8BF1D46FFF7A0BB0E9B0A9953F88A
:104D9800042B5F4611800E93FEF772BF51464846BA
:104DA8002AAA02F079FB00287FF4E4A9DDE92B3474
:104DB800249A0DF1B40847E70623099382E4514683
:104DC80048462AAA02F068FB00287FF4D3A92C9C45
:104DD8000DF1B408FFF747BB139B1A970F9F904636
:104DE800FB189E42324628BF1A4604461646DDF88E
:104DF80030B0FFF73FBB249BD81C109302DB099A05
:104E0800934204DD023E26F0200308939BE4109BA6
:104E180013998B42C0F27A81EA0740F18382179A8C
:104E280013440C936E0540F17782109B002B00F31E
:104E3800108267260C9B23EAE373089300231293DE
:104E48001693E4E42D2200238DF88B200993FEF7B6
:104E580070BF00BF607C0008747C0008289BA342D8
:104E6800BFF465AC30215A1C28921970289B9C42CB
:104E7800F9D85CE4514648462AAA02F00DFB0028FE
:104E88007FF478A93B782C982DAA1E44A4E55146B6
:104E980048462AAA02F000FB00287FF46BA92C9C44
:104EA8000DF1B408FFF7D7BA514648462AAA02F0CE
:104EB800F3FA00287FF45EA9249B2C9C0DF1B4081A
:104EC800FFF7EEBA099C28A9CDE90004049125A8AA
:104ED80024A9CDE90210484600F04EFB472D0746AD
:104EE80019D1079D2B46DB0700F12A81129A289BCE
:104EF8000792472208921AE40320099C28A9CDE9C1
:104F08000004049125A824A9CDE902100F9B484666
:104F180000F032FB0746099B462D07EB03047FF49C
:104F2800F9AB3B78302B00F01C82249B129A079D2A
:104F38001C440792FFF7F1BBDDE92B21FFF7C3B94A
:104F4800099B9DF88B2008930C9309900E9412905E
:104F580016901090FEF7EABE249A002A109240F3A9
:104F68001B82099905F001030B4340F09A816626DC
:104F7800109B0C936A0500F16D810C9B23EAE37387
:104F880008935BE7514648462AAA02F085FA0028AA
:104F98007FF4F0A8249B139A2C9C0DF1B408D31A23
:104FA800FFF793BA30238DF88C3058238DF88D3065
:104FB800079B43F00204099B632B00F3F280002354
:104FC8003DAF0D93079BDDE9141243F481731293EF
:104FD8001346002B26F020050794C0F28D800F930E
:104FE800002308950C911E93612E00F07D81412EBF
:104FF8007FF477AB24AA0C980F9902F0A1F900224C
:105008004FF07F53FBF73EFB04460D46002200237A
:10501800CDE91045FBF79EFD08B101232493AE4B63
:105028000C93099BCDF83CB0013B1396CDF87C90CE
:10503800CDF880A02197BA46DDE910679946DDF8DA
:1050480030B0CDF8588006E000220023FBF782FD3F
:1050580009F1FF39E8B90022A04B30463946FBF781
:1050680011FB0D460446FBF7BDFD8046FBF7A0FA91
:105078000B46024629462046FBF74CF91BF8083038
:10508800B9F1FF3F554606460F464C460AF8013B24
:10509800DAD1304639460022914BDDF83CB0139EF8
:1050A800CDF83CA0CDF84C80CDE91001DDE91F9A80
:1050B800DDF85880219FFBF775FD002855D1DDE903
:1050C80010010022864BFBF745FD10B1139BDB074F
:1050D8004BD4002C08DB30220F99631C0B4401F8D9
:1050E800012B8B42FBD10F910F9B079DDB1B139369
:1050F800129B0793FFF71DBB08952D23DDE91412BA
:105108001E9302F100430C910F936DE7139B179ABE
:105118009A18109B0C92002B40F31A81672629E7F6
:1051280000230993FEF72BBC484651462AAA02F0F1
:10513800B3F9BAF80C30FEF7AEBD2B9BFFF75FB999
:10514800099B079DFC18129B079347230893FFF7B9
:10515800E4BACB46D146FFF70EB8D146FFF70BB8F5
:10516800604B2B9A0F93FEF7B7BF0F9B0C992895AE
:1051780013F8012CC97B8A4240F02A81302003F8B9
:10518800010C289B5A1E289213F8012C9142F6D044
:10519800392A0BBF0C9A0132927AD2B203F8012C49
:1051A800A2E74846591C01F0A1FA0746002800F07A
:1051B8001D810D9006E730238DF88C307823F5E6B5
:1051C800079B0893FFF794B84A46D1469246099F31
:1051D80001330F9A2C44072BCDE92B34C8E900255D
:1051E8007FF7B8A8514648462AAA02F055F9002880
:1051F8007EF4C0AFDDE92B340DF1B408FFF7ACB88D
:10520800002B08BF01230993079B43F48073129373
:10521800159B002B0C93C0F2BD800224099D28A881
:1052280025AA24ABCDE90320CDE90045DDE91445E5
:10523800029322462B4648461E9100F09DF90C9B8E
:1052480007460F931E9B0C940D934AE600230D937B
:1052580053E767261A990B78FF2B00F0DE800024AD
:10526800109A204603E001300131FF2B08D0934209
:1052780006DAD21A4B78002BF5D10B780134F4E713
:105288001A91109216901294129A169B0C99134424
:105298001D9A02FB03130C9323EAE3730893FFF7A9
:1052A800B6BA179B6626D31819440C9162E606F124
:1052B8000F020121D2B2FFF74FBA002967D130227D
:1052C8008DF89A200DF19B02303302F8013B26AB92
:1052D800D31A1B93FFF783BA447C000800003040C0
:1052E8000000E03F747C000824AA0C980F9902F093
:1052F80027F800224FF07F53FBF7C4F904460D4608
:1053080000220023CDE91045FBF724FC08B1012356
:105318002493444B0C9384E667262EE6BAF80C30A7
:10532800FEF7B9BC109B0C937CE5159B0320002B62
:10533800B8BF2D234FF00001BABF1A468DF88B3045
:105348009DF88B20384F394B08900D91FEF7E2BC41
:10535800C3F101031A4422EAE27367260C92089308
:105368006CE5002200230C980F99FBF7F3FB00284B
:105378007FF4DBAD099BC3F101032493D6E52B9998
:10538800FFF759BBE9077FF535AAFFF72FBA0DF1EB
:105398009A0299E70D90B0E6099A05F001051346BF
:1053A8002B4304D10123662608930C9346E5179BEB
:1053B800662601331A4422EAE2730C9208933DE50B
:1053C8001B4B0F93FFF7E9BB194A2B9B0F92B1E4D4
:1053D8000F9BDDE60E9B9BF8016053F8040B934688
:1053E80040EAE07009900E93FEF7C7BABAF80C309D
:1053F80043F04003AAF80C30FEF74DBC0C4A0F925C
:10540800E6E60C234FF0FF32C9F800300A92FEF7A7
:1054180049BC02231B93FFF7E2B9002312931693AA
:1054280032E700BF307C0008287C00082C7C00088C
:10543800747C0008024B13B1024800F005B87047AD
:10544800000000000D640008002301461A461846B3
:1054580002F09EB82DE9F04F03690D6983B0AB42A5
:10546800C0F28480013D01F1140600F1140956F8D8
:10547800253059F8252001338E46A90000919A421B
:1054880009EB85018246B2FBF3F706EB850801912B
:1054980037D30022B446144648465CF8043B0168FA
:1054A8001FFA83FB07FB0B221B0C4FEA124B07FB6F
:1054B80003BB93B2E31A8AB21FFA8BF41344C4EB0A
:1054C800114404EB23449BB243EA0443E04540F80B
:1054D800043B4FEA24444FEA1B42DED2009B59F8B2
:1054E800033073B9019B043B994504D307E0994500
:1054F80005F1FF3503D253F80429002AF7D0CAF87A
:1055080010507146504601F00DFE00282ADB48462F
:105518000023013756F8041B04688AB29A1A0B0C48
:10552800A1B20A44C3EB144303EB224392B242EA0A
:105538000342B04540F8042B4FEA2343EAD259F816
:10554800252009EB85036AB9043B994504D307E094
:10555800994505F1FF3503D253F80429002AF7D0FD
:10556800CAF81050384603B0BDE8F08F002003B0E9
:10557800BDE8F08F000000002DE9F04F16461F46E9
:10558800016C9BB00446CDE90467279D41B1012316
:10559800426C9340C1E9012301F0C8FB0023236456
:1055A800B7F10009B4BF012300232B60764BBCBFC1
:1055B80029F00049CDF8149033EA090300F0AB80D4
:1055C800DDE904231046194600220023CDE906012F
:1055D800FBF7C0FA804670B10123269A1360289B16
:1055E800002B00F0C58269481860431E0393039896
:1055F8001BB0BDE8F08F18AA19ABCDE90032DDE980
:105608000623204601F048FE5FEA1955824640F01D
:105618009880DDE91885454405F23240202840F39A
:105628008983C0F1400305F2124009FA03F926FA0A
:1056380000F049EA0000FAF7ABFF0122013D1092A1
:10564800A1F1F8710022524BFAF764FE48A3D3E99E
:105658000023FBF717F848A3D3E90023FAF75CFE09
:10566800064628460F46FAF7A3FF45A3D3E90023C9
:10567800FBF708F802460B4630463946FAF74CFE67
:1056880006460F46FBF7AEFA002283460023304653
:105698003946FBF769FA002840F05D82BBF1160F26
:1056A80000F24B82DDE906013A4B03EBCB03D3E969
:1056B8000023FBF759FA002872D00023A8EB050550
:1056C800B5F101090BF1FF3B0D9300F13E82002378
:1056D8000993BBF1000F6BDA099BCDF820B0A3EB5F
:1056E8000B030993CBF100030C93249B4FF0000BA1
:1056F800092B65D8052B40F31B830025043B249315
:10570800249B023B032B00F26286DFE813F03B0484
:1057180038042F040F0442F20F73269AC9F31309B1
:10572800136059EA06031CD1289B002B00F046861B
:10573800194B03930833289A039813601BB0BDE8EC
:10574800F08FDDE90612C2F31303084643F07F51D8
:10575800CDF84080A5F2FF35DDF8608041F44011B6
:1057680070E7289B002B40F0D1830C4B03933EE756
:1057780061436F63A787D23FB3C8608B288AC63F4F
:10578800FB799F501344D33F0000F07F617C0008F1
:105798000000F83FC07C0008887C0008847C000872
:1057A800A8EB0505B5F1010900F196840D90099063
:1057B80000230C93249BD944092BCDF820B099D908
:1057C8004FF0FF3601250023CDE90A652493259380
:1057D800002111966164204601F082FA0E2E039092
:1057E800206400F2F280002D00F0EF800899002973
:1057F80040F34084B94B01F00F0203EBC203CA0522
:105808004FEA2115D3E9006740F1DB83DDE90601A2
:10581800B34B05F00F05D3E90823FBF75DF8032325
:10582800CDE912010E93A5B11494DFF8B4820E9C51
:10583800EB0708D5D8E9002330463946FAF722FFA6
:1058480006460F4601346D1008F10808F0D10E9491
:10585800149C3B46DDE912013246FBF73DF807464A
:1058680088460D9B43B10022384641469D4BFBF7C5
:105878007BF9002840F02E850E98FAF799FE3A46F3
:105888004346FAF7FFFE984B0022FAF745FDA1F1CF
:105898005073CDE90E010F930A9B002B00F0CC83C7
:1058A800089B14930A9B12930B9B002B00F0968481
:1058B800129A8A4B002003EBC20353E902238B4957
:1058C800FBF70AF8DDE90E23FAF724FD02460B463A
:1058D80038464146CDE90E23FBF784F91590FAF7CF
:1058E80067FE02460B4638464146FAF713FD159BFC
:1058F800039D303306460F46024605F8013B0B462A
:10590800DDE90E01FBF74EF9002840F0248500235D
:10591800CDE916B9CDF854A09846DDE90EABDDF80F
:1059280048900E9428E0C8454ADA50465946002265
:105938006F4BFAF7A7FE00226D4B82468B46304626
:105948003946FAF79FFE0F460646FBF74BF9044621
:10595800FAF72EFE02460B4630463946FAF7DAFCCD
:10596800303452465B4605F8014B06460F46FBF7B6
:10597800FBF8002840F0EC8432463B4600205949A9
:10598800FAF7C8FC52465B46FBF7EEF808F1010847
:105998000028C8D0149BDDF854A00E9C039A0893E5
:1059A80002E0954200F0BE84A94615F8013D392B66
:1059B800F7D00133DBB22B70089B01330893A0E1C9
:1059C800DDF854A00E9CDDE916B9199B002BC0F236
:1059D8009380089A0E2A00F38F80404B03EBC20392
:1059E800D3E90023CDE90423259B002B1ADA0A9B6F
:1059F800002B17DC40F0A784DDE9040100223D4BB1
:105A0800FAF740FE02460B46DDE90601FBF7B6F859
:105A1800DDF828804546002800F04182259B039F39
:105A2800DE4344E2DDE90467DDE9060132463B4630
:105A3800FAF752FFFBF7D6F88046FAF7B9FD324677
:105A48003B46FAF71FFE0B460246DDE90601FAF768
:105A580061FC039D08F1300305F8013B0A9B012B0B
:105A680000F07183CDF818A04FF00109AA469B46B3
:105A780009941BE032463B4620462946FAF72CFF9C
:105A8800FBF7B0F88046FAF793FD32463B46FAF743
:105A9800F9FD0B46024629462046FAF73BFC08F179
:105AA8003003D9450AF8013B00F049830022104B26
:105AB800FAF7E8FD0022002304460D46FBF74AF8F2
:105AC80009F101090028D5D05546099CDDF818A030
