:020000040800F2
:100000000000012089310008613000086D300008CF
:1000100073300008793000087F30000800000000CD
:100020000000000000000000000000008530000813
:1000300091300008000000009D300008A930000841
:10004000D1310008D1310008D1310008D131000888
:10005000D1310008D1310008D1310008D131000878
:10006000D1310008D1310008D1310008D131000868
:10007000D1310008D1310008D1310008D131000858
:10008000D1310008D1310008B5300008D131000865
:10009000D1310008D1310008D1310008D131000838
:1000A000D1310008D1310008D1310008D131000828
:1000B000D1310008D1310008D1310008D131000818
:1000C000D1310008D1310008D1310008D131000808
:1000D000D1310008D1310008D1310008D1310008F8
:1000E000D1310008D1310008D1310008D1310008E8
:1000F000D1310008D1310008D1310008D1310008D8
:10010000D1310008D1310008D1310008D1310008C7
:10011000D1310008D1310008D1310008D1310008B7
:10012000D1310008D1310008D1310008D1310008A7
:1001300000000000000000000000000000000000BF
:1001400000000000000000000000000000000000AF
:10015000000000000000000000000000000000009F
:10016000000000000000000000000000000000008F
:10017000000000000000000000000000000000007F
:10018000000000000000000000000000000000006F
:10019000000000000000000000000000000000005F
:1001A000000000000000000000000000000000004F
:1001B000000000000000000000000000000000003F
:1001C000000000000000000000000000000000002F
:1001D000000000000000000000000000000000001F
:0401E0005FF8E0F1F3
:1001E80010B5054C237833B9044B13B10448AFF369
:1001F80000800123237010BDB80900200000000012
:10020800A075000808B5034B1BB103490348AFF3B9
:10021800008008BD00000000BC090020A07500088F
:10022800844641EA000313F0030349D1403A23D33B
:100238000B6803604B6843608B688360CB68C3605E
:100248000B6903614B6943618B698361CB69C36146
:100258000B6A03624B6A43628B6A8362CB6AC3622E
:100268000B6B03634B6B43638B6B8363CB6BC36316
:1002780040304031403ADBD230320BD30B68036058
:100288004B6843608B688360CB68C3601030103163
:10029800103AF3D20C3205D351F8043B40F8043B32
:1002A800043AF9D2043208D0D2071CBF11F8013B36
:1002B80000F8013B01D30B8803806046704700BFFC
:1002C800082A13D38B07B1D010F00303AED0C3F1C3
:1002D8000403D21ADB071CBF11F8013B00F8013BED
:1002E800A4D331F8023B20F8023B9FE7043AD9D364
:1002F800013A11F8013B00F8013BF9D20B78037081
:100308004B7843708B7883706046704781F000416A
:1003180002E000BF83F0004330B54FEA41044FEAE2
:10032800430594EA050F08BF90EA020F1FBF54EA7D
:10033800000C55EA020C7FEA645C7FEA655C00F019
:10034800E2804FEA5454D4EB5555B8BF6D420CDDEA
:100358002C4480EA020281EA030382EA000083EA6D
:10036800010180EA020281EA0303362D88BF30BD0D
:1003780011F0004F4FEA01314FF4801C4CEA113163
:1003880002D0404261EB410113F0004F4FEA0333C2
:100398004CEA133302D0524263EB430394EA050F4D
:1003A80000F0A780A4F10104D5F1200E0DDB02FABC
:1003B8000EFC22FA05F2801841F1000103FA0EF250
:1003C800801843FA05F359410EE0A5F120050EF116
:1003D800200E012A03FA0EFC28BF4CF0020C43FA47
:1003E80005F3C01851EBE37101F0004507D54FF054
:1003F800000EDCF1000C7EEB00006EEB0101B1F5A4
:10040800801F1BD3B1F5001F0CD349085FEA3000E9
:100418004FEA3C0C04F101044FEA445212F5800FF4
:1004280080F09A80BCF1004F08BF5FEA500C50F191
:10043800000041EB045141EA050130BD5FEA4C0C74
:10044800404141EB0101013C28BFB1F5801FE9D2D1
:1004580091F0000F04BF01460020B1FA81F308BFF4
:100468002033A3F10B03B3F120020CDA0C3208DDC0
:1004780002F1140CC2F10C0201FA0CF021FA02F19B
:100488000CE002F11402D8BFC2F1200C01FA02F10B
:1004980020FA0CFCDCBF41EA0C019040E41AA2BF30
:1004A80001EB0451294330BD6FEA04041F3C1CDAF8
:1004B8000C340EDC04F11404C4F1200220FA04F018
:1004C80001FA02F340EA030021FA04F345EA0301C2
:1004D80030BDC4F10C04C4F1200220FA02F001FA84
:1004E80004F340EA0300294630BD21FA04F0294606
:1004F80030BD94F0000F83F4801306BF81F480119F
:100508000134013D4EE77FEA645C18BF7FEA655C11
:1005180029D094EA050F08BF90EA020F05D054EAE3
:10052800000C04BF1946104630BD91EA030F1EBFE8
:100538000021002030BD5FEA545C05D140004941EC
:1005480028BF41F0004130BD14F580043CBF01F5DF
:10055800801130BD01F0004545F0FE4141F47001C5
:100568004FF0000030BD7FEA645C1ABF19461046A0
:100578007FEA655C1CBF0B46024650EA013406BFA1
:1005880052EA033591EA030F41F4002130BD00BF60
:1005980090F0000F04BF0021704730B54FF480641D
:1005A80004F132044FF000054FF0000150E700BF9E
:1005B80090F0000F04BF0021704730B54FF48064FD
:1005C80004F1320410F0004548BF40424FF00001EA
:1005D8003EE700BF42004FEAE2014FEA31014FEA2D
:1005E80002701FBF12F07F4393F07F4F81F060517C
:1005F800704732F07F4208BF704793F07F4F04BFC7
:1006080041F40021704730B54FF4607401F00045A3
:1006180021F000411CE700BF50EA010208BF704703
:1006280030B54FF000050AE050EA010208BF7047F4
:1006380030B511F0004502D5404261EB41014FF45D
:10064800806404F132045FEA915C3FF4D8AE4FF065
:1006580003025FEADC0C18BF03325FEADC0C18BF48
:10066800033202EBDC02C2F1200300FA03FC20FA99
:1006780002F001FA03FE40EA0E0021FA02F11444E6
:10068800BDE600BF70B54FF0FF0C4CF4E06C1CEAFF
:1006980011541DBF1CEA135594EA0C0F95EA0C0F70
:1006A80000F0DEF82C4481EA030621EA4C5123EAE3
:1006B8004C5350EA013518BF52EA033541F4801112
:1006C80043F4801338D0A0FB02CE4FF00005E1FBC5
:1006D80002E506F00042E0FB03E54FF00006E1FB0F
:1006E80003569CF0000F18BF4EF0010EA4F1FF0452
:1006F800B6F5007F64F5407404D25FEA4E0E6D4192
:1007080046EB060642EAC62141EA55514FEAC520A2
:1007180040EA5E504FEACE2EB4F1FD0C88BFBCF51E
:10072800E06F1ED8BEF1004F08BF5FEA500E50F1CF
:10073800000041EB045170BD06F0004646EA010195
:1007480040EA020081EA0301B4EB5C04C2BFD4EBC7
:100758000C0541EA045170BD41F480114FF0000EC0
:10076800013C00F3AB8014F1360FDEBF002001F02E
:10077800004170BDC4F10004203C35DA0C341BDCA8
:1007880004F11404C4F1200500FA05F320FA04F07A
:1007980001FA05F240EA020001F0004221F00041AE
:1007A80010EBD37021FA04F642EB06015EEA430E21
:1007B80008BF20EAD37070BDC4F10C04C4F1200551
:1007C80000FA04F320FA05F001FA04F240EA020004
:1007D80001F0004110EBD37041F100015EEA430ED5
:1007E80008BF20EAD37070BDC4F1200500FA05F2F5
:1007F8004EEA020E20FA04F301FA05F243EA020374
:1008080021FA04F001F0004121FA04F220EA020082
:1008180000EBD3705EEA430E08BF20EAD37070BDC8
:1008280094F0000F0FD101F00046400041EB0101A8
:1008380011F4801F08BF013CF7D041EA060195F08A
:10084800000F18BF704703F00046520043EB030344
:1008580013F4801F08BF013DF7D043EA0603704731
:1008680094EA0C0F0CEA135518BF95EA0C0F0CD03C
:1008780050EA410618BF52EA4306D1D181EA030182
:1008880001F000414FF0000070BD50EA410606BF7C
:100898001046194652EA430619D094EA0C0F02D1C1
:1008A80050EA013613D195EA0C0F05D152EA033606
:1008B8001CBF104619460AD181EA030101F0004124
:1008C80041F0FE4141F470014FF0000070BD41F06D
:1008D800FE4141F4780170BD70B54FF0FF0C4CF447
:1008E800E06C1CEA11541DBF1CEA135594EA0C0F66
:1008F80095EA0C0F00F0A7F8A4EB050481EA030EB3
:1009080052EA03354FEA013100F088804FEA033399
:100918004FF0805545EA131343EA12634FEA022267
:1009280045EA111545EA10654FEA00260EF0004128
:100938009D4208BF964244F1FD0404F5407402D27A
:100948005B084FEA3202B61A65EB03055B084FEA0B
:1009580032024FF480104FF4002CB6EB020E75EB08
:10096800030E22BFB61A754640EA0C005B084FEA30
:100978003202B6EB020E75EB030E22BFB61A7546AD
:1009880040EA5C005B084FEA3202B6EB020E75EBF8
:10099800030E22BFB61A754640EA9C005B084FEA70
:1009A8003202B6EB020E75EB030E22BFB61A75467D
:1009B80040EADC0055EA060E18D04FEA051545EA6C
:1009C80016754FEA06164FEAC30343EA52734FEA15
:1009D800C2025FEA1C1CC0D111F4801F0BD141EA8E
:1009E80000014FF000004FF0004CB6E711F4801FF3
:1009F80004BF01430020B4F1FD0C88BFBCF5E06FD3
:100A08003FF6AFAEB5EB030C04BFB6EB020C5FEAE2
:100A1800500C50F1000041EB045170BD0EF0004E37
:100A28004EEA113114EB5C04C2BFD4EB0C0541EA69
:100A3800045170BD41F480114FF0000E013C90E666
:100A480045EA060E8DE60CEA135594EA0C0F08BF2A
:100A580095EA0C0F3FF43BAF94EA0C0F0AD150EA29
:100A680001347FF434AF95EA0C0F7FF425AF1046BC
:100A780019462CE795EA0C0F06D152EA03353FF4E4
:100A8800FDAE1046194622E750EA410618BF52EA61
:100A980043067FF4C5AE50EA41047FF40DAF52EA35
:100AA80043057FF4EBAE12E74FF0FF3C06E000BFD2
:100AB8004FF0010C02E000BF4FF0010C4DF804CDDF
:100AC8004FEA410C7FEA6C5C4FEA430C18BF7FEA9F
:100AD8006C5C1BD001B050EA410C0CBF52EA430CCD
:100AE80091EA030F02BF90EA020F0020704710F14D
:100AF800000F91EA030F58BF994208BF90422CBFDC
:100B0800D8176FEAE37040F0010070474FEA410CD4
:100B18007FEA6C5C02D150EA013C07D14FEA430CF2
:100B28007FEA6C5CD6D152EA033CD3D05DF8040B63
:100B3800704700BF8446104662468C461946634695
:100B480000E000BF01B5FFF7B7FF002848BF10F16C
:100B5800000F01BD4DF808EDFFF7F4FF0CBF0120B1
:100B680000205DF808FB00BF4DF808EDFFF7EAFF2D
:100B780034BF012000205DF808FB00BF4DF808EDE8
:100B8800FFF7E0FF94BF012000205DF808FB00BFDD
:100B98004DF808EDFFF7CEFF94BF012000205DF867
:100BA80008FB00BF4DF808EDFFF7C4FF34BF012074
:100BB80000205DF808FB00BF4FEA410C7FEA6C5C3F
:100BC80002D150EA013C0AD14FEA430C7FEA6C5C3F
:100BD80002D152EA033C02D14FF0000070474FF0B7
:100BE800010070474FEA410212F5001215D211D5E3
:100BF8006FF47873B3EB625212D94FEAC12343F012
:100C0800004343EA505311F0004F23FA02F018BF93
:100C1800404270474FF00000704750EA013005D15C
:100C280011F0004008BF6FF0004070474FF000001F
:100C3800704700BF53B94AB9002908BF00281CBF34
:100C48004FF0FF314FF0FF3000F06EB9ADF1080CF6
:100C58006DE904CE00F006F8DDF804E0DDE90223D2
:100C680004B070472DE9F047089E0D4604468E46AD
:100C7800002B40F083808A42174647D9B2FA82F3A4
:100C88004BB1C3F1200105FA03FE20FA01F19F40A0
:100C980041EA0E0E9C404FEA1748BEFBF8FC1FFACB
:100CA80087F908FB1CE20CFB09F0210C41EA02421F
:100CB80090420AD9BA180CF1FF3180F0188190429D
:100CC80040F21581ACF1020C3A44121AB2FBF8F06A
:100CD80008FB102200FB09F1A4B244EA0244A14235
:100CE80009D93C1900F1FF3280F00381A14240F29A
:100CF800008102383C44641A002140EA0C401EB1CD
:100D08000022DC40C6E90042BDE8F08702B9FFDEF8
:100D1800B2FA82F3002B4FD18D1A01214FEA124EFD
:100D28001FFA82F8B5FBFEFC0EFB1C5508FB0CF005
:100D3800220C42EA0545A84207D97D190CF1FF3279
:100D480002D2A84200F2E98094462D1AB5FBFEF0C3
:100D58000EFB105508FB00F8A4B244EA0544A04570
:100D680007D93C1900F1FF3202D2A04500F2D98020
:100D78001046A4EB080440EA0C40C0E78B4208D9AF
:100D8800002E00F0B1800021C6E900050846BDE844
:100D9800F087B3FA83F100294BD1AB4202D38242E8
:100DA80000F2B980841A65EB030301209E46002EE9
:100DB800AAD0C6E9004EA7E79F40C3F12002D14060
:100DC8004FEA174EB1FBFEF01FFA87F80EFB101121
:100DD80024FA02F29D4000FB08FC2A43150C45EA60
:100DE8000145AC4504FA03F409D97D1900F1FF3136
:100DF80080F08F80AC4540F28C8002383D44A5EBF2
:100E08000C05B5FBFEF10EFB115C01FB08F995B270
:100E180045EA0C45A94507D97D1901F1FF3274D27D
:100E2800A94572D902393D44A5EB090541EA0041BB
:100E380078E7C1F120078B4022FA07FC4CEA030C43
:100E480025FA07F44FEA1C4EB4FBFEF91FFA8CF89A
:100E58000EFB194420FA07F309FB08FA8D401D43DD
:100E68002B0C43EA0444A24502FA01F200FA01F30A
:100E780009D91CEB040409F1FF3048D2A24546D930
:100E8800A9F102096444A4EB0A04B4FBFEF00EFBCA
:100E9800104400FB08FAADB245EA0444A24508D95B
:100EA8001CEB040400F1FF352DD2A2452BD90238E2
:100EB800644440EA0940A0FB0289A4EB0A044C45BB
:100EC800C6464D4619D316D05EB1B3EB0E0264EB9D
:100ED800050404FA07F722FA01F31F43CC40C6E9D8
:100EE80000740021BDE8F087314630460CE78C4697
:100EF800EBE61046FFE64345E6D2B8EB020E69EB97
:100F08000C050138E0E72846D3E711468CE781460F
:100F1800B9E7084673E7084649E7ACF1020C3D44D7
:100F280013E702383C4424E7704700BF80B500AFA0
:100F3800084B1B68074A43F010031360032000F0B6
:100F48004DFD002000F008F801F0C4FF002318460A
:100F580080BD00BF0020024080B582B000AF78603D
:100F6800124B1A68124B1B7819464FF47A73B3FB6D
:100F7800F1F3B2FBF3F3184600F065FD0346002BCE
:100F880001D001230EE07B680F2B0AD80022796874
:100F98004FF0FF3000F02DFD064A7B6813600023F8
:100FA80000E0012318460837BD4680BD0800002030
:100FB800040000200000002080B400AF054B1B781F
:100FC8001A46054B1B681344034A136000BFBD460D
:100FD80080BC704704000020D409002080B400AF12
:100FE800024B1B681846BD4680BC7047D4090020D8
:100FF80080B584B000AF7860FFF7F0FFB8607B6819
:10100800FB60FB68B3F1FF3F05D00A4B1B781A461B
:10101800FB681344FB6000BFFFF7E0FF0246BB68B4
:10102800D31AFA689A42F7D800BF00BF1037BD46F6
:1010380080BD00BF0400002080B586B000AF786096
:101048000023FB7500233B610023BB600023FB608A
:101058007B68002B01D10123CEE07B689B68002BC5
:101068007B689B6A002B09D17B680022DA627B6867
:10107800002283F82420786801F05EFF786800F089
:101088009DFB0346FB757B689B6A03F01003002BEE
:1010980040F0A980FB7D002B40F0A5807B689B6A0F
:1010A80023F4885323F0020343F002027B689A6218
:1010B8007B685A687B681B6851498B420AD17B68F8
:1010C800DB69B3F5402F02D07B68DB6904E04FF49D
:1010D800002301E07B68DB691A437B681B7B5B00AC
:1010E8001343BA681343BB607B689B68B3F5807F82
:1010F80003D07B689B68012B02D14FF4807300E01A
:1011080000233A6913433B617B681B7D012B19D18E
:101118007B681B7B002B09D17B689B69013B5A03C9
:101128003B69134343F400633B610BE07B689B6AB4
:1011380043F020027B689A627B68DB6A43F0010215
:101148007B68DA627B681B685B6823F469417B68AB
:101158001B683A690A435A607B681B689A68294B7E
:1011680013407A681268B9680B4393607B689B6880
:10117800B3F5807F03D07B689B68012B04D17B6823
:101188001B69013B1B05FB607B681B68DB6A23F45A
:1011980070017B681B68FA680A43DA627B681B681F
:1011A8009A68194B1340BA689A420BD17B6800229F
:1011B800DA627B689B6A23F0030343F001027B68D1
:1011C8009A6218E07B689B6A23F0120343F01002CE
:1011D8007B689A627B68DB6A43F001027B68DA62AB
:1011E8000123FB7507E07B689B6A43F010027B686C
:1011F8009A620123FB75FB7D18461837BD4680BDF2
:10120800003C0140FDF7E1FFFE0E1FFF80B584B0F2
:1012180000AF78600023FB737B6893F82430012BC0
:1012280001D10223A0E07B68012283F8242078689A
:1012380000F072FA0346FB73FB7B002B40F08F80B3
:101248007B689B6A23F4706323F0010343F4807284
:101258007B689A627B681B68454A934205D1454B77
:101268005B6803F47023002B15D17B689B6A23F419
:1012780080127B689A627B681B685B6803F48063F2
:10128800002B26D07B689B6A23F4405343F480529A
:101298007B689A621DE07B689B6A43F480127B68D6
:1012A8009A627B681B68334A934204D07B681B6848
:1012B8002F4A93420DD12F4B5B6803F48063002BB8
:1012C80007D07B689B6A23F4405343F480527B68C1
:1012D8009A627B689B6A03F48053002B06D07B6874
:1012E800DB6A23F006027B68DA6202E07B68002290
:1012F800DA627B68002283F824207B681B686FF021
:1013080002021A607B681B685A687B681B6842F097
:1013180020025A607B681B689B6803F46023B3F55E
:10132800602F13D17B681B68114A934205D1114B7A
:101338005B6803F47023002B08D17B681B689A68EC
:101348007B681B6842F4A0029A600CE07B681B680B
:101358009A687B681B6842F480129A6003E07B6895
:10136800002283F82420FB7B18461037BD4680BD39
:10137800002801400024014080B483B000AF7860A9
:101388007B681B68DB6C18460C37BD4680BC704711
:1013980080B582B000AF78607B681B685B6803F03B
:1013A8002003202B40D17B681B681B6803F00203D5
:1013B800022B39D17B689B6A03F01003002B05D1FF
:1013C8007B689B6A43F400727B689A627B681B683F
:1013D8009B6803F46023B3F5602F1DD17B681B7BEA
:1013E800002B19D17B681B685A687B681B6822F040
:1013F80020025A607B689B6A23F480727B689A6239
:101408007B689B6A03F48053002B05D17B689B6A39
:1014180043F001027B689A62786801F0F3FB7B680D
:101428001B686FF012021A607B681B685B6803F028
:101438008003802B4FD17B681B681B6803F0040373
:10144800042B48D17B689B6A03F01003002B05D15D
:101458007B689B6A43F400527B689A627B681B68CE
:101468009B6803F4E043B3F5E04F12D07B681B6838
:101478005B6803F48063002B25D17B681B689B683D
:1014880003F46023B3F5602F1DD17B681B7B002B11
:1014980019D17B681B685A687B681B6822F0800238
:1014A8005A607B689B6A23F480527B689A627B68E7
:1014B8009B6A03F48073002B05D17B689B6A43F019
:1014C80001027B689A62786800F0B2F97B681B6851
:1014D8006FF00C021A607B681B685B6803F04003BE
:1014E800402B14D17B681B681B6803F00103012B98
:1014F8000DD17B689B6A43F480327B689A62786876
:1015080000F009F87B681B686FF001021A6000BFE1
:101518000837BD4680BD80B483B000AF786000BF97
:101528000C37BD4680BC704780B485B000AF78608A
:1015380039600023FB730023BB607B6893F8243079
:10154800012B01D10223DCE07B68012283F82420EF
:101558003B685B68062B1CD87B681B68596B3B682B
:101568005A6813469B001344053B1F2202FA03F3F3
:10157800DB4319403B6818683B685A6813469B0070
:101588001344053B00FA03F27B681B680A435A635D
:101598003CE03B685B680C2B1CD87B681B68196BAC
:1015A8003B685A6813469B001344233B1F2202FAE8
:1015B80003F3DB4319403B6818683B685A681346D5
:1015C8009B001344233B00FA03F27B681B680A4321
:1015D8001A631BE07B681B68D96A3B685A68134624
:1015E8009B001344413B1F2202FA03F3DB431940DB
:1015F8003B6818683B685A6813469B001344413B94
:1016080000FA03F27B681B680A43DA623B681B68CE
:10161800092B1CD97B681B68D9683B681A68134674
:101628005B0013441E3B072202FA03F3DB43194015
:101638003B6898683B681A6813465B0013441E3B76
:1016480000FA03F27B681B680A43DA6019E07B68DA
:101658001B6819693B681A6813465B001344072224
:1016680002FA03F3DB4319403B6898683B681A6841
:1016780013465B00134400FA03F27B681B680A43B5
:101688001A613B681B68102B03D03B681B68112B41
:1016980032D17B681B681D4A934225D17B681B6841
:1016A8009B6803F40003002B26D17B681B689A68AB
:1016B8007B681B6842F400029A603B681B68102B29
:1016C8001AD1134B1B68134AA2FB03239A0C134627
:1016D8009B0013445B00BB6002E0BB68013BBB603E
:1016E800BB68002BF9D107E07B689B6A43F02002B6
:1016F8007B689A620123FB737B68002283F82420AD
:10170800FB7B18461437BD4680BC70470024014057
:101718000800002083DE1B4380B584B000AF7860EA
:101728000023FB600023BB607B681B689B6803F099
:101738000103012B39D07B681B689A687B681B689A
:1017480042F001029A601B4B1B681B4AA2FB032351
:101758009B0CBB6002E0BB68013BBB60BB68002B15
:10176800F9D1FFF73BFCF86018E0FFF737FC0246B9
:10177800FB68D31A022B11D97B689B6A43F01002CD
:101788007B689A627B68DB6A43F001027B68DA62F5
:101798007B68002283F82420012307E07B681B680C
:1017A8009B6803F00103012BDFD100231846103793
:1017B800BD4680BD0800002083DE1B4380B584B091
:1017C80000AF78600023FB607B681B689B6803F0B0
:1017D8000103012B27D17B681B689A687B681B680B
:1017E80022F001029A60FFF7F9FBF86014E0FFF7B6
:1017F800F5FB0246FB68D31A022B0DD97B689B6A5E
:1018080043F010027B689A627B68DB6A43F001024E
:101818007B68DA62012307E07B681B689B6803F03A
:101828000103012BE3D0002318461037BD4680BDC5
:1018380080B483B000AF786000BF0C37BD4680BC71
:101848007047000080B485B000AF78607B6803F013
:101858000703FB600C4BDB68BB60BA684FF6FF03FD
:101868001340BB60FB681A02BB68134343F0BF63B5
:1018780043F40033BB60044ABB68D36000BF14372D
:10188800BD4680BC704700BF00ED00E080B400AFEB
:10189800044BDB681B0A03F007031846BD4680BCEF
:1018A800704700BF00ED00E080B483B000AF03468E
:1018B800FB7197F90730002B0BDBFB7903F01F0254
:1018C800064997F907305B09012000FA02F241F84E
:1018D800232000BF0C37BD4680BC704700E100E004
:1018E80080B483B000AF03463960FB7197F90730C5
:1018F800002B0ADB3B68DAB20C4997F90730120172
:10190800D2B20B4483F800230AE03B68DAB20849F4
:10191800FB7903F00F03043B1201D2B20B441A7691
:1019280000BF0C37BD4680BC704700BF00E100E037
:1019380000ED00E080B489B000AFF860B9607A606B
:10194800FB6803F00703FB61FB69C3F10703042B82
:1019580028BF0423BB61FB690433062B02D9FB694A
:10196800033B00E000237B614FF0FF32BB6902FAC2
:1019780003F3DA43BB681A407B699A404FF0FF31A2
:101988007B6901FA03F3D9437B680B40134318467C
:101998002437BD4680BC704780B582B000AF786000
:1019A8007B68013BB3F1807F01D301230FE00A4A32
:1019B8007B68013B53600F214FF0FF30FFF790FF2A
:1019C800054B00229A60044B07221A600023184630
:1019D8000837BD4680BD00BF10E000E080B582B08A
:1019E80000AF78607868FFF72DFF00BF0837BD4665
:1019F80080BD80B586B000AF0346B9607A60FB73DE
:101A080000237B61FFF742FF78617A68B9687869DB
:101A1800FFF790FF024697F90F3011461846FFF777
:101A28005FFF00BF1837BD4680BD80B582B000AFEC
:101A38000346FB7197F907301846FFF735FF00BFDB
:101A48000837BD4680BD80B582B000AF7860786841
:101A5800FFF7A2FF034618460837BD4680BD0000C1
:101A680080B48BB000AF7860396000237B620023BC
:101A78003B6279E101227B6A02FA03F3FB613B686E
:101A88001B68FA691340BB61BA69FB699A4240F066
:101A980068813B685B68A04A93425ED09E4A934245
:101AA80075D89E4A934258D09C4A93426FD89C4A14
:101AB800934252D09A4A934269D89A4A93424CD058
:101AC800984A934263D8984A934246D0964A93429A
:101AD8005DD8122B2AD8122B59D801A252F823F01C
:101AE800631B00083D1B00084F1B0008911B0008E2
:101AF800971B0008971B0008971B0008971B0008F6
:101B0800971B0008971B0008971B0008971B0008E5
:101B1800971B0008971B0008971B0008971B0008D5
:101B2800971B0008451B0008591B00087F4A934271
:101B380013D02CE03B68DB683B6229E03B68DB683C
:101B480004333B6224E03B68DB6808333B621FE0F8
:101B58003B68DB680C333B621AE03B689B68002BF0
:101B680002D104233B6213E03B689B68012B05D13B
:101B780008233B627B68FA691A6109E008233B6223
:101B88007B68FA695A6103E000233B6200E000BF0A
:101B9800BB69FF2B01D87B6801E07B6804337B615C
:101BA800BB69FF2B02D87B6A9B0002E07B6A083B7B
:101BB8009B003B617B691A680F213B6901FA03F3BB
:101BC800DB431A40396A3B6901FA03F31A437B691C
:101BD8001A603B685B6803F08053002B00F0C180FB
:101BE800534B9B69524A43F001039361504B9B69E5
:101BF80003F00103BB60BB684E4A7B6A9B08023353
:101C080052F82330FB607B6A03F003039B000F222A
:101C180002FA03F3DB43FA681340FB607B68464A29
:101C280093421FD07B68454A934219D07B68444A47
:101C3800934213D07B68434A93420DD07B68424A53
:101C4800934207D07B68414A934201D105230AE0B9
:101C5800062308E0042306E0032304E0022302E04D
:101C6800012300E000237A6A02F003029200934005
:101C7800FA681343FB602F497B6A9B080233FA68B2
:101C880041F823203B685B6803F48033002B06D0BF
:101C98002F4B1A682E49BB6913430B6006E02C4B87
:101CA8001A68BB69DB432A4913400B603B685B68D1
:101CB80003F40033002B06D0254B5A682449BB692E
:101CC80013434B6006E0224B5A68BB69DB4320494B
:101CD80013404B603B685B6803F48013002B06D00D
:101CE8001B4B9A681A49BB6913438B6006E0184B73
:101CF8009A68BB69DB43164913408B603B685B6895
:101D080003F40013002B25D0114BDA681049BB6986
:101D18001343CB6025E000BF0000321000003110F3
:101D28000000221000002110000012100000111005
:101D3800001002400000014000080140000C014072
:101D4800001001400014014000180140001C01402F
:101D5800000401400B4BDA68BB69DB4309491340B7
:101D6800CB607B6A01337B623B681A687B6A22FA24
:101D780003F3002B7FF47EAE00BF00BF2C37BD46B7
:101D880080BC70470004014080B483B000AF786025
:101D98000B467B8013467B707B78002B03D07A88B8
:101DA8007B681A6103E07B881A047B681A6100BFAC
:101DB8000C37BD4680BC704780B586B000AF7860F0
:101DC8007B68002B01D101236CE27B681B6803F060
:101DD8000103002B00F08780924B5B6803F00C0333
:101DE800042B0CD08F4B5B6803F00C03082B12D12B
:101DF8008C4B5B6803F48033B3F5803F0BD1894B80
:101E08001B6803F40033002B6CD07B685B68002BE5
:101E180068D1012346E27B685B68B3F5803F06D151
:101E2800804B1B687F4A43F4803313602EE07B6845
:101E38005B68002B0CD17B4B1B687A4A23F48033F8
:101E48001360784B1B68774A23F4802313601DE0E6
:101E58007B685B68B3F5A02F0CD1724B1B68714A85
:101E680043F4802313606F4B1B686E4A43F480333E
:101E780013600BE06B4B1B686A4A23F480331360D2
:101E8800684B1B68674A23F4802313607B685B6890
:101E9800002B13D0FFF7A2F8386108E0FFF79EF88F
:101EA80002463B69D31A642B01D90323FAE15D4B3F
:101EB8001B6803F40033002BF0D014E0FFF78EF812
:101EC800386108E0FFF78AF802463B69D31A642BA9
:101ED80001D90323E6E1534B1B6803F40033002BBD
:101EE800F0D100E000BF7B681B6803F00203002B01
:101EF80063D04C4B5B6803F00C03002B0BD0494BB1
:101F08005B6803F00C03082B1CD1464B5B6803F499
:101F18008033002B16D1434B1B6803F00203002BC0
:101F280005D07B681B69012B01D00123BAE13D4B29
:101F38001B6823F0F8027B685B69DB0039491343AF
:101F48000B603AE07B681B69002B20D0364B0122DE
:101F58001A60FFF743F8386108E0FFF73FF80246D8
:101F68003B69D31A022B01D903239BE12D4B1B6834
:101F780003F00203002BF0D02A4B1B6823F0F80271
:101F88007B685B69DB00274913430B6015E0264B30
:101F980000221A60FFF722F8386108E0FFF71EF800
:101FA80002463B69D31A022B01D903237AE11D4B60
:101FB8001B6803F00203002BF0D17B681B6803F059
:101FC8000803002B3AD07B689B69002B19D0174B6C
:101FD80001221A60FFF702F8386108E0FEF7FEFFF9
:101FE80002463B69D31A022B01D903235AE10D4B50
:101FF8005B6A03F00203002BF0D0012000F0D8FA4E
:102008001CE00A4B00221A60FEF7E8FF38610FE077
:10201800FEF7E4FF02463B69D31A022B08D90323D3
:1020280040E100BF001002400000424280044242EA
:102038009E4B5B6A03F00203002BE9D17B681B68A7
:1020480003F00403002B00F0A6800023FB75974BD8
:10205800DB6903F08053002B0DD1944BDB69934A65
:1020680043F08053D361914BDB6903F08053BB602D
:10207800BB680123FB758E4B1B6803F48073002B30
:1020880018D18B4B1B688A4A43F480731360FEF7A0
:10209800A5FF386108E0FEF7A1FF02463B69D31AA5
:1020A800642B01D90323FDE0814B1B6803F4807383
:1020B800002BF0D07B68DB68012B06D17B4B1B6AB9
:1020C8007A4A43F0010313622DE07B68DB68002B3A
:1020D8000CD1764B1B6A754A23F001031362734BCC
:1020E8001B6A724A23F0040313621CE07B68DB68F6
:1020F800052B0CD16D4B1B6A6C4A43F00403136229
:102108006A4B1B6A694A43F0010313620BE0674B91
:102118001B6A664A23F001031362644B1B6A634A15
:1021280023F0040313627B68DB68002B15D0FEF7ED
:1021380055FF38610AE0FEF751FF02463B69D31AA2
:1021480041F28832934201D90323ABE0574B1B6A13
:1021580003F00203002BEED014E0FEF73FFF3861D6
:102168000AE0FEF73BFF02463B69D31A41F2883288
:10217800934201D9032395E04C4B1B6A03F00203F9
:10218800002BEED1FB7D012B05D1484BDB69474A7B
:1021980023F08053D3617B68DB69002B00F08180DA
:1021A800424B5B6803F00C03082B61D07B68DB694A
:1021B800022B46D13F4B00221A60FEF70FFF386111
:1021C80008E0FEF70BFF02463B69D31A022B01D940
:1021D800032367E0354B1B6803F00073002BF0D135
:1021E8007B681B6AB3F5803F08D1304B5B6823F4EA
:1021F80000327B689B682D4913434B602B4B5B680F
:1022080023F474127B68196A7B685B6A0B4327495D
:1022180013434B60274B01221A60FEF7DFFE38613B
:1022280008E0FEF7DBFE02463B69D31A022B01D910
:10223800032337E01D4B1B6803F00073002BF0D01D
:102248002FE01C4B00221A60FEF7C8FE386108E038
:10225800FEF7C4FE02463B69D31A022B01D90323B9
:1022680020E0124B1B6803F00073002BF0D118E03C
:102278007B68DB69012B01D1012313E00B4B5B6801
:10228800FB60FB6803F480327B681B6A9A4206D1C4
:10229800FB6803F470127B685B6A9A4201D00123E1
:1022A80000E0002318461837BD4680BD00100240E4
:1022B800007000406000424280B584B000AF786092
:1022C80039607B68002B01D10123D0E06A4B1B6881
:1022D80003F007033A689A4210D9674B1B6823F04A
:1022E800070265493B6813430B60634B1B6803F0A7
:1022F80007033A689A4201D00123B8E07B681B685B
:1023080003F00203002B20D07B681B6803F0040352
:10231800002B05D0594B5B68584A43F4E06353607F
:102328007B681B6803F00803002B05D0534B5B68E0
:10233800524A43F460535360504B5B6823F0F002F9
:102348007B689B684D4913434B607B681B6803F0AF
:102358000103002B40D07B685B68012B07D1474BFA
:102368001B6803F40033002B15D101237FE07B6841
:102378005B68022B07D1414B1B6803F00073002BED
:1023880009D1012373E03D4B1B6803F00203002BC6
:1023980001D101236BE0394B5B6823F003027B68B2
:1023A8005B68364913434B60FEF718FEF8600AE095
:1023B800FEF714FE0246FB68D31A41F288329342B4
:1023C80001D9032353E02D4B5B6803F00C027B68B3
:1023D8005B689B009A42EBD1274B1B6803F007030D
:1023E8003A689A4210D2244B1B6823F0070222490C
:1023F8003B6813430B60204B1B6803F007033A68E4
:102408009A4201D0012332E07B681B6803F0040381
:10241800002B08D0194B5B6823F4E0627B68DB680B
:10242800164913434B607B681B6803F00803002BB5
:1024380009D0124B5B6823F460527B681B69DB0090
:102448000E4913434B6000F021F802460B4B5B68C2
:102458001B0903F00F030A49CB5C22FA03F3094A6C
:102468001360094B1B681846FEF776FD00231846D3
:102478001037BD4680BD00BF00200240001002405A
:10248800E8750008080000200000002090B48AB019
:1024980000AF2A4B3C1D0FCB84E80F0040F201230C
:1024A8003B800023FB610023BB6100237B62002388
:1024B8007B6100233B62224B5B68FB61FB6903F095
:1024C8000C03042B02D0082B03D02DE01D4B3B62DC
:1024D8002DE0FB699B0C03F00F0307F1280213445E
:1024E80013F8243C7B61FB6903F48033002B13D081
:1024F800134B5B685B0C03F0010307F128021344DC
:1025080013F8283CBB617B690E4A02FB03F2BB69E6
:10251800B2FBF3F37B6204E07B690B4A02FB03F333
:102528007B627B6A3B6202E0064B3B6200BF3B6A10
:1025380018462837BD4690BC704700BFB8750008DC
:102548000010024000127A0000093D0080B400AF7C
:10255800024B1B681846BD4680BC70470800002027
:1025680080B500AFFFF7F2FF0246054B5B681B0A18
:1025780003F007030349CB5C22FA03F3184680BD36
:1025880000100240F875000880B500AFFFF7DEFFC5
:102598000246054B5B68DB0A03F007030349CB5C83
:1025A80022FA03F3184680BD00100240F8750008AF
:1025B80080B485B000AF78600A4B1B680A4AA2FB5A
:1025C80003235B0A7A6802FB03F3FB6000BFFB6826
:1025D8005A1EFA60002BF9D100BF00BF1437BD4660
:1025E80080BC704708000020D34D621080B586B0CB
:1025F80000AF786000233B610023FB607B681B68A9
:1026080003F00103002B7DD00023FB754F4BDB69E2
:1026180003F08053002B0DD14C4BDB694B4A43F040
:102628008053D361494BDB6903F08053BB60BB68BF
:102638000123FB75464B1B6803F48073002B18D1EC
:10264800434B1B68424A43F480731360FEF7C6FC91
:10265800386108E0FEF7C2FC02463B69D31A642BD6
:1026680001D903236DE03A4B1B6803F48073002BF8
:10267800F0D0364B1B6A03F44073FB60FB68002BF9
:102688002ED07B685B6803F44073FA689A4227D0BF
:102698002E4B1B6A23F44073FB602E4B01221A60F9
:1026A8002C4B00221A60294AFB681362FB6803F06E
:1026B8000103002B14D0FEF791FC38610AE0FEF705
:1026C8008DFC02463B69D31A41F28832934201D904
:1026D800032336E01D4B1B6A03F00203002BEED0E8
:1026E8001A4B1B6A23F440727B685B6817491343D3
:1026F8000B62FB7D012B05D1144BDB69134A23F0D8
:102708008053D3617B681B6803F00203002B08D059
:102718000E4B5B6823F440427B689B680B4913436C
:102728004B607B681B6803F01003002B08D0074B35
:102738005B6823F480027B685B69044913434B6040
:10274800002318461837BD4680BD00BF0010024060
:10275800007000404004424280B582B000AF78600B
:102768007B68002B01D101233FE07B6893F8393067
:10277800DBB2002B06D17B68002283F8382078680A
:1027880000F01EFC7B68242283F839207B681B68D4
:10279800DA687B681B6822F40052DA60786800F017
:1027A8000BF97B681B681A697B681B6822F49042E6
:1027B8001A617B681B685A697B681B6822F02A02C9
:1027C8005A617B681B68DA687B681B6842F40052B0
:1027D800DA607B680022DA637B68202283F839207C
:1027E8007B68202283F83A20002318460837BD4624
:1027F80080BD80B588B002AFF860B9603B60134611
:10280800FB8000237B61FB6893F83930DBB2202B17
:1028180040F08380BB68002B02D0FB88002B01D1DD
:1028280001237BE0FB6893F83830012B01D10223A8
:1028380074E0FB68012283F83820FB680022DA6321
:10284800FB68212283F83920FEF7C8FB7861FB6812
:10285800FA889A84FB68FA88DA8442E0FB68DB8CA1
:102868009BB2013B9AB2FB68DA84FB689B68B3F5BC
:10287800805F22D13B6800937B6900228021F86841
:1028880000F050F80346002B01D0032346E0BB6854
:102898003B613B691B881A46FB681B68C2F3080248
:1028A8005A60FB681B69002B03D1BB680233BB600D
:1028B80017E0BB680133BB6013E03B6800937B699A
:1028C80000228021F86800F02DF80346002B01D083
:1028D800032323E0BB685A1CBA601A78FB681B689C
:1028E8005A60FB68DB8C9BB2002BB7D13B68009326
:1028F8007B6900224021F86800F014F80346002B99
:1029080001D003230AE0FB68202283F83920FB6802
:10291800002283F83820002300E0022318461837E5
:10292800BD4680BD80B584B000AFF860B9603B603B
:102938001346FB712CE0BB69B3F1FF3F28D0BB699C
:10294800002B07D0FEF74AFB02463B68D31ABA6948
:102958009A421DD2FB681B68DA68FB681B6822F480
:10296800D072DA60FB681B685A69FB681B6822F042
:1029780001025A61FB68202283F83920FB68202273
:1029880083F83A20FB68002283F8382003230FE0FD
:10299800FB681B681A68BB681340BA689A420CBF88
:1029A80001230023DBB21A46FB799A42C3D00023E5
:1029B80018461037BD4680BD80B584B000AF78603A
:1029C8007B681B681B6923F440517B68DA687B6865
:1029D8001B680A431A617B689A687B681B691A43FB
:1029E8007B685B691343FB607B681B68DB6823F4C7
:1029F800B05323F00C037A681268F9680B43D3606C
:102A08007B681B685B6923F440717B689A697B6803
:102A18001B680A435A617B681B68524A93424ED12D
:102A2800FFF7B2FDB860BA6813469B0013449A00DA
:102A38001A447B685B689B00B2FBF3F34A4AA2FB2B
:102A480003235B091901BA6813469B0013449A00D3
:102A58001A447B685B689B00B2FBF3F2424BA3FB12
:102A680002035B09642000FB03F3D31A1B01323312
:102A78003D4AA2FB03235B0903F0F0031944BA683B
:102A880013469B0013449A001A447B685B689B00BA
:102A9800B2FBF3F2344BA3FB02035B09642000FB97
:102AA80003F3D31A1B0132332F4AA2FB03235B091A
:102AB80003F00F027B681B680A449A604DE0FFF739
:102AC8004FFDB860BA6813469B0013449A001A4435
:102AD8007B685B689B00B2FBF3F3234AA2FB0323EA
:102AE8005B091901BA6813469B0013449A001A44FB
:102AF8007B685B689B00B2FBF3F21B4BA3FB0203F2
:102B08005B09642000FB03F3D31A1B013233164A16
:102B1800A2FB03235B0903F0F0031944BA681346C8
:102B28009B0013449A001A447B685B689B00B2FBC5
:102B3800F3F20D4BA3FB02035B09642000FB03F3D4
:102B4800D31A1B013233084AA2FB03235B0903F0A3
:102B58000F027B681B680A449A6000BF1037BD46A5
:102B680080BD00BF003801401F85EB51B0B582B071
:102B780002AF1D4B1B881C461C4B1B881C4AA2FB22
:102B880003235B099BB21D46184B1B88184AA2FBFE
:102B980003125209642101FB02F29B1A9BB2154AE7
:102BA800A2FB0323DB089BB21846104B1A88114B73
:102BB800A3FB0213D9080B469B000B445B00D31AF6
:102BC8009BB2019300902B4622460B490B4800F01C
:102BD80077FB42F21073402208490948FFF709FEC3
:102BE80000BFBD46B0BD00BF480A00204A0A002009
:102BF8001F85EB51CDCCCCCCC87500084C0A002001
:102C0800080A002080B582B000AF78607B681B6836
:102C1800114A93421CD11148FEF7AEFB03469AB203
:102C28000F4B1A800E4B1B881A464FF4A57303FBF3
:102C380002F3002B01DA03F6FF731B139AB2094B58
:102C48001A80FFF793FF012204210748FFF79CF839
:102C580000BF0837BD4680BD00240140D8090020C8
:102C6800480A00204A0A00200018014080B500AF39
:102C7800FEF75CF900F018F800F0DCF800F072F8E4
:102C880000F0AEF80648FEF7C1FA00220421054814
:102C9800FFF77AF84FF47A70FEF7AAF9F2E700BF67
:102CA800D80900200018014080B596B000AF07F1A0
:102CB800300328220021184600F0B2FA07F11C035D
:102CC80000221A605A609A60DA601A613B1D00227D
:102CD8001A605A609A60DA601A615A6101233B638C
:102CE8004FF480337B630023BB6301233B640223DF
:102CF800FB644FF480333B654FF4E0137B6507F1C9
:102D080030031846FFF758F80346002B01D000F0AF
:102D1800DBF80F23FB6102233B6200237B624FF445
:102D28008063BB620023FB6207F11C030221184683
:102D3800FFF7C2FA0346002B01D000F0C5F80223C2
:102D48007B604FF40043FB603B1D1846FFF74EFCC9
:102D58000346002B01D000F0B7F800BF5837BD4636
:102D680080BD000080B584B000AF3B1D00221A6012
:102D78005A609A60184B194A1A60174B00229A60D9
:102D8800154B00221A73144B00221A75124B4FF47C
:102D98006022DA61104B00225A600F4B01221A613F
:102DA8000D48FEF749F90346002B01D000F08CF8D6
:102DB80000237B600123BB600023FB603B1D194699
:102DC8000548FEF7B1FB0346002B01D000F07CF864
:102DD80000BF1037BD4680BDD8090020002401403F
:102DE80080B500AF114B124A1A60104B4FF4E13214
:102DF8005A600E4B00229A600C4B0022DA600B4B93
:102E080000221A61094B0C225A61084B00229A6170
:102E1800064B0022DA610548FFF79EFC0346002BAB
:102E280001D000F051F800BF80BD00BF080A0020A3
:102E38000038014080B588B000AF07F110030022C8
:102E48001A605A609A60DA601D4B9B691C4A43F00D
:102E5800400393611A4B9B6903F04003FB60FB68D6
:102E6800174B9B69164A43F010039361144B9B69F7
:102E780003F01003BB60BB68114B9B69104A43F019
:102E8800040393610E4B9B6903F004037B607B682A
:102E9800002204210B48FEF777FF04233B6101233E
:102EA8007B610023BB610223FB6107F11003194614
:102EB8000448FEF7D5FD00BF2037BD4680BD00BFE2
:102EC800001002400018014080B400AF00BFBD46AA
:102ED80080BC704780B485B000AF154B9B69144A1D
:102EE80043F001039361124B9B6903F00103BB603C
:102EF800BB680F4BDB690E4A43F08053D3610C4B20
:102F0800DB6903F080537B607B680A4B5B68FB607E
:102F1800FB6823F0E063FB60FB6843F00073FB6031
:102F2800044AFB68536000BF1437BD4680BC704735
:102F3800001002400000014080B588B000AF786002
:102F480007F1100300221A605A609A60DA607B6801
:102F58001B68184A934229D1174B9B69164A43F4B8
:102F680000739361144B9B6903F40073FB60FB6867
:102F7800114B9B69104A43F0040393610E4B9B6904
:102F880003F00403BB60BB6801233B6103237B613F
:102F980007F1100319460948FEF762FD00220021D7
:102FA8001220FEF726FD1220FEF73FFD00BF203756
:102FB800BD4680BD002401400010024000080140C9
:102FC80080B588B000AF786007F1100300221A605E
:102FD8005A609A60DA607B681B681C4A934231D158
:102FE8001B4B9B691A4A43F480439361184B9B69B6
:102FF80003F48043FB60FB68154B9B69144A43F05C
:1030080004039361124B9B6903F00403BB60BB6824
:103018004FF400733B6102237B610323FB6107F1DB
:10302800100319460B48FEF71BFD4FF480633B6104
:1030380000237B610023BB6107F110031946054893
:10304800FEF70EFD00BF2037BD4680BD00380140A9
:10305800001002400008014080B400AF00BFBD4628
:1030680080BC704780B400AFFEE780B400AFFEE7D5
:1030780080B400AFFEE780B400AFFEE780B400AFD5
:1030880000BFBD4680BC704780B400AF00BFBD46DE
:1030980080BC704780B400AF00BFBD4680BC70479D
:1030A80080B500AFFDF788FF00BF80BD80B500AFD9
:1030B8000248FEF76DF900BF80BD00BFD8090020A7
:1030C80080B584B000AF7860114B1B68002B02D12B
:1030D8000F4B104A1A600E4B1B68FB600C4B1A68AA
:1030E8007B6813446A46934207D900F06FF8034699
:1030F8000C221A604FF0FF3306E0054B1A687B6814
:103108001344034A1360FB6818461037BD4680BD58
:103118008C0A0020F00A002080B400AF154B1B6811
:10312800144A43F001031360124B5A681149124BB9
:1031380013404B600F4B1B680E4A23F0847323F433
:10314800803313600B4B1B680A4A23F480231360F7
:10315800084B5B68074A23F4FE035360054B4FF4A2
:103168001F029A60054B4FF000629A6000BFBD468F
:1031780080BC7047001002400000FFF800ED00E03E
:10318800002103E00B4B5B58435004310A480B4BBA
:1031980042189A42F6D30A4A02E0002342F8043B56
:1031A800084B9A42F9D3FFF7B7FF00F015F8FFF77D
:1031B8005DFD70479C78000800000020B8090020D9
:1031C800B8090020EC0A0020FEE70000014B18684F
:1031D800704700BF0C00002070B50D4E0D4D761BDA
:1031E800B61006D0002455F8043B01349847A6428F
:1031F800F9D1094E094D04F0CFF9761BB61006D067
:10320800002455F8043B01349847A642F9D170BD13
:10321800907800089078000898780008907800085E
:10322800F0B4860746D0541E002A3CD00346CAB2E2
:1032380001E0013C37D303F8012B9D07F9D1032C9A
:103248002AD9CDB245EA05250F2C45EA054534D9DA
:10325800A4F1100222F00F0C03F1200716096744AD
:1032680003F1100242E9045542E902551032BA420C
:10327800F8D1721C14F00C0F03EB021204F00F06C5
:1032880013D0331F23F003030433134442F8045BC1
:103298009342FBD106F003042CB1CAB21C4403F8D4
:1032A800012B9C42FBD1F0BC704734461346002CDE
:1032B800F3D1F8E714460346C1E71A462646E0E785
:1032C8000EB4014630B56FF000449CB01FAB0B48FC
:1032D80053F8042B0A4D02910691006802A9019344
:1032E800CDE90445079400F00DF80022029B1A70FE
:1032F8001CB0BDE8304003B0704700BF0C00002090
:103308000802FFFF2DE9F04FD7B08B4617460E9302
:10331800814602F0F3FE03681846189303F06AFD2D
:10332800BBF80C3017901D0604D5DBF81030002BC5
:1033380000F0DF87002300210022CDE92B33CDE9FF
:103348001A33CDE91C33139319930A932DAB98467E
:103358002A933B78DA46CDE91412002B00F0A481B9
:103368003C4604E014F8013F002B00F0FD80252BBB
:10337800F8D1E51B40F0FB802378002B00F0948106
:1033880000230B938DF88B3007934FF0FF3366784B
:1033980004F1010B20212B2409930BF1010BA6F159
:1033A80020035A2B00F2FF80DFE813F0BC02FD0077
:1033B800FD00B502FD00FD00FD009102FD00FD00CD
:1033C8006A00E702FD003402CD02FD00C6025B0080
:1033D8005B005B005B005B005B005B005B005B000D
:1033E800FD00FD00FD00FD00FD00FD00FD00900159
:1033F800FD00F7017C00900190019001FD00FD00A7
:10340800FD00FD008A02FD00FD00A900FD00FD0091
:10341800FD000B02FD003B02FD00FD008107FD00E1
:10342800FD00FD00FD00FD00FD00FD00FD00900118
:10343800FD00F7018000900190019001800280005A
:103448007500FD007602FD005E02AD004C027500BD
:10345800FD000B0272005B07FD00FD005F07FD0029
:1034680072000022A6F130031BF8016B02EB820206
:1034780003EB4202A6F13003092BF5D90B928EE734
:103488000E9B53F8042B002A0B920E93C0F2BF81B7
:103498009BF8006081E7079B9BF8006043F02003DE
:1034A80007937AE7079B43F010030793079B9C0653
:1034B80040F162810E9B073323F007031946F1E8B8
:1034C800022314461D460E91002A73F10003C0F230
:1034D800AB85099B0133079B00F0148423F080031C
:1034E80054EA0502089340F00E84099A002A40F035
:1034F8000F840793002356AF09930C936BE2079B45
:1035080043F010030793079B9A0640F126810E9B10
:10351800073323F00703F3E802450E93079B23F4D0
:1035280080630893002300228DF88B20099A1146A6
:10353800013100F03182089921F08001079154EAA5
:10354800050140F02782002A40F07D83002BD1D16D
:10355800089B13F001030C9300F0908530230DF2C3
:1035680057178DF8573136E2E51B00F09D80DDE9ED
:103578002B3201332A44072BC8E90075CDE92B32D9
:1035880006DC08F108080A9A23782A440A92F4E625
:10359800514648462AAA03F08FFC002841F0CE8302
:1035A8000DF1B408EFE7002E7ED0002301211A4662
:1035B80008918DF8F4608DF88B300D930993129370
:1035C800169310930C913DAF079B13F0020302D0A2
:1035D800089902310891079911F084010F9105D1DA
:1035E8000B9908980D1A002D00F34B832C9C72B18F
:1035F80001202B9A044402440DF18B01072ACDE9DE
:103608002B24C8E9001000F3CD8308F108086BB13A
:1036180002212B9B0C44013323AA072BCDE92B3421
:10362800C8E9002100F3CC8308F108080F9B802B20
:1036380000F03482099B0C9A9D1A002D00F36E82CB
:10364800079BD90500F1D5812B9B0C9A01331444B3
:10365800072BC8E900722C942B9300F3978308F189
:103668000808079B590705D50B9B089A9D1A002D3A
:1036780000F3B283DDE90A3208998A42ACBF9B188D
:103688005B180A93002C40F07D8200232B930D9B3E
:103698001BB148460D9902F02BFC5F460DF1B408AA
:1036A8003B78002B7FF45CAE2C9BD346002B41F07B
:1036B8004B82BBF80C3013F0400F0A9B18BF4FF039
:1036C800FF330A930A9857B0BDE8F08F0E9B073373
:1036D80023F007031946F1E80223CDE91423DDE9B5
:1036E800143424F000441D4618460E914FF0FF3262
:1036F8002146A44BFDF760FA002840F0D9842846FB
:1037080021464FF0FF329F4BFDF738FA002840F072
:10371800CF84DDE9140100220023FDF725FA0028F3
:1037280041F00E809DF88B2003200021964F974B87
:1037380008900D91472EC8BF1F46079C0C9024F097
:10374800800407940991129116911091002A3FF470
:103758003BAF089B0133089336E7079BDB0600F174
:103768009C84079B5F0640F1B2870E9B002553F8A7
:10377800044B0E93A4B2D1E6079BD80600F16885E6
:10378800079B590640F1BE870E9B53F8044B24B2A1
:10379800E5170E9322462B4696E6002101240E9B40
:1037A8000A4653F8040B0894CDE90D138DF88B10D5
:1037B8008DF8F40009911291169110910C943DAF77
:1037C80002E700250E9C8DF88B5054F8047B002FDF
:1037D80000F09F85099A1346013300F07087294647
:1037E800384602F041FF0D90002801F0B9802B46C1
:1037F8000D9A0995D21B0C9222EAE27208920E9455
:103808009DF88B200D931293169310939EE70B9BB4
:103818005B420B93079B9BF8006043F004030793FC
:10382800BBE5079B43F010030893089B9D0640F1F6
:10383800EA830E9B073323F00703F3E802450E9350
:10384800012370E647F630020E9B079953F8044BA4
:1038580041F002010E934E4B00251993782602235E
:103868000891ADF88C205EE6079B9D0600F1088460
:10387800079BDC0600F1E186079B580600F1958757
:10388800079B990540F1D9860E9B0A9953F8042B9A
:103898005F4611700E9303E79BF80060079B6C2E40
:1038A80000F0088543F01003079376E59BF8006065
:1038B800079B682E00F0078543F0400307936CE5EB
:1038C800079B9BF8006043F00803079365E54846AB
:1038D80002F014FC436818461C9303F08BFA034665
:1038E80048461D461D9302F009FC826820211A9261
:1038F800002D3FF4CDAD1A9B002B3FF4C9AD1A9BA8
:103908001B78002B3FF4C4AD079B9BF8006043F481
:103918008063079341E5079B9BF8006043F0010330
:1039280007933AE59DF88B30002B7FF4B1AD9BF8F7
:1039380000608DF88B1030E5079B9BF8006043F022
:103948008003079329E55A4612F8016B2A2E01F0E5
:103958005182A6F13003092B934698BF002201F249
:10396800EF801BF8016B02EB820203EB4202A6F127
:103978003003092BF5D9099211E59BF800608DF801
:103988008B400AE5FFFFEF7F047600080876000801
:1039980014760008079A0892012B00F0B481022BD4
:1039A80000F0598156AFE20842EA4572E90804F08E
:1039B80007030D461446303354EA05013A4607F822
:1039C800013DF0D108990846C00700F1B88256AB0E
:1039D800DB1B07910C93002309990D9312931693FF
:1039E80010930C9B9DF88B208B42B8BF0B46089315
:1039F800ACE6652E40F3D880DDE9140100220023EF
:103A0800FDF7A8F8002800F01E8201212B9BC54A6B
:103A18000B440C44072BCDE92B34C8E9002100F3F3
:103A2800BB8508F10808249B139A934280F22183EE
:103A38002B9B179A013318991444072BC8E90012D5
:103A48002C942B9300F3488408F10808139B5D1EFF
:103A5800002D7FF706AE102D40F3C785B24F102614
:103A68002B9B0F9705E008F10808103D102D40F337
:103A7800BF8501331034072BCDE92B34C8E9007614
:103A8800F1DD514648462AAA03F016FA002840F00C
:103A98008180DDE92B340DF1B408E6E70B9B089A29
:103AA8009D1A002D7FF7C6AD102D41F369809E4801
:103AB8002146102304462B9A0F9004E0103D102D48
:103AC80008F1080817DD01321031072ACDE92B214A
:103AD800C8E90043F2DD514648462AAA03F0ECF94A
:103AE800002857D1DDE92B21103D102D4FF0100390
:103AF8000DF1B408E7DC0C4601320F9B2C44072A71
:103B0800CDE92B24C8E9003500F38A85099B0C9A76
:103B180008F108089D1A002D7FF792AD102D40F38B
:103B28000A8681482146102304462B9A0F9004E008
:103B3800103D102D08F1080816DD01321031072A52
:103B4800CDE92B21C8E90043F2DD514648462AAAAF
:103B580003F0B2F9F0B9DDE92B21103D102D4FF03B
:103B680010030DF1B408E8DC0C4601320F9B2C441D
:103B7800072ACDE92B24C8E9003500F3378208F17C
:103B880008085DE5514648462AAA03F095F9002839
:103B98003FF47BADD3460D9B002B3FF48AAD4846DE
:103BA8000D9902F0A5F984E5139B012B40F3D5810B
:103BB80001232B9D1C441D44072D2C94C8F800702C
:103BC8002B95C8F8043000F33A8208F10808179BCF
:103BD8000135189A1C44072DCDE92B54C8E9002358
:103BE80000F33A8208F108080023DDE914010022F5
:103BF800FCF7B0FF139B002840F0CD81013B013555
:103C080001371C44072DCDE92B54C8F80070C8F8BB
:103C1800043000F3DC8408F108081B9A01351444C9
:103C280026AB072DCDE92B54C8E900327FF717AD35
:103C3800514648462AAA03F03FF90028AAD12C9CED
:103C48000DF1B4080DE5012B00F0CA87022B079B84
:103C580008937FF4A7AE199856AF230943EA057372
:103C6800290904F00F020D461C46835C07F8013D44
:103C780054EA0503F1D1089B079356ABDB1B0C9361
:103C8800A9E6102D40F36886DDE92B211E930B462B
:103C98003946102437465646CA46894604E0103D40
:103CA800102D08F1080817DD013220491033072AC2
:103CB800CDE92B23C8E90014F1DD314650462AAA84
:103CC80003F0FAF8002840F05884DDE92B23103D72
:103CD800102D0DF1B408E7DC4846D146B2463E4601
:103CE800074619461E9B4C1901321049072ACDE98F
:103CF8002B24C8E9001500F31F849DF88B2008F1D8
:103D0800080874E40893002D08BF0A2C80F0D083BB
:103D1800089B3034079301238DF857410C930DF21B
:103D2800571758E644760008587600084876000881
:103D3800514648462AAA03F0BFF800287FF42AAF64
:103D4800249A2C9C0DF1B408002A40F07F84079B2C
:103D5800139A03F0010313433FF483AC2B9B179A88
:103D6800013318991444072BC8E900122C942B939B
:103D780000F3248508F10808139A01331444072B2B
:103D8800CDE92B34C8E900727FF769AC5146484643
:103D98002AAA03F091F800287FF4FCAE2C9C0DF1C0
:103DA800B4085EE4514648462AAA1E9303F084F8F4
:103DB80000287FF4EFAE2C9C1E9B0DF1B40826E47E
:103DC800514648462AAA03F077F800287FF4E2AE65
:103DD8002C9C0DF1B40829E4102D40F3BE86102662
:103DE8002B9B04E0103D102D08F1080817DD013366
:103DF800AD4A1034072BCDE92B34C8E90026F1DD94
:103E0800514648462AAA03F057F800287FF4C2AE64
:103E1800DDE92B34103D102D0DF1B408E7DC01333A
:103E2800A14A2C44072BCDE92B34C8E900257FF79C
:103E380021AC514648462AAA03F03EF800287FF4F0
:103E4800A9AE2C9C16E4249A002A40F38683109B82
:103E5800139A9342A8BF1346002B1D460BDD2B9BDC
:103E68002C440133072BC8E900752C942B9300F3DD
:103E78001E8508F10808109B002DA8BF5B1B002BAE
:103E88001D4600F35682109B3B441E46079B5B056C
:103E980000F17782249B139A934203DB079AD50794
:103EA80040F17A842B9A1799013218980C44072A02
:103EB800C8E900012C942B9200F3068508F1080844
:103EC800139ABD18AD1BD31A9D42A8BF1D46002DDD
:103ED8000BDD2B9A2C440132072AC8E900652C9483
:103EE8002B9200F35F8508F10808002DB4BF1D462A
:103EF8005D1B002D7FF7B5AB102D40F376836B4F1C
:103F080010262B9B0F9705E008F10808103D102D8F
:103F180040F36E8301331034072BCDE92B34C8E905
:103F28000076F1DD514648462AAA02F0C5FF00286E
:103F38007FF430AEDDE92B340DF1B408E6E7302B21
:103F48003FF499AE3023023A07F8013C089956AB82
:103F58009B1A174607910C933DE5079BD8073FF539
:103F680027AE01232B9D1C441D44072D2C94C8F813
:103F780000702B95C8F804307FF74DAE514648467F
:103F88002AAA02F099FF00287FF404AEDDE92B5439
:103F98000DF1B40841E65E1E002E7FF73EAE102EEE
:103FA80040F31E87414BCDF824B01027D3460F931A
:103FB800CA46994605E008F10808103E102E40F35D
:103FC800F88201351034072DCDE92B54C8E9009744
:103FD800F1DD594650462AAA02F06EFF002840F04B
:103FE800CC85DDE92B540DF1B408E6E75146484687
:103FF8002AAA02F061FF00287FF4CCAD2C9C0DF1B9
:10400800B408FFF71DBB089BDC0600F11981089B6B
:10401800580640F168830E9A012352F8044B002594
:104028000E92A4B2FFF77FBA2D23079A64428DF847
:104038008B3065EB450501230892FFF777BA5146A7
:1040480048462AAA02F038FF00287FF4A3ADDDE92C
:104058002B540DF1B408BAE5514648462AAA02F095
:104068002BFF00287FF496ADDDE92B540DF1B40841
:10407800BAE5079BDA077FF5F4AAD9E456AFAAE4B4
:104088000E9B5F4653F8041B0E930A9BDD171A46D6
:104098002B46C1E90023FFF703BB0E9B002553F80D
:1040A800044B0E93FFF73ABA487600085876000892
:1040B800DDE914010B460246FCF77EFD01460028A7
:1040C80040F04386612E00F08685412E00F07A8408
:1040D800099B26F020055A1C089500F07D83472D82
:1040E80000F09E85DDE91401079B43F48073129369
:1040F8000B46002BC0F2BA8500220F931E920D9238
:104108000C90462D0C9A00F00784452D4FF00200C4
:104118000F9B40F0E783099900904C1C28A925A81B
:10412800049124A9CDE902100194484600F034FF17
:1041380007460444129B079D0793002200230C980E
:104148000F99FCF707FD002800F098832346DB1B36
:104158001393089B472B00F05E83089B462B00F0C7
:104168000B84249B1093109B089A013B412A2493AB
:1041780000F0AD850021F2B2002B8DF89820B6BF73
:104188002D222B22109B8DF89920B8BFC3F1010373
:10419800092B40F3A2850DF1A70E72469C46BF4C31
:1041A8006046114684FB0C234FEAEC72C2EBA30273
:1041B80002EB8203ACEB430330336328944601F8E7
:1041C800013C01F1FF32EBDC63463033D8B28B1E81
:1041D8009E4502F8010C40F22C860DF19A0301E08D
:1041E80012F8010B964503F8010BF9D10DF1A9035B
:1041F8000DF19A025B1A134426AA9B1A1B93139B70
:104208001B9A012B1A440C9240F3CC850C9B179AED
:1042180013440C9300231293169310930C9B25F4CC
:10422800806545F4807223EAE373079208931E9B26
:10423800002B40F017839DF88B200993FFF786BA6F
:104248000E9A012352F8044B00250E92FFF76BB922
:104258000E9B53F8044BE5170E9322462B46FFF7A7
:1042680033B9079B0893FFF7E0BA8D4B1993079B67
:10427800990640F1FE800E9B073323F00703F3E80D
:1042880002450E93079AD7070AD554EA050307D0C3
:10429800302342F002028DF88D6007928DF88C3041
:1042A800079A022322F480620892FFF73CB97D4BFB
:1042B8001993DCE743F020039BF8016007930BF1A7
:1042C800010BFFF76AB843F400739BF8016007938A
:1042D8000BF1010BFFF761B8514648462AAA02F0D4
:1042E800EBFD00287FF456AC2C9C0DF1B408FFF7C9
:1042F800ADBB4021484601F009FFCBF80000CBF8E0
:104308001000002800F08D854023CBF81430FFF70B
:1043180011B8099B3A46062B28BF0623099712971E
:10432800169710970D9708935F4F0E940C93FFF70D
:104338000DBA102B40F3588551465C4ACA46099776
:104348001026174689462B9B0F9205E008F10808AE
:10435800103D102D40F3FA8101331034072BCDE9BD
:104368002B34C8E90076F1DD494650462AAA02F006
:10437800A3FD002840F0FD83DDE92B340DF1B408DE
:10438800E6E7139B4246DDF85880FB180993CDF801
:1043980030B00F972046DDF874B01A9F129BB8F121
:1043A800000F2DD07BBB013F08F1FF382B9B1C99D8
:1043B80001335844072BC2E9001B2C902B9362DC75
:1043C800083209993B788D1B9D42A8BF1D46002DD8
:1043D8000BDD2B9B28440133072BC2E900652C9089
:1043E8002B9300F311813B780832002DB4BF1D4692
:1043F8005D1B002D0BDC1E44129BB8F1000FD1D1C0
:10440800002B00F0F981129B013B1293CEE7102D8F
:1044180040F3C5842B9910240B4604E0103D102D61
:1044280002F1080216DD013320491030072BCDE9CF
:104438002B30C2E90014F1DD514648462AAA02F0A1
:104448003BFD00287FF4A6ABDDE92B30103D102D95
:104458002DAAE8DC19464B1C14492844072BCDE942
:104468002B30C2E9001500F315823B7808321E4450
:10447800C2E7079BDA0640F184800E9B002553F8BB
:10448800044B0E93FEE6514648462AAA02F014FD54
:1044980000287FF47FAB2C982DAA92E767666666A2
:1044A80014760008287600083C760008587600083C
:1044B8000022089BCDF81CB003F480630C96CDF85D
:1044C80034A09346CA461E46C14656AFDDF86880FA
:1044D8000BE00A22002320462946FCF7ABFB002DFF
:1044E80008BF0A2C1BD304460D460A220023204687
:1044F8002946FCF79FFB303207F8012C0BF1010B22
:10450800013F002EE5D098F800309B45E1D1BBF182
:10451800FF0FDED0002D08BF0A2C80F02881CDF8CF
:104528006880CDF84CB0C8460C9ED146DDF81CB06A
:10453800DDF834A0FFF79FBB514648462AAA1E93D0
:1045480002F0BAFC00287FF425AB9DF88B202C9C48
:104558001E9B0DF1B408FFF74AB801202B9BC549F3
:1045680003440444072BCDE92B34C8E900103FF776
:10457800DFAB08F10808FFF7E7BBD146B346FFF702
:104588000ABB079B5B0640F1CB800E9B002553F8C6
:10459800044B0E93A4B275E6514648462AAA02F087
:1045A8008BFC00287FF4F6AA2C9C0DF1B408FFF7C9
:1045B8003ABAD146DA46DDF824B001350F9B3444C7
:1045C800072DCDE92B54C8E900367FF724AB5146B7
:1045D80048462AAA02F070FC00287FF4DBAADDE92D
:1045E8002B540DF1B408FFF718BBA34A2B9B0F926D
:1045F80001330F9A2C44072BCDE92B34C8E9002549
:104608007FF72DA8FFF7C2BB514648462AAA02F0F9
:1046180053FC00287FF4BEAA3B782C982DAAE4E628
:10462800514648462AAA02F047FC00287FF4B2AA5D
:104638002C9C0DF1B408FEF7FDBF0E9B0A9953F8A8
:10464800042B5F4611600E93FFF72AB82B9B17992E
:10465800013318980C44072BC8E900012C942B93BC
:1046680000F3AC8008F10808002ABFF685AB554274
:10467800103280F2D38351467F4ACA4609971026E2
:10468800174689460F9205E008F10808103D102DDD
:1046980040F3AA8201331034072BCDE92B34C8E943
:1046A8000076F1DD494650462AAA02F005FC0028AA
:1046B80040F05F82DDE92B340DF1B408E6E73846B7
:1046C80002F098FB2B4602460995FFF794B8079B22
:1046D800002513F4007F0E9B53F8044B0E9318BF6C
:1046E800E4B2FEF71BBF0E9A089B52F8044B13F472
:1046F800007F4FF000054FF001030E9218BFE4B29F
:10470800FEF711BF079B13F4007F0E9B53F8044B71
:1047180018BF64B2E5170E9322462B46FEF7D4BEA7
:10472800079B002513F4007F0E9B53F8044B0E9350
:1047380018BFE4B2A6E5504B2B9A0F93FFF715BAB2
:104748002D231A468DF88B30FEF7EEBF4A46D14628
:104758009246099F01330F9A2C44072BCDE92B343D
:10476800C8E900253BDC08F10808FFF78CBB1D9B56
:104778001C99FF1A1A46384602F06AFB98F801306D
:104788000BB108F101080A22002320462946FCF74C
:1047980051FA4FF0000BA6E6139ABD18AD1BD31AB9
:1047A8009D42A8BF1D46FFF7A0BB0E9B0A9953F870
:1047B800042B5F4611800E93FEF772BF51464846A0
:1047C8002AAA02F079FB00287FF4E4A9DDE92B345A
:1047D800249A0DF1B40847E70623099382E4514669
:1047E80048462AAA02F068FB00287FF4D3A92C9C2B
:1047F8000DF1B408FFF747BB139B1A970F9F90461C
:10480800FB189E42324628BF1A4604461646DDF873
:1048180030B0FFF73FBB249BD81C109302DB099AEA
:10482800934204DD023E26F0200308939BE4109B8C
:1048380013998B42C0F27A81EA0740F18382179A72
:1048480013440C936E0540F17782109B002B00F304
:10485800108267260C9B23EAE373089300231293C4
:104868001693E4E42D2200238DF88B200993FEF79C
:1048780070BF00BF4476000858760008289BA34202
:10488800BFF465AC30215A1C28921970289B9C42B1
:10489800F9D85CE4514648462AAA02F00DFB0028E4
:1048A8007FF478A93B782C982DAA1E44A4E551469C
:1048B80048462AAA02F000FB00287FF46BA92C9C2A
:1048C8000DF1B408FFF7D7BA514648462AAA02F0B4
:1048D800F3FA00287FF45EA9249B2C9C0DF1B40800
:1048E800FFF7EEBA099C28A9CDE90004049125A890
:1048F80024A9CDE90210484600F04EFB472D074693
:1049080019D1079D2B46DB0700F12A81129A289BB3
:104918000792472208921AE40320099C28A9CDE9A6
:104928000004049125A824A9CDE902100F9B48464C
:1049380000F032FB0746099B462D07EB03047FF482
:10494800F9AB3B78302B00F01C82249B129A079D10
:104958001C440792FFF7F1BBDDE92B21FFF7C3B930
:10496800099B9DF88B2008930C9309900E94129044
:1049780016901090FEF7EABE249A002A109240F38F
:104988001B82099905F001030B4340F09A816626C2
:10499800109B0C936A0500F16D810C9B23EAE3736D
:1049A80008935BE7514648462AAA02F085FA002890
:1049B8007FF4F0A8249B139A2C9C0DF1B408D31A09
:1049C800FFF793BA30238DF88C3058238DF88D304B
:1049D800079B43F00204099B632B00F3F28000233A
:1049E8003DAF0D93079BDDE9141243F481731293D5
:1049F8001346002B26F020050794C0F28D800F93F4
:104A0800002308950C911E93612E00F07D81412EA4
:104A18007FF477AB24AA0C980F9902F0A1F9002231
:104A28004FF07F53FBF72EFE04460D46002200236D
:104A3800CDE91045FCF78EF808B101232493AE4B5D
:104A48000C93099BCDF83CB0013B1396CDF87C90B4
:104A5800CDF880A02197BA46DDE910679946DDF8C0
:104A680030B0CDF8588006E000220023FCF772F839
:104A780009F1FF39E8B90022A04B30463946FBF767
:104A880001FE0D460446FCF7ADF88046FBF790FDA5
:104A98000B46024629462046FBF73CFC1BF808302B
:104AA800B9F1FF3F554606460F464C460AF8013B0A
:104AB800DAD1304639460022914BDDF83CB0139EDE
:104AC800CDF83CA0CDF84C80CDE91001DDE91F9A66
:104AD800DDF85880219FFCF765F8002855D1DDE9FD
:104AE80010010022864BFCF735F810B1139BDB0749
:104AF8004BD4002C08DB30220F99631C0B4401F8BF
:104B0800012B8B42FBD10F910F9B079DDB1B13934E
:104B1800129B0793FFF71DBB08952D23DDE914129F
:104B28001E9302F100430C910F936DE7139B179AA4
:104B38009A18109B0C92002B40F31A81672629E7DC
:104B480000230993FEF72BBC484651462AAA02F0D7
:104B5800B3F9BAF80C30FEF7AEBD2B9BFFF75FB97F
:104B6800099B079DFC18129B079347230893FFF79F
:104B7800E4BACB46D146FFF70EB8D146FFF70BB8DB
:104B8800604B2B9A0F93FEF7B7BF0F9B0C99289594
:104B980013F8012CC97B8A4240F02A81302003F89F
:104BA800010C289B5A1E289213F8012C9142F6D02A
:104BB800392A0BBF0C9A0132927AD2B203F8012C2F
:104BC800A2E74846591C01F0A1FA0746002800F060
:104BD8001D810D9006E730238DF88C307823F5E69B
:104BE800079B0893FFF794B84A46D1469246099F17
:104BF80001330F9A2C44072BCDE92B34C8E9002543
:104C08007FF7B8A8514648462AAA02F055F9002865
:104C18007EF4C0AFDDE92B340DF1B408FFF7ACB872
:104C2800002B08BF01230993079B43F48073129359
:104C3800159B002B0C93C0F2BD800224099D28A867
:104C480025AA24ABCDE90320CDE90045DDE91445CB
:104C5800029322462B4648461E9100F09DF90C9B74
:104C680007460F931E9B0C940D934AE600230D9361
:104C780053E767261A990B78FF2B00F0DE80002493
:104C8800109A204603E001300131FF2B08D09342EF
:104C980006DAD21A4B78002BF5D10B780134F4E7F9
:104CA8001A91109216901294129A169B0C9913440A
:104CB8001D9A02FB03130C9323EAE3730893FFF78F
:104CC800B6BA179B6626D31819440C9162E606F10A
:104CD8000F020121D2B2FFF74FBA002967D1302263
:104CE8008DF89A200DF19B02303302F8013B26AB78
:104CF800D31A1B93FFF783BA2876000800003040C8
:104D08000000E03F5876000824AA0C980F9902F09A
:104D180027F800224FF07F53FBF7B4FC04460D46FA
:104D280000220023CDE91045FBF714FF08B1012349
:104D38002493444B0C9384E667262EE6BAF80C308D
:104D4800FEF7B9BC109B0C937CE5159B0320002B48
:104D5800B8BF2D234FF00001BABF1A468DF88B302B
:104D68009DF88B20384F394B08900D91FEF7E2BC27
:104D7800C3F101031A4422EAE27367260C920893EE
:104D88006CE5002200230C980F99FBF7E3FE00283E
:104D98007FF4DBAD099BC3F101032493D6E52B997E
:104DA800FFF759BBE9077FF535AAFFF72FBA0DF1D1
:104DB8009A0299E70D90B0E6099A05F001051346A5
:104DC8002B4304D10123662608930C9346E5179BD1
:104DD800662601331A4422EAE2730C9208933DE5F1
:104DE8001B4B0F93FFF7E9BB194A2B9B0F92B1E4BA
:104DF8000F9BDDE60E9B9BF8016053F8040B93466E
:104E080040EAE07009900E93FEF7C7BABAF80C3082
:104E180043F04003AAF80C30FEF74DBC0C4A0F9241
:104E2800E6E60C234FF0FF32C9F800300A92FEF78D
:104E380049BC02231B93FFF7E2B900231293169390
:104E480032E700BF147600080C76000810760008D8
:104E580058760008024B13B1024800F005B87047B5
:104E6800000000002D5E0008002301461A4618467F
:104E780002F09EB82DE9F04F03690D6983B0AB428B
:104E8800C0F28480013D01F1140600F1140956F8BE
:104E9800253059F8252001338E46A90000919A4201
:104EA80009EB85018246B2FBF3F706EB8508019111
:104EB80037D30022B446144648465CF8043B0168E0
:104EC8001FFA83FB07FB0B221B0C4FEA124B07FB55
:104ED80003BB93B2E31A8AB21FFA8BF41344C4EBF0
:104EE800114404EB23449BB243EA0443E04540F8F1
:104EF800043B4FEA24444FEA1B42DED2009B59F898
:104F0800033073B9019B043B994504D307E09945E5
:104F180005F1FF3503D253F80429002AF7D0CAF85F
:104F280010507146504601F00DFE00282ADB484615
:104F38000023013756F8041B04688AB29A1A0B0C2E
:104F4800A1B20A44C3EB144303EB224392B242EAF0
:104F58000342B04540F8042B4FEA2343EAD259F8FC
:104F6800252009EB85036AB9043B994504D307E07A
:104F7800994505F1FF3503D253F80429002AF7D0E3
:104F8800CAF81050384603B0BDE8F08F002003B0CF
:104F9800BDE8F08F000000002DE9F04F16461F46CF
:104FA800016C9BB00446CDE90467279D41B10123FC
:104FB800426C9340C1E9012301F0C8FB002323643C
:104FC800B7F10009B4BF012300232B60764BBCBFA7
:104FD80029F00049CDF8149033EA090300F0AB80BA
:104FE800DDE904231046194600220023CDE9060115
:104FF800FBF7B0FD804670B10123269A1360289B09
:10500800002B00F0C58269481860431E039303987B
:105018001BB0BDE8F08F18AA19ABCDE90032DDE965
:105028000623204601F048FE5FEA1955824640F003
:105038009880DDE91885454405F23240202840F380
:105048008983C0F1400305F2124009FA03F926FAF0
:1050580000F049EA0000FBF79BFA0122013D10929B
:10506800A1F1F8710022524BFBF754F948A3D3E998
:105078000023FBF707FB48A3D3E90023FBF74CF910
:10508800064628460F46FBF793FA45A3D3E90023C3
:10509800FBF7F8FA02460B4630463946FBF73CF96F
:1050A80006460F46FBF79EFD002283460023304646
:1050B8003946FBF759FD002840F05D82BBF1160F19
:1050C80000F24B82DDE906013A4B03EBCB03D3E94F
:1050D8000023FBF749FD002872D00023A8EB050543
:1050E800B5F101090BF1FF3B0D9300F13E8200235E
:1050F8000993BBF1000F6BDA099BCDF820B0A3EB45
:105108000B030993CBF100030C93249B4FF0000B86
:10511800092B65D8052B40F31B830025043B2493FA
:10512800249B023B032B00F26286DFE813F03B046A
:1051380038042F040F0442F20F73269AC9F3130997
:10514800136059EA06031CD1289B002B00F0468601
:10515800194B03930833289A039813601BB0BDE8D2
:10516800F08FDDE90612C2F31303084643F07F51BE
:10517800CDF84080A5F2FF35DDF8608041F440119C
:1051880070E7289B002B40F0D1830C4B03933EE73C
:1051980061436F63A787D23FB3C8608B288AC63F35
:1051A800FB799F501344D33F0000F07F45760008F9
:1051B8000000F83FA07600086C76000868760008C2
:1051C800A8EB0505B5F1010900F196840D90099049
:1051D80000230C93249BD944092BCDF820B099D9EE
:1051E8004FF0FF3601250023CDE90A652493259366
:1051F800002111966164204601F082FA0E2E039078
:10520800206400F2F280002D00F0EF800899002958
:1052180040F34084B94B01F00F0203EBC203CA0507
:105228004FEA2115D3E9006740F1DB83DDE9060188
:10523800B34B05F00F05D3E90823FBF74DFB032318
:10524800CDE912010E93A5B11494DFF8B4820E9C37
:10525800EB0708D5D8E9002330463946FBF712FAA0
:1052680006460F4601346D1008F10808F0D10E9477
:10527800149C3B46DDE912013246FBF72DFB07463D
:1052880088460D9B43B10022384641469D4BFBF7AB
:105298006BFC002840F02E850E98FBF789F93A46FA
:1052A8004346FBF7EFF9984B0022FBF735F8A1F1DD
:1052B8005073CDE90E010F930A9B002B00F0CC83AD
:1052C800089B14930A9B12930B9B002B00F0968467
:1052D800129A8A4B002003EBC20353E902238B493D
:1052E800FBF7FAFADDE90E23FBF714F802460B4642
:1052F80038464146CDE90E23FBF774FC1590FBF7C1
:1053080057F902460B4638464146FBF703F8159B0A
:10531800039D303306460F46024605F8013B0B460F
:10532800DDE90E01FBF73EFC002840F02485002350
:10533800CDE916B9CDF854A09846DDE90EABDDF8F5
:1053480048900E9428E0C8454ADA5046594600224B
:105358006F4BFBF797F900226D4B82468B46304620
:105368003946FBF78FF90F460646FBF73BFC044628
:10537800FBF71EF902460B4630463946FAF7CAFFD4
:10538800303452465B4605F8014B06460F46FBF79C
:10539800EBFB002840F0EC8432463B46002059499C
:1053A800FAF7B8FF52465B46FBF7DEFB08F1010847
:1053B8000028C8D0149BDDF854A00E9C039A0893CB
:1053C80002E0954200F0BE84A94615F8013D392B4C
:1053D800F7D00133DBB22B70089B01330893A0E1AF
:1053E800DDF854A00E9CDDE916B9199B002BC0F21C
:1053F8009380089A0E2A00F38F80404B03EBC20378
:10540800D3E90023CDE90423259B002B1ADA0A9B54
:10541800002B17DC40F0A784DDE9040100223D4B96
:10542800FBF730F902460B46DDE90601FBF7A6FB60
:10543800DDF828804546002800F04182259B039F1F
:10544800DE4344E2DDE90467DDE9060132463B4616
:10545800FBF742FAFBF7C6FB8046FBF7A9F8324692
:105468003B46FBF70FF90B460246DDE90601FAF762
:1054780051FF039D08F1300305F8013B0A9B012BFE
:1054880000F07183CDF818A04FF00109AA469B4699
:1054980009941BE032463B4620462946FBF71CFA96
:1054A800FBF7A0FB8046FBF783F832463B46FBF749
:1054B800E9F80B46024629462046FAF72BFF08F181
:1054C8003003D9450AF8013B00F049830022104B0C
:1054D800FBF7D8F80022002304460D46FBF73AFBF9
:1054E80009F101090028D5D05546099CDDF818A016
:1054F800089BA9460133089313E100BFA076000872
:10550800787600080000F03F00001C400000E03FF3
:1055180000002440000014400B9A002A3ED0249A30
:10552800012A40F37C820A9B5F1E0C9BBB4280F2DF
:1055380056820C9B0C97FB1A00279B440A9B002B56
:10554800C0F23F83099A994416461A4409920121E8
:10555800204601F093F9054623E00123A8EB050551
:10556800B5F101090D937FF5C2ADC5F101034FF007
:1055780000090993BDE55846FBF71AF832463B4641
:10558800FBF7E8FA00287FF499AD0BF1FF3B95E5AE
:10559800BF4B039303981BB0BDE8F08F0C9F099E87
:1055A8000B9D002E0CDDB9F1000F09DD4E45334689
:1055B800A8BF4B46099AF61AD21A0992A9EB030911
:1055C8000C9BD3B10B9B002B00F0A981002F10DDA1
:1055D80029463A46204601F0FDF95246014605465D
:1055E800204601F055F90346514620469A4601F0F7
:1055F800ADF80C9BDA1B40F093810121204601F0A5
:105608003DF9BBF1000F804600F3A980249B012BD4
:1056180040F3908100270120BBF1000F40F0AA80E1
:10562800484410F01F0000F09180C0F12003042BC3
:1056380040F3D883C0F11C00099B06440344099336
:105648008144099B002B05DD51461A46204601F08E
:1056580011FA8246B9F1000F05DD41464A46204657
:1056680001F008FA80460D9B002B40F03D810A9B13
:10567800002B40F30F810B9B002B40F08D80089B83
:10568800013308930126039FDDF8289007E051466F
:1056980000230A22204601F063F88246013641467B
:1056A8005046FFF7E7FB4E4500F1300307F8013B92
:1056B800EDDB0A9A0026002ACCBF93464FF0010B77
:1056C800039A9344514601222046049301F0D2F9EB
:1056D8004146824601F036FA002840F38E811BF8D5
:1056E800013C039A0BF1FF3B04E05A4500F090811E
:1056F8001BF8013D392B0BF10109F6D001338BF86A
:1057080000304146204601F021F855B12EB1AE4295
:1057180003D03146204601F019F82946204601F009
:1057280015F85146204601F011F8002389F8003099
:10573800269B1A46089B1360289B002B3FF467ACF6
:105748000398C3F800901BB0BDE8F08F1C2073E7E6
:105758000125E5E4C0F1200006FA00F07BE40146EB
:105768005A46204601F036F9249B8046012B40F327
:10577800C5810027D8F8103008EB8303186901F0B9
:105788002DF8C0F120004BE7249B022B00F31D836A
:10579800119BCDF820900A93089B01330893002EA3
:1057A80000F31681002F40F0F8812F460399049BDF
:1057B8000E4603F001024B1E24990C920A430B92E9
:1057C8000A9A1A440A9241465046FFF753FB294663
:1057D8008346504601F0B6F93A464146814620468E
:1057E80001F0CEF9C26801460BF13003002A42D11C
:1057F80006905046099301F0A5F9069904902046B1
:1058080000F0A4FF049A099B1AB90B99002900F02B
:10581800C282B9F1000FC0F28781249941EA0909CF
:105828000C9951EA090100F07F81002A00F3CD812B
:105838000A9A06F10109B242CB46337000F0CF81D3
:10584800514600230A22204600F08AFFBD428246C4
:1058580029464FF000034FF00A02204612D000F00C
:105868007FFF3946054600230A22204600F078FFCC
:105878004E460746A7E72046049300F067FF01223B
:10588800049BC6E700F06CFF4E46054607469AE7BC
:1058980044760008249B022B40F387800A9B002B48
:1058A8007FF4CCAD41460522204600F059FF8046E2
:1058B8005046414601F046F900287FF7BFAD039FE7
:1058C80031223B46089E03F8012B013603934146DB
:1058D800204600F03BFF731CDDF80C9008930397FB
:1058E800002D7FF41AAF1CE74146504601F02AF913
:1058F8000028BFF6BCAE514600230A22204600F01D
:105908002FFF089B824603F1FF390B9B002B40F0C9
:105918004982119B002B40F352820A93B2E60C9AFB
:105928005146204601F056F8824666E6AD4B039391
:10593800033310E4DDE9041200297FF46BAEC2F3EF
:105948001303002B00F0E480049F64E601230B930B
:10595800259B089A134411930133012B1E46B8BFA7
:1059680001260A930021172ED8BF0A9E61647FF78B
:1059780042AC012204235B0003F11400B04211463B
:1059880002F10102F7D90A9E616434E401230B9302
:10599800259B002B2CDD1E4611930A93E2E700237A
:1059A8000B93D5E700230B93F2E70B9B002B7FF4B7
:1059B800F3AE41465046FFF75DFA089ADDF80CB0A1
:1059C80000F130030132002608920BF8013B79E61A
:1059D80029463246204601F04DF80546E2E6DF1B2F
:1059E800ACE5DDE90623CDE9122302230E932AE470
:1059F800012625960A96FFF7FBBB03D1049BDB071C
:105A08003FF56DAED9461BF8013D302BFAD078E64C
:105A18003123089A01320892039A137071E6109A9A
:105A2800002A00F05781099A03F2334316461A44B4
:105A38000C9F994409928AE50E98FAF7B9FD3A46FF
:105A48004346FAF71FFE684B0022FAF765FCA1F1FE
:105A58005073CDE90E010F93384641460022634B3F
:105A6800FAF758FCDDE90E2306460F46FBF79AF8CD
:105A78008046002840F07381DDE90E01024601F1FD
:105A8800004330463946FBF76FF800283FF4ADACC9
:105A98004546D3E400F02881DDE90601089B5D4214
:105AA800534B05F00F0203EBC203D3E90023FAF7C7
:105AB800E9FD2D110746884600F08C810222CDE9C8
:105AC80012780023A04614464A4EEF0705D5D6E9BA
