:020000040800F2
:100000000000012009200008AD1D0008B91D0008EE
:10001000BF1D0008C51D0008CB1D00080000000022
:10002000000000000000000000000000D11D0008DA
:10003000DD1D000800000000E91D0008F51D000896
:1000400051200008512000085120000851200008CC
:1000500051200008512000085120000851200008BC
:1000600051200008512000085120000851200008AC
:10007000512000085120000851200008512000089C
:10008000512000085120000851200008512000088C
:10009000512000085120000851200008512000087C
:1000A000512000085120000851200008512000086C
:1000B000512000085120000851200008512000085C
:1000C000512000085120000851200008512000084C
:1000D000512000085120000851200008512000083C
:1000E000011E00085120000851200008512000087E
:1000F000512000085120000851200008512000081C
:10010000512000085120000851200008512000080B
:1001100051200008512000085120000851200008FB
:1001200051200008512000085120000851200008EB
:1001300000000000000000000000000000000000BF
:1001400000000000000000000000000000000000AF
:10015000000000000000000000000000000000009F
:10016000000000000000000000000000000000008F
:10017000000000000000000000000000000000007F
:10018000000000000000000000000000000000006F
:10019000000000000000000000000000000000005F
:1001A000000000000000000000000000000000004F
:1001B000000000000000000000000000000000003F
:1001C000000000000000000000000000000000002F
:1001D000000000000000000000000000000000001F
:0401E0005FF8E0F1F3
:1001E40010B5054C237833B9044B13B10448AFF36D
:1001F40000800123237010BD3C0400200000000097
:100204001C22000808B5034B1BB103490348AFF394
:10021400008008BD00000000400400201C220008EB
:1002240080B500AF084B1B68074A43F01003136006
:10023400032000F047F9002000F008F801F082FDE7
:100244000023184680BD00BF0020024080B582B064
:1002540000AF7860124B1A68124B1B7819464FF4A2
:100264007A73B3FBF1F3B2FBF3F3184600F05FF9D2
:100274000346002B01D001230EE07B680F2B0AD824
:10028400002279684FF0FF3000F027F9064A7B68B6
:100294001360002300E0012318460837BD4680BDE3
:1002A40008000020040000200000002080B400AFFB
:1002B400054B1B781A46054B1B681344034A13600D
:1002C40000BFBD4680BC70470400002058040020D5
:1002D40080B400AF024B1B681846BD4680BC704713
:1002E4005804002080B584B000AF7860FFF7F0FFB9
:1002F400B8607B68FB60FB68B3F1FF3F05D00A4B35
:100304001B781A46FB681344FB6000BFFFF7E0FF4D
:100314000246BB68D31AFA689A42F7D800BF00BFF6
:100324001037BD4680BD00BF0400002080B485B0F6
:1003340000AF78607B6803F00703FB600C4BDB685D
:10034400BB60BA684FF6FF031340BB60FB681A0238
:10035400BB68134343F0BF6343F40033BB60044AF8
:10036400BB68D36000BF1437BD4680BC704700BF74
:1003740000ED00E080B400AF044BDB681B0A03F01F
:1003840007031846BD4680BC704700BF00ED00E07F
:1003940080B483B000AF0346FB7197F90730002B9C
:1003A4000BDBFB7903F01F02064997F907305B0961
:1003B400012000FA02F241F8232000BF0C37BD46A9
:1003C40080BC704700E100E080B483B000AF034616
:1003D4003960FB7197F90730002B0ADB3B68DAB20E
:1003E4000C4997F907301201D2B20B4483F8002369
:1003F4000AE03B68DAB20849FB7903F00F03043BD7
:100404001201D2B20B441A7600BF0C37BD4680BC31
:10041400704700BF00E100E000ED00E080B489B067
:1004240000AFF860B9607A60FB6803F00703FB6112
:10043400FB69C3F10703042B28BF0423BB61FB69D9
:100444000433062B02D9FB69033B00E000237B61E4
:100454004FF0FF32BB6902FA03F3DA43BB681A4078
:100464007B699A404FF0FF317B6901FA03F3D9436A
:100474007B680B40134318462437BD4680BC704745
:1004840080B582B000AF78607B68013BB3F1807FB8
:1004940001D301230FE00A4A7B68013B53600F211B
:1004A4004FF0FF30FFF790FF054B00229A60044B9A
:1004B40007221A60002318460837BD4680BD00BFD6
:1004C40010E000E080B582B000AF78607868FFF794
:1004D4002DFF00BF0837BD4680BD80B586B000AF94
:1004E4000346B9607A60FB7300237B61FFF742FF28
:1004F40078617A68B9687869FFF790FF024697F9DE
:100504000F3011461846FFF75FFF00BF1837BD468E
:1005140080BD80B582B000AF0346FB7197F9073008
:100524001846FFF735FF00BF0837BD4680BD80B5CC
:1005340082B000AF78607868FFF7A2FF03461846E0
:100544000837BD4680BD000080B48BB000AF786032
:10055400396000237B6200233B6279E101227B6ADC
:1005640002FA03F3FB613B681B68FA691340BB6141
:10057400BA69FB699A4240F068813B685B68A04AAB
:1005840093425ED09E4A934275D89E4A934258D075
:100594009C4A93426FD89C4A934252D09A4A9342BF
:1005A40069D89A4A93424CD0984A934263D8984A5D
:1005B400934246D0964A93425DD8122B2AD8122BE6
:1005C40059D801A252F823F0470600082106000872
:1005D40033060008750600087B0600087B06000841
:1005E4007B0600087B0600087B0600087B060008E3
:1005F4007B0600087B0600087B0600087B060008D3
:100604007B0600087B0600087B0600082906000814
:100614003D0600087F4A934213D02CE03B68DB6818
:100624003B6229E03B68DB6804333B6224E03B68BF
:10063400DB6808333B621FE03B68DB680C333B62DA
:100644001AE03B689B68002B02D104233B6213E051
:100654003B689B68012B05D108233B627B68FA69E0
:100664001A6109E008233B627B68FA695A6103E076
:1006740000233B6200E000BFBB69FF2B01D87B680D
:1006840001E07B6804337B61BB69FF2B02D87B6A82
:100694009B0002E07B6A083B9B003B617B691A6814
:1006A4000F213B6901FA03F3DB431A40396A3B69C2
:1006B40001FA03F31A437B691A603B685B6803F031
:1006C4008053002B00F0C180534B9B69524A43F086
:1006D40001039361504B9B6903F00103BB60BB684A
:1006E4004E4A7B6A9B08023352F82330FB607B6AD4
:1006F40003F003039B000F2202FA03F3DB43FA68BF
:100704001340FB607B68464A93421FD07B68454A8E
:10071400934219D07B68444A934213D07B68434A7E
:1007240093420DD07B68424A934207D07B68414A8A
:10073400934201D105230AE0062308E0042306E0DE
:10074400032304E0022302E0012300E000237A6A89
:1007540002F0030292009340FA681343FB602F49AE
:100764007B6A9B080233FA6841F823203B685B6884
:1007740003F48033002B06D02F4B1A682E49BB6933
:1007840013430B6006E02C4B1A68BB69DB432A4910
:1007940013400B603B685B6803F40033002B06D006
:1007A400254B5A682449BB6913434B6006E0224B2E
:1007B4005A68BB69DB43204913404B603B685B6864
:1007C40003F48013002B06D01B4B9A681A49BB69AB
:1007D40013438B6006E0184B9A68BB69DB431649E8
:1007E40013408B603B685B6803F40013002B25D037
:1007F400114BDA681049BB691343CB6025E000BF95
:1008040000003210000031100000221000002110FE
:1008140000001210000011100010024000000140FE
:1008240000080140000C0140001001400014014088
:1008340000180140001C0140000401400B4BDA6821
:10084400BB69DB4309491340CB607B6A01337B629C
:100854003B681A687B6A22FA03F3002B7FF47EAEAE
:1008640000BF00BF2C37BD4680BC70470004014068
:1008740080B582B000AF0346FB80084B5A69FB8801
:100884001340002B06D0054AFB885361FB881846A9
:1008940001F03EFA00BF0837BD4680BD00040140A8
:1008A40080B586B000AF78607B68002B01D101234E
:1008B4006CE27B681B6803F00103002B00F0878067
:1008C400924B5B6803F00C03042B0CD08F4B5B68DA
:1008D40003F00C03082B12D18C4B5B6803F48033B8
:1008E400B3F5803F0BD1894B1B6803F40033002B15
:1008F4006CD07B685B68002B68D1012346E27B687F
:100904005B68B3F5803F06D1804B1B687F4A43F494
:10091400803313602EE07B685B68002B0CD17B4B2B
:100924001B687A4A23F480331360784B1B68774A38
:1009340023F4802313601DE07B685B68B3F5A02F6C
:100944000CD1724B1B68714A43F4802313606F4BC4
:100954001B686E4A43F4803313600BE06B4B1B68D7
:100964006A4A23F480331360684B1B68674A23F494
:10097400802313607B685B68002B13D0FFF7A8FC0F
:10098400386108E0FFF7A4FC02463B69D31A642BE4
:1009940001D90323FAE15D4B1B6803F40033002BF8
:1009A400F0D014E0FFF794FC386108E0FFF790FC06
:1009B40002463B69D31A642B01D90323E6E1534B66
:1009C4001B6803F40033002BF0D100E000BF7B6808
:1009D4001B6803F00203002B63D04C4B5B6803F0ED
:1009E4000C03002B0BD0494B5B6803F00C03082B62
:1009F4001CD1464B5B6803F48033002B16D1434B68
:100A04001B6803F00203002B05D07B681B69012BD4
:100A140001D00123BAE13D4B1B6823F0F8027B6847
:100A24005B69DB00394913430B603AE07B681B695F
:100A3400002B20D0364B01221A60FFF749FC3861A5
:100A440008E0FFF745FC02463B69D31A022B01D9A3
:100A540003239BE12D4B1B6803F00203002BF0D012
:100A64002A4B1B6823F0F8027B685B69DB0027498B
:100A740013430B6015E0264B00221A60FFF728FC95
:100A8400386108E0FFF724FC02463B69D31A022BC5
:100A940001D903237AE11D4B1B6803F00203002BE9
:100AA400F0D17B681B6803F00803002B3AD07B6805
:100AB4009B69002B19D0174B01221A60FFF708FC21
:100AC400386108E0FFF704FC02463B69D31A022BA5
:100AD40001D903235AE10D4B5B6A03F00203002B97
:100AE400F0D0012000F0A6FA1CE00A4B00221A60A4
:100AF400FFF7EEFB38610FE0FFF7EAFB02463B69C4
:100B0400D31A022B08D9032340E100BF001002408E
:100B140000004242800442429E4B5B6A03F002039F
:100B2400002BE9D17B681B6803F00403002B00F061
:100B3400A6800023FB75974BDB6903F08053002BE1
:100B44000DD1944BDB69934A43F08053D361914BAD
:100B5400DB6903F08053BB60BB680123FB758E4BDC
:100B64001B6803F48073002B18D18B4B1B688A4AD3
:100B740043F480731360FFF7ABFB386108E0FFF7C1
:100B8400A7FB02463B69D31A642B01D90323FDE07A
:100B9400814B1B6803F48073002BF0D07B68DB6807
:100BA400012B06D17B4B1B6A7A4A43F00103136283
:100BB4002DE07B68DB68002B0CD1764B1B6A754AF1
:100BC40023F001031362734B1B6A724A23F004037C
:100BD40013621CE07B68DB68052B0CD16D4B1B6A30
:100BE4006C4A43F0040313626A4B1B6A694A43F07C
:100BF400010313620BE0674B1B6A664A23F001038F
:100C04001362644B1B6A634A23F0040313627B6818
:100C1400DB68002B15D0FFF75BFB38610AE0FFF7B8
:100C240057FB02463B69D31A41F28832934201D9F9
:100C34000323ABE0574B1B6A03F00203002BEED0F7
:100C440014E0FFF745FB38610AE0FFF741FB024679
:100C54003B69D31A41F28832934201D9032395E0C8
:100C64004C4B1B6A03F00203002BEED1FB7D012BDE
:100C740005D1484BDB69474A23F08053D3617B6835
:100C8400DB69002B00F08180424B5B6803F00C03AE
:100C9400082B61D07B68DB69022B46D13F4B0022D5
:100CA4001A60FFF715FB386108E0FFF711FB0246F5
:100CB4003B69D31A022B01D9032367E0354B1B6828
:100CC40003F00073002BF0D17B681B6AB3F5803FFF
:100CD40008D1304B5B6823F400327B689B682D4954
:100CE40013434B602B4B5B6823F474127B68196AC3
:100CF4007B685B6A0B43274913434B60274B0122F4
:100D04001A60FFF7E5FA386108E0FFF7E1FA0246F6
:100D14003B69D31A022B01D9032337E01D4B1B680F
:100D240003F00073002BF0D02FE01C4B00221A605C
:100D3400FFF7CEFA386108E0FFF7CAFA02463B69CA
:100D4400D31A022B01D9032320E0124B1B6803F0B2
:100D54000073002BF0D118E07B68DB69012B01D113
:100D6400012313E00B4B5B68FB60FB6803F48032E8
:100D74007B681B6A9A4206D1FB6803F470127B6895
:100D84005B6A9A4201D0012300E000231846183719
:100D9400BD4680BD00100240007000406000424229
:100DA40080B584B000AF786039607B68002B01D1D6
:100DB4000123D0E06A4B1B6803F007033A689A42A8
:100DC40010D9674B1B6823F0070265493B6813433E
:100DD4000B60634B1B6803F007033A689A4201D027
:100DE4000123B8E07B681B6803F00203002B20D0CA
:100DF4007B681B6803F00403002B05D0594B5B6828
:100E0400584A43F4E06353607B681B6803F00803AB
:100E1400002B05D0534B5B68524A43F46053536034
:100E2400504B5B6823F0F0027B689B684D49134389
:100E34004B607B681B6803F00103002B40D07B6888
:100E44005B68012B07D1474B1B6803F40033002B6D
:100E540015D101237FE07B685B68022B07D1414BEE
:100E64001B6803F00073002B09D1012373E03D4B91
:100E74001B6803F00203002B01D101236BE0394B03
:100E84005B6823F003027B685B68364913434B605D
:100E9400FFF71EFAF8600AE0FFF71AFA0246FB6849
:100EA400D31A41F28832934201D9032353E02D4BE4
:100EB4005B6803F00C027B685B689B009A42EBD191
:100EC400274B1B6803F007033A689A4210D2244B5D
:100ED4001B6823F0070222493B6813430B60204B35
:100EE4001B6803F007033A689A4201D0012332E0F9
:100EF4007B681B6803F00403002B08D0194B5B6864
:100F040023F4E0627B68DB68164913434B607B681B
:100F14001B6803F00803002B09D0124B5B6823F411
:100F240060527B681B69DB000E4913434B6000F081
:100F340021F802460B4B5B681B0903F00F030A49B7
:100F4400CB5C22FA03F3094A1360094B1B68184669
:100F5400FFF77CF9002318461037BD4680BD00BF5B
:100F64000020024000100240442200080800002033
:100F74000000002090B48AB000AF2A4B3C1D0FCB78
:100F840084E80F0040F201233B800023FB6100232F
:100F9400BB6100237B6200237B6100233B62224B05
:100FA4005B68FB61FB6903F00C03042B02D0082B84
:100FB40003D02DE01D4B3B622DE0FB699B0C03F03D
:100FC4000F0307F12802134413F8243C7B61FB69E7
:100FD40003F48033002B13D0134B5B685B0C03F0DA
:100FE400010307F12802134413F8283CBB617B6911
:100FF4000E4A02FB03F2BB69B2FBF3F37B6204E02B
:101004007B690B4A02FB03F37B627B6A3B6202E06F
:10101400064B3B6200BF3B6A18462837BD4690BC6E
:10102400704700BF342200080010024000127A000A
:1010340000093D0080B485B000AF78600A4B1B689E
:101044000A4AA2FB03235B0A7A6802FB03F3FB60F0
:1010540000BFFB685A1EFA60002BF9D100BF00BF25
:101064001437BD4680BC704708000020D34D621081
:1010740080B582B000AF78607B68002B01D101237A
:101084001DE07B6893F83D30DBB2002B06D17B6812
:10109400002283F83C20786800F062FF7B6802221B
:1010A40083F83D207B681A687B6804331946104630
:1010B40000F006FA7B68012283F83D2000231846DD
:1010C4000837BD4680BD80B582B000AF78607B68CC
:1010D400002B01D101231DE07B6893F83D30DBB286
:1010E400002B06D17B68002283F83C20786800F04E
:1010F40015F87B68022283F83D207B681A687B68B8
:1011040004331946104600F0DBF97B68012283F8AA
:101114003D20002318460837BD4680BD80B483B007
:1011240000AF786000BF0C37BD4680BC704700003C
:1011340080B584B000AF786039607B681B68012299
:101144003968184600F078FC7B681B68154A93429E
:1011540004D07B681B68144A934201D1012300E048
:101164000023002B07D07B681B685A6C7B681B68C4
:1011740042F400425A647B681B689B6803F00703CF
:10118400FB60FB68062B07D07B681B681A687B68CA
:101194001B6842F001021A60002318461037BD464E
:1011A40080BD00BF002C01400034014080B584B0F4
:1011B40000AFF860B9607A60FB6893F83C30012BAB
:1011C40001D10223B4E0FB68012283F83C20FB68D0
:1011D400022283F83D207B680C2B00F29F8001A241
:1011E40052F823F01D1200082113000821130008EF
:1011F400211300085D1200082113000821130008C0
:10120400211300089F12000821130008211300086D
:1012140021130008DF120008FB681B68B968184630
:1012240000F0C8F9FB681B689A69FB681B6842F008
:1012340008029A61FB681B689A69FB681B6822F0C4
:1012440004029A61FB681B689969BB681A69FB68A8
:101254001B680A439A6162E0FB681B68B968184618
:1012640000F018FAFB681B689A69FB681B6842F473
:1012740000629A61FB681B689A69FB681B6822F428
:1012840080629A61FB681B689969BB681B691A02D2
:10129400FB681B680A439A6141E0FB681B68B968F4
:1012A400184600F06BFAFB681B68DA69FB681B6878
:1012B40042F00802DA61FB681B68DA69FB681B68A4
:1012C40022F00402DA61FB681B68D969BB681A69F9
:1012D400FB681B680A43DA6121E0FB681B68B96894
:1012E400184600F0BFFAFB681B68DA69FB681B68E4
:1012F40042F40062DA61FB681B68DA69FB681B6808
:1013040022F48062DA61FB681B68D969BB681B69D7
:101314001A02FB681B680A43DA6100E000BFFB683D
:10132400012283F83D20FB68002283F83C2000233F
:1013340018461037BD4680BD80B584B000AF7860D4
:1013440039607B6893F83C30012B01D10223B3E070
:101354007B68012283F83C207B68022283F83D20CD
:101364007B681B689B68FB60FB6823F07703FB606A
:10137400FB6823F47F43FB607B681B68FA689A6010
:101384003B681B68B3F5005F3ED0B3F5005F00F225
:101394008780B3F5805F00F08580B3F5805F7FD8E8
:1013A400702B1AD0702B7BD8602B50D0602B77D841
:1013B400502B3CD0502B73D8402B58D0402B6FD897
:1013C400302B64D0302B6BD8202B60D0202B67D8E7
:1013D400002B5CD0102B5AD062E07B6818683B6805
:1013E40099683B685A683B68DB6800F006FB7B68D9
:1013F4001B689B68FB60FB6843F07703FB607B68BA
:101404001B68FA689A604EE07B6818683B689968C4
:101414003B685A683B68DB6800F0EFFA7B681B683E
:101424009A687B681B6842F480429A603BE07B6860
:1014340018683B6859683B68DB681A4600F066FA2E
:101444007B681B685021184600F0BDFA2BE07B68CE
:1014540018683B6859683B68DB681A4600F084FAF0
:101464007B681B686021184600F0ADFA1BE07B68BE
:1014740018683B6859683B68DB681A4600F046FA0E
:101484007B681B684021184600F09DFA0BE07B68DE
:101494001A683B681B681946104600F094FA02E08B
:1014A40000BF00E000BF7B68012283F83D207B6819
:1014B400002283F83C20002318461037BD4680BD27
:1014C40080B485B000AF786039607B681B68FB60CE
:1014D4007B68334A934213D07B68324A93420FD0DD
:1014E4007B68B3F1804F0BD07B682F4A934207D0BF
:1014F4007B682E4A934203D07B682D4A934208D1DD
:10150400FB6823F07003FB603B685B68FA68134375
:10151400FB607B68224A934213D07B68214A934242
:101524000FD07B68B3F1804F0BD07B681E4A934287
:1015340007D07B681D4A934203D07B681C4A9342C0
:1015440008D1FB6823F44073FB603B68DB68FA68EE
:101554001343FB60FB6823F080023B685B69134321
:10156400FB607B68FA681A603B689A687B68DA6299
:101574003B681A687B689A627B68094A934203D085
:101584007B68084A934203D13B681A697B681A63F3
:101594007B6801225A6100BF1437BD4680BC704786
:1015A400002C0140003401400004004000080040C9
:1015B400000C004080B487B000AF786039607B686D
:1015C4001B6A23F001027B681A627B681B6A7B61D9
:1015D4007B685B683B617B689B69FB60FB6823F00D
:1015E4007003FB60FB6823F00303FB603B681B682C
:1015F400FA681343FB607B6923F002037B613B6859
:101604009B687A6913437B617B68204A934203D0C9
:101614007B681F4A93420CD17B6923F008037B61EA
:101624003B68DB687A6913437B617B6923F00403BD
:101634007B617B68154A934203D07B68144A9342CA
:1016440011D13B6923F480733B613B6923F400733C
:101654003B613B685B693A6913433B613B689B6947
:101664003A6913433B617B683A695A607B68FA685C
:101674009A613B685A687B685A637B687A691A6224
:1016840000BF1C37BD4680BC704700BF002C014022
:101694000034014080B487B000AF786039607B6863
:1016A4001B6A23F010027B681A627B681B6A7B61E9
:1016B4007B685B683B617B689B69FB60FB6823F428
:1016C400E043FB60FB6823F44073FB603B681B68EA
:1016D4001B02FA681343FB607B6923F020037B61E0
:1016E4003B689B681B017A6913437B617B68214AD1
:1016F400934203D07B68204A93420DD17B6923F047
:1017040080037B613B68DB681B017A6913437B615F
:101714007B6923F040037B617B68164A934203D0C4
:101724007B68154A934213D13B6923F480633B6180
:101734003B6923F400633B613B685B699B003A6946
:1017440013433B613B689B699B003A6913433B61CC
:101754007B683A695A607B68FA689A613B685A68A0
:101764007B689A637B687A691A6200BF1C37BD463E
:1017740080BC7047002C01400034014080B487B025
:1017840000AF786039607B681B6A23F480727B68E1
:101794001A627B681B6A7B617B685B683B617B6860
:1017A400DB69FB60FB6823F07003FB60FB6823F0DC
:1017B4000303FB603B681B68FA681343FB607B69A7
:1017C40023F400737B613B689B681B027A691343B3
:1017D4007B617B68214A934203D07B68204A934211
:1017E4000DD17B6923F400637B613B68DB681B02DA
:1017F4007A6913437B617B6923F480637B617B6833
:10180400164A934203D07B68154A934213D13B692D
:1018140023F480533B613B6923F400533B613B68F1
:101824005B691B013A6913433B613B689B691B017C
:101834003A6913433B617B683A695A607B68FA688A
:10184400DA613B685A687B68DA637B687A691A6292
:1018540000BF1C37BD4680BC704700BF002C014050
:101864000034014080B487B000AF786039607B6891
:101874001B6A23F480527B681A627B681B6A3B6193
:101884007B685B687B617B68DB69FB60FB6823F4D6
:10189400E043FB60FB6823F44073FB603B681B6818
:1018A4001B02FA681343FB603B6923F400533B615A
:1018B4003B689B681B033A6913433B617B68114A8D
:1018C400934203D07B68104A934209D17B6923F485
:1018D40080437B613B685B699B017A6913437B614D
:1018E4007B687A695A607B68FA68DA613B685A688F
:1018F4007B681A647B683A691A6200BF1C37BD466C
:1019040080BC7047002C01400034014080B487B093
:1019140000AFF860B9607A60FB681B6A7B61FB68A2
:101924001B6A23F00102FB681A62FB689B693B6136
:101934003B6923F0F0033B617B681B013A69134365
:101944003B617B6923F00A037B617A69BB681343BB
:101954007B61FB683A699A61FB687A691A6200BF25
:101964001C37BD4680BC704780B487B000AFF860B8
:10197400B9607A60FB681B6A23F01002FB681A6284
:10198400FB689B697B61FB681B6A3B617B6923F491
:1019940070437B617B681B037A6913437B613B69FA
:1019A40023F0A0033B61BB681B013A6913433B610D
:1019B400FB687A699A61FB683A691A6200BF1C374E
:1019C400BD4680BC704780B485B000AF7860396094
:1019D4007B689B68FB60FB6823F07003FB603A68DC
:1019E400FB68134343F00703FB607B68FA689A6063
:1019F40000BF1437BD4680BC704780B487B000AFC9
:101A0400F860B9607A603B60FB689B687B617B69C6
:101A140023F47F437B613B681A027B681A43BB68EB
:101A240013437A6913437B61FB687A699A6000BF48
:101A34001C37BD4680BC704780B487B000AFF860E7
:101A4400B9607A60BB6803F01F03012202FA03F352
:101A54007B61FB681A6A7B69DB431A40FB681A6284
:101A6400FB681A6ABB6803F01F03796801FA03F381
:101A74001A43FB681A6200BF1C37BD4680BC70471E
:101A840080B485B000AF786039607B6893F83C30EF
:101A9400012B01D1022332E07B68012283F83C2030
:101AA4007B68022283F83D207B681B685B68FB60CF
:101AB4007B681B689B68BB60FB6823F07003FB605A
:101AC4003B681B68FA681343FB60BB6823F0800320
:101AD400BB603B685B68BA681343BB607B681B6888
:101AE400FA685A607B681B68BA689A607B6801224E
:101AF40083F83D207B68002283F83C2000231846AD
:101B04001437BD4680BC704780B588B000AF07F17C
:101B1400100300221A605A609A60DA601E4B9B69B7
:101B24001D4A43F0100393611B4B9B6903F01003A0
:101B3400FB60FB68184B9B69174A43F004039361ED
:101B4400154B9B6903F00403BB60BB68124B9B6994
:101B5400114A43F0080393610F4B9B6903F0080398
:101B64007B607B684FF400533B610C4B7B6101232A
:101B7400BB6107F1100319460948FEF7E5FC002292
:101B840001212820FEF7A9FC2820FEF7C2FC00BF93
:101B94002037BD4680BD00BF001002400000211068
:101BA4000010014080B500AFFEF73AFB00F06AF880
:101BB400FFF7AAFF00F05EF908212D48FFF7B8FAF5
:101BC4002C4B1B78012B19D14FF49670FEF78AFB2E
:101BD400284B1B78012B11D1264B00221A70264B5F
:101BE4001B78002B03D1244B01221A7006E0224BF0
:101BF4001B78012B02D1204B00221A701E4B1B783C
:101C0400012B28D11D4B1B88002B03D11C4B012217
:101C14001A7006E0194B1B88322B02D1184B022292
:101C24001A70174B1B78012B05D1144B1B880133F9
:101C34009AB2124B1A80124B1B78022B05D10F4B10
:101C44001B88013B9AB20D4B1A800C4B1A88084B27
:101C54001B68DA6307E0084B1B78002B03D1044BA5
:101C64001B680022DA633220FEF73CFBA8E700BFC2
:101C7400600400205C0400205D0400205E04002059
:101C84000500002080B590B000AF07F118032822AA
:101C94000021184600F000FA3B1D00221A605A6029
:101CA4009A60DA601A610123BB614FF48033FB61EF
:101CB40000233B620123BB6202237B634FF4803326
:101CC400BB634FF4E013FB6307F118031846FEF7F8
:101CD400E7FD0346002B01D000F02EF80F237B60B4
:101CE4000223BB600023FB604FF480633B6100234D
:101CF4007B613B1D02211846FFF752F80346002B77
:101D040001D000F019F800BF4037BD4680BD000087
:101D140080B483B000AF0346FB80FB8803F4005318
:101D2400002B02D0034B01221A7000BF0C37BD46B2
:101D340080BC70475C04002080B400AF00BFBD4687
:101D440080BC704780B485B000AF154B9B69144AC2
:101D540043F001039361124B9B6903F00103BB60E1
:101D6400BB680F4BDB690E4A43F08053D3610C4BC5
:101D7400DB6903F080537B607B680A4B5B68FB6024
:101D8400FB6823F0E063FB60FB6843F00073FB60D7
:101D9400044AFB68536000BF1437BD4680BC7047DB
:101DA400001002400000014080B400AF00BFBD46F7
:101DB40080BC704780B400AFFEE780B400AFFEE79C
:101DC40080B400AFFEE780B400AFFEE780B400AF9C
:101DD40000BFBD4680BC704780B400AF00BFBD46A5
:101DE40080BC704780B400AF00BFBD4680BC704764
:101DF40080B500AFFEF75AFA00BF80BD80B500AFD2
:101E04004FF40050FEF734FD00BF80BD80B400AF36
:101E1400154B1B68144A43F001031360124B5A68B4
:101E24001149124B13404B600F4B1B680E4A23F0B1
:101E3400847323F4803313600B4B1B680A4A23F426
:101E440080231360084B5B68074A23F4FE03536046
:101E5400054B4FF41F029A60054B4FF000629A60E5
:101E640000BFBD4680BC7047001002400000FFF870
:101E740000ED00E080B58EB000AF07F1280300222A
:101E84001A605A609A60DA6007F1200300221A602F
:101E94005A603B1D00221A605A609A60DA601A6127
:101EA4005A619A612C4B2D4A1A602B4B47225A6077
:101EB400294B00229A60284B6322DA60264B0022C9
:101EC4001A61254B00229A612348FFF7D1F8034693
:101ED400002B01D0FFF730FF4FF48053BB6207F1B2
:101EE400280319461C48FFF727FA0346002B01D0A4
:101EF400FFF722FF1848FFF7E6F80346002B01D04E
:101F0400FFF71AFF00233B6200237B6207F12003E3
:101F140019461148FFF7B4FD0346002B01D0FFF723
:101F24000BFF60237B600023BB600223FB60002364
:101F34007B613B1D082219460748FFF737F9034622
:101F4400002B01D0FFF7F8FE034800F027F800BF8C
:101F54003837BD4680BD00BF600400200008004043
:101F640080B485B000AF78607B681B68094A9342EF
:101F74000BD1094BDB69084A43F00403D361064BD8
:101F8400DB6903F00403FB60FB6800BF1437BD4644
:101F940080BC7047000800400010024080B588B043
:101FA40000AF786007F1100300221A605A609A604B
:101FB400DA607B681B68104A934218D10F4B9B6907
:101FC4000E4A43F0080393610C4B9B6903F008032A
:101FD400FB60FB684FF480733B6102237B61022347
:101FE400FB6107F1100319460548FEF7ADFA00BF7F
:101FF4002037BD4680BD00BF0008004000100240ED
:10200400000C0140002103E00B4B5B5843500431AA
:102014000A480B4B42189A42F6D30A4A02E00023BC
:1020240042F8043B084B9A42F9D3FFF7EFFE00F065
:102034000FF8FFF7B7FD7047642200080000002086
:102044003C0400203C040020C4040020FEE70000FF
:1020540070B50D4E0D4D761BB61006D0002455F804
:10206400043B01349847A642F9D1094E094D00F0CA
:10207400D3F8761BB61006D0002455F8043B01347F
:102084009847A642F9D170BD58220008582200088A
:102094006022000858220008F0B4860746D0541E77
:1020A400002A3CD00346CAB201E0013C37D303F80E
:1020B400012B9D07F9D1032C2AD9CDB245EA052578
:1020C4000F2C45EA054534D9A4F1100222F00F0C77
:1020D40003F120071609674403F1100242E904558D
:1020E40042E902551032BA42F8D1721C14F00C0FB6
:1020F40003EB021204F00F0613D0331F23F0030383
:102104000433134442F8045B9342FBD106F0030406
:102114002CB1CAB21C4403F8012B9C42FBD1F0BC85
:10212400704734461346002CF3D1F8E714460346AF
:10213400C1E71A462646E0E7024B13B1024800F015
:1021440005B87047000000005D2100080023014627
:102154001A46184600F01AB838B5084B084D5B1BF0
:102164009C1007D0043B1D44013C55F804399847A2
:10217400002CF9D1BDE8384000F054B864220008BE
:1021840060220008704700BF704700BF2DE9F04788
:10219400DFF880A00646DAF8000098460F4691461C
:1021A400FFF7F0FF1A4B1B68D3F8484124B3656866
:1021B4001F2D26DC5EB96B1C0235DAF80000636063
:1021C40044F82570FFF7E0FF0020BDE8F087012305
:1021D40004EB8501C1F88890D4F88821AB401A43F8
:1021E400022EC4F88821C1F80881E4D1D4F88C21E6
:1021F4001343C4F88C31DEE703F5A674C3F84841F1
:10220400D5E7DAF80000FFF7BFFF4FF0FF30DCE757
:102214005422000838040020F8B500BFF8BC08BCFC
:102224009E467047F8B500BFF8BC08BC9E46704790
:1022340002030405060708090A0B0C0D0E0F101003
:102244000000000000000000010203040607080962
:042254001000002056
:082258003D2100080902000805
:04226000E50100088C
:1022640010000000010100000024F4000000000040
:1022740000000000FC02002064030020CC030020C6
:10228400000000000000000000000000000000004A
:10229400000000000000000000000000000000003A
:1022A400000000000000000000000000000000002A
:1022B400000000000000000000000000000000001A
:1022C400000000000000000000000000000000000A
:1022D40000000000000000000000000000000000FA
:1022E40000000000000000000000000000000000EA
:1022F40000000000000000000000000000000000DA
:1023040000000000000000000000000000000000C9
:1023140000000000000000000100000000000000B8
:102324000E33CDAB34126DE6ECDE05000B0000007D
:102334000000000000000000000000000000000099
:102344000000000000000000000000000000000089
:102354000000000000000000000000000000000079
:102364000000000000000000000000000000000069
:0C2694000000000000000000A004002076
:0400000508002009C6
:00000001FF
