:020000040800F2
:100000000000012031200008651E0008711E000854
:10001000771E00087D1E0008831E000800000000F7
:10002000000000000000000000000000891E000821
:10003000951E000800000000A11E0008AD1E00086B
:10004000792000087920000879200008792000082C
:10005000792000087920000879200008792000081C
:10006000792000087920000879200008792000080C
:1000700079200008792000087920000879200008FC
:1000800079200008792000087920000879200008EC
:1000900079200008792000087920000879200008DC
:1000A00079200008792000087920000879200008CC
:1000B00079200008792000087920000879200008BC
:1000C00079200008792000087920000879200008AC
:1000D00079200008B91E000879200008792000085E
:1000E000792000087920000879200008792000088C
:1000F000792000087920000879200008792000087C
:10010000792000087920000879200008792000086B
:10011000792000087920000879200008792000085B
:10012000792000087920000879200008792000084B
:1001300000000000000000000000000000000000BF
:1001400000000000000000000000000000000000AF
:10015000000000000000000000000000000000009F
:10016000000000000000000000000000000000008F
:10017000000000000000000000000000000000007F
:10018000000000000000000000000000000000006F
:10019000000000000000000000000000000000005F
:1001A000000000000000000000000000000000004F
:1001B000000000000000000000000000000000003F
:1001C000000000000000000000000000000000002F
:1001D000000000000000000000000000000000001F
:0401E0005FF8E0F1F3
:1001E40010B5054C237833B9044B13B10448AFF36D
:1001F40000800123237010BD54040020000000007F
:100204004422000808B5034B1BB103490348AFF36C
:10021400008008BD000000005804002044220008AB
:1002240080B500AF084B1B68074A43F01003136006
:10023400032000F023F9002000F008F801F0DEFDAF
:100244000023184680BD00BF0020024080B582B064
:1002540000AF7860124B1A68124B1B7819464FF4A2
:100264007A73B3FBF1F3B2FBF3F3184600F03BF9F6
:100274000346002B01D001230EE07B680F2B0AD824
:10028400002279684FF0FF3000F003F9064A7B68DA
:100294001360002300E0012318460837BD4680BDE3
:1002A40024000020040000200000002080B400AFDF
:1002B400054B1B781A46054B1B681344034A13600D
:1002C40000BFBD4680BC70470400002070040020BD
:1002D40080B400AF024B1B681846BD4680BC704713
:1002E4007004002080B485B000AF78607B6803F0B0
:1002F4000703FB600C4BDB68BB60BA684FF6FF0377
:100304001340BB60FB681A02BB68134343F0BF632E
:1003140043F40033BB60044ABB68D36000BF1437A6
:10032400BD4680BC704700BF00ED00E080B400AF64
:10033400044BDB681B0A03F007031846BD4680BC68
:10034400704700BF00ED00E080B483B000AF034607
:10035400FB7197F90730002B0BDBFB7903F01F02CD
:10036400064997F907305B09012000FA02F241F8C7
:10037400232000BF0C37BD4680BC704700E100E07D
:1003840080B483B000AF03463960FB7197F907303E
:10039400002B0ADB3B68DAB20C4997F907301201EB
:1003A400D2B20B4483F800230AE03B68DAB208496E
:1003B400FB7903F00F03043B1201D2B20B441A760B
:1003C40000BF0C37BD4680BC704700BF00E100E0B1
:1003D40000ED00E080B489B000AFF860B9607A60E5
:1003E400FB6803F00703FB61FB69C3F10703042BFC
:1003F40028BF0423BB61FB690433062B02D9FB69C4
:10040400033B00E000237B614FF0FF32BB6902FA3B
:1004140003F3DA43BB681A407B699A404FF0FF311B
:100424007B6901FA03F3D9437B680B4013431846F5
:100434002437BD4680BC704780B582B000AF786079
:100444007B68013BB3F1807F01D301230FE00A4AAB
:100454007B68013B53600F214FF0FF30FFF790FFA3
:10046400054B00229A60044B07221A6000231846A9
:100474000837BD4680BD00BF10E000E080B582B003
:1004840000AF78607868FFF72DFF00BF0837BD46DE
:1004940080BD80B586B000AF0346B9607A60FB7357
:1004A40000237B61FFF742FF78617A68B968786955
:1004B400FFF790FF024697F90F3011461846FFF7F1
:1004C4005FFF00BF1837BD4680BD80B582B000AF66
:1004D4000346FB7197F907301846FFF735FF00BF55
:1004E4000837BD4680BD80B582B000AF78607868BB
:1004F400FFF7A2FF034618460837BD4680BD00003B
:1005040080B584B000AF78600023FB737B6893F8F8
:100514002130022B05D07B6804229A630123FB73EC
:10052400D6E07B681B681A687B681B6822F00E02A1
:100534001A607B681B681A687B681B6822F00102DA
:100544001A607B681B681A46644B9A4258D97B68C8
:100554001B68634A93424FD07B681B68614A93428D
:1005640048D07B681B68604A934240D07B681B6814
:100574005E4A934238D07B681B685D4A934230D010
:100584007B681B685B4A934228D07B681B68534A8C
:10059400934220D07B681B68574A934219D07B68EA
:1005A4001B68564A934212D07B681B68544A934294
:1005B4000AD07B681B68534A934202D14FF480539C
:1005C4001BE04FF4803318E04FF4807315E01023E0
:1005D40013E0012311E04FF080730EE04FF4801319
:1005E4000BE04FF4803308E04FF4805305E04FF400
:1005F400807302E0102300E00123434A536057E074
:100604007B681B68364A93424FD07B681B68354A27
:10061400934248D07B681B68334A934240D07B683E
:100624001B68324A934238D07B681B68304A934235
:1006340030D07B681B682F4A934228D07B681B68A4
:10064400264A934220D07B681B682B4A934219D0D8
:100654007B681B68294A934212D07B681B68284A2E
:1006640093420AD07B681B68264A934202D14FF416
:1006740080531BE04FF4803318E04FF4807315E08F
:10068400102313E0012311E04FF080730EE04FF4C8
:1006940080130BE04FF4803308E04FF4805305E0FF
:1006A4004FF4807302E0102300E00123174A5360E3
:1006B4007B68012283F821207B68002283F82020B4
:1006C4007B685B6B002B03D07B685B6B7868984717
:1006D400FB7B18461037BD4680BD00BF800002403A
:1006E400080002401C000240300002404400024066
:1006F400580002406C000240080402401C040240FE
:10070400300402404404024000040240000002405D
:1007140080B48BB000AF7860396000237B62002323
:100724003B6279E101227B6A02FA03F3FB613B68D5
:100734001B68FA691340BB61BA69FB699A4240F0CD
:1007440068813B685B68A04A93425ED09E4A9342AC
:1007540075D89E4A934258D09C4A93426FD89C4A7B
:10076400934252D09A4A934269D89A4A93424CD0BF
:10077400984A934263D8984A934246D0964A934201
:100784005DD8122B2AD8122B59D801A252F823F083
:100794000F080008E9070008FB0700083D080008E7
:1007A40043080008430800084308000843080008F9
:1007B40043080008430800084308000843080008E9
:1007C40043080008430800084308000843080008D9
:1007D40043080008F1070008050800087F4A93420F
:1007E40013D02CE03B68DB683B6229E03B68DB68A4
:1007F40004333B6224E03B68DB6808333B621FE060
:100804003B68DB680C333B621AE03B689B68002B57
:1008140002D104233B6213E03B689B68012B05D1A2
:1008240008233B627B68FA691A6109E008233B628A
:100834007B68FA695A6103E000233B6200E000BF71
:10084400BB69FF2B01D87B6801E07B6804337B61C3
:10085400BB69FF2B02D87B6A9B0002E07B6A083BE2
:100864009B003B617B691A680F213B6901FA03F322
:10087400DB431A40396A3B6901FA03F31A437B6983
:100884001A603B685B6803F08053002B00F0C18062
:10089400534B9B69524A43F001039361504B9B694C
:1008A40003F00103BB60BB684E4A7B6A9B080233BA
:1008B40052F82330FB607B6A03F003039B000F2292
:1008C40002FA03F3DB43FA681340FB607B68464A91
:1008D40093421FD07B68454A934219D07B68444AAF
:1008E400934213D07B68434A93420DD07B68424ABB
:1008F400934207D07B68414A934201D105230AE021
:10090400062308E0042306E0032304E0022302E0B4
:10091400012300E000237A6A02F00302920093406C
:10092400FA681343FB602F497B6A9B080233FA6819
:1009340041F823203B685B6803F48033002B06D026
:100944002F4B1A682E49BB6913430B6006E02C4BEE
:100954001A68BB69DB432A4913400B603B685B6838
:1009640003F40033002B06D0254B5A682449BB6995
:1009740013434B6006E0224B5A68BB69DB432049B2
:1009840013404B603B685B6803F48013002B06D074
:100994001B4B9A681A49BB6913438B6006E0184BDA
:1009A4009A68BB69DB43164913408B603B685B68FC
:1009B40003F40013002B25D0114BDA681049BB69EE
:1009C4001343CB6025E000BF00003210000031105B
:1009D400000022100000211000001210000011106D
:1009E400001002400000014000080140000C0140DA
:1009F400001001400014014000180140001C014097
:100A0400000401400B4BDA68BB69DB43094913401E
:100A1400CB607B6A01337B623B681A687B6A22FA8B
:100A240003F3002B7FF47EAE00BF00BF2C37BD461E
:100A340080BC70470004014080B483B000AF78608C
:100A44000B467B8013467B707B78002B03D07A881F
:100A54007B681A6103E07B881A047B681A6100BF13
:100A64000C37BD4680BC704780B586B000AF786057
:100A74007B68002B01D101236CE27B681B6803F0C7
:100A84000103002B00F08780924B5B6803F00C039A
:100A9400042B0CD08F4B5B6803F00C03082B12D192
:100AA4008C4B5B6803F48033B3F5803F0BD1894BE7
:100AB4001B6803F40033002B6CD07B685B68002B4D
:100AC40068D1012346E27B685B68B3F5803F06D1B9
:100AD400804B1B687F4A43F4803313602EE07B68AD
:100AE4005B68002B0CD17B4B1B687A4A23F4803360
:100AF4001360784B1B68774A23F4802313601DE04E
:100B04007B685B68B3F5A02F0CD1724B1B68714AEC
:100B140043F4802313606F4B1B686E4A43F48033A5
:100B240013600BE06B4B1B686A4A23F48033136039
:100B3400684B1B68674A23F4802313607B685B68F7
:100B4400002B13D0FFF7C4FB386108E0FFF7C0FBAC
:100B540002463B69D31A642B01D90323FAE15D4BA6
:100B64001B6803F40033002BF0D014E0FFF7B0FB54
:100B7400386108E0FFF7ACFB02463B69D31A642BEB
:100B840001D90323E6E1534B1B6803F40033002B24
:100B9400F0D100E000BF7B681B6803F00203002B68
:100BA40063D04C4B5B6803F00C03002B0BD0494B18
:100BB4005B6803F00C03082B1CD1464B5B6803F401
:100BC4008033002B16D1434B1B6803F00203002B28
:100BD40005D07B681B69012B01D00123BAE13D4B91
:100BE4001B6823F0F8027B685B69DB003949134317
:100BF4000B603AE07B681B69002B20D0364B012246
:100C04001A60FFF765FB386108E0FFF761FB0246F5
:100C14003B69D31A022B01D903239BE12D4B1B689B
:100C240003F00203002BF0D02A4B1B6823F0F802D8
:100C34007B685B69DB00274913430B6015E0264B97
:100C440000221A60FFF744FB386108E0FFF740FB1D
:100C540002463B69D31A022B01D903237AE11D4BC7
:100C64001B6803F00203002BF0D17B681B6803F0C0
:100C74000803002B3AD07B689B69002B19D0174BD3
:100C840001221A60FFF724FB386108E0FFF720FB1C
:100C940002463B69D31A022B01D903235AE10D4BB7
:100CA4005B6A03F00203002BF0D0012000F0D8FAB5
:100CB4001CE00A4B00221A60FFF70AFB38610FE0C0
:100CC400FFF706FB02463B69D31A022B08D903231C
:100CD40040E100BF00100240000042428004424252
:100CE4009E4B5B6A03F00203002BE9D17B681B680F
:100CF40003F00403002B00F0A6800023FB75974B40
:100D0400DB6903F08053002B0DD1944BDB69934ACC
:100D140043F08053D361914BDB6903F08053BB6094
:100D2400BB680123FB758E4B1B6803F48073002B97
:100D340018D18B4B1B688A4A43F480731360FFF706
:100D4400C7FA386108E0FFF7C3FA02463B69D31AD1
:100D5400642B01D90323FDE0814B1B6803F48073EA
:100D6400002BF0D07B68DB68012B06D17B4B1B6A20
:100D74007A4A43F0010313622DE07B68DB68002BA1
:100D84000CD1764B1B6A754A23F001031362734B33
:100D94001B6A724A23F0040313621CE07B68DB685D
:100DA400052B0CD16D4B1B6A6C4A43F00403136290
:100DB4006A4B1B6A694A43F0010313620BE0674BF9
:100DC4001B6A664A23F001031362644B1B6A634A7D
:100DD40023F0040313627B68DB68002B15D0FFF754
:100DE40077FA38610AE0FFF773FA02463B69D31ACF
:100DF40041F28832934201D90323ABE0574B1B6A7B
:100E040003F00203002BEED014E0FFF761FA38611F
:100E14000AE0FFF75DFA02463B69D31A41F28832D1
:100E2400934201D9032395E04C4B1B6A03F0020360
:100E3400002BEED1FB7D012B05D1484BDB69474AE2
:100E440023F08053D3617B68DB69002B00F0818041
:100E5400424B5B6803F00C03082B61D07B68DB69B1
:100E6400022B46D13F4B00221A60FFF731FA38615A
:100E740008E0FFF72DFA02463B69D31A022B01D989
:100E8400032367E0354B1B6803F00073002BF0D19C
:100E94007B681B6AB3F5803F08D1304B5B6823F451
:100EA40000327B689B682D4913434B602B4B5B6876
:100EB40023F474127B68196A7B685B6A0B432749C5
:100EC40013434B60274B01221A60FFF701FA386184
:100ED40008E0FFF7FDF902463B69D31A022B01D95A
:100EE400032337E01D4B1B6803F00073002BF0D085
:100EF4002FE01C4B00221A60FFF7EAF9386108E082
:100F0400FFF7E6F902463B69D31A022B01D9032302
:100F140020E0124B1B6803F00073002BF0D118E0A3
:100F24007B68DB69012B01D1012313E00B4B5B6868
:100F3400FB60FB6803F480327B681B6A9A4206D12B
:100F4400FB6803F470127B685B6A9A4201D0012348
:100F540000E0002318461837BD4680BD001002404B
:100F6400007000406000424280B584B000AF7860F9
:100F740039607B68002B01D10123D0E06A4B1B68E8
:100F840003F007033A689A4210D9674B1B6823F0B1
:100F9400070265493B6813430B60634B1B6803F00E
:100FA40007033A689A4201D00123B8E07B681B68C2
:100FB40003F00203002B20D07B681B6803F00403BA
:100FC400002B05D0594B5B68584A43F4E0635360E7
:100FD4007B681B6803F00803002B05D0534B5B6848
:100FE400524A43F460535360504B5B6823F0F00261
:100FF4007B689B684D4913434B607B681B6803F017
:101004000103002B40D07B685B68012B07D1474B61
:101014001B6803F40033002B15D101237FE07B68A8
:101024005B68022B07D1414B1B6803F00073002B54
:1010340009D1012373E03D4B1B6803F00203002B2D
:1010440001D101236BE0394B5B6823F003027B6819
:101054005B68364913434B60FFF73AF9F8600AE0DE
:10106400FFF736F90246FB68D31A41F288329342FD
:1010740001D9032353E02D4B5B6803F00C027B681A
:101084005B689B009A42EBD1274B1B6803F0070374
:101094003A689A4210D2244B1B6823F00702224973
:1010A4003B6813430B60204B1B6803F007033A684B
:1010B4009A4201D0012332E07B681B6803F00403E9
:1010C400002B08D0194B5B6823F4E0627B68DB6873
:1010D400164913434B607B681B6803F00803002B1D
:1010E40009D0124B5B6823F460527B681B69DB00F8
:1010F4000E4913434B6000F021F802460B4B5B682A
:101104001B0903F00F030A49CB5C22FA03F3094AD3
:101114001360094B1B681846FFF798F8002318461C
:101124001037BD4680BD00BF0020024000100240C1
:101134006C220008240000200000002090B48AB033
:1011440000AF2A4B3C1D0FCB84E80F0040F2012373
:101154003B800023FB610023BB6100237B620023EF
:101164007B6100233B62224B5B68FB61FB6903F0FC
:101174000C03042B02D0082B03D02DE01D4B3B6243
:101184002DE0FB699B0C03F00F0307F128021344C5
:1011940013F8243C7B61FB6903F48033002B13D0E8
:1011A400134B5B685B0C03F0010307F12802134443
:1011B40013F8283CBB617B690E4A02FB03F2BB694E
:1011C400B2FBF3F37B6204E07B690B4A02FB03F39B
:1011D4007B627B6A3B6202E0064B3B6200BF3B6A78
:1011E40018462837BD4690BC704700BF5C220008F3
:1011F4000010024000127A0000093D0080B400AFE4
:10120400024B1B681846BD4680BC70472400002072
:1012140080B500AFFFF7F2FF0246054B5B681B0A7F
:1012240003F007030349CB5C22FA03F3184680BD9D
:10123400001002407C22000880B500AFFFF7DEFFFB
:101244000246054B5B68DB0A03F007030349CB5CEA
:1012540022FA03F3184680BD001002407C220008E5
:1012640080B485B000AF78600A4B1B680A4AA2FBC1
:1012740003235B0A7A6802FB03F3FB6000BFFB688D
:101284005A1EFA60002BF9D100BF00BF1437BD46C7
:1012940080BC704724000020D34D621080B582B01A
:1012A40000AF78607B68002B01D101233FE07B68AD
:1012B40093F83930DBB2002B06D17B68002283F827
:1012C4003820786800F05EFE7B68242283F8392099
:1012D4007B681B68DA687B681B6822F40052DA605A
:1012E400786800F08BFB7B681B681A697B681B6855
:1012F40022F490421A617B681B685A697B681B68F8
:1013040022F02A025A617B681B68DA687B681B68D2
:1013140042F40052DA607B680022DA637B682022A0
:1013240083F839207B68202283F83A20002318466A
:101334000837BD4680BD80B588B002AFF860B9609B
:101344003B601346FB8000237B61FB6893F83930D4
:10135400DBB2202B40F08380BB68002B02D0FB88DB
:10136400002B01D101237BE0FB6893F83830012B7B
:1013740001D1022374E0FB68012283F83820FB6862
:101384000022DA63FB68212283F83920FEF7A0FFEC
:101394007861FB68FA889A84FB68FA88DA8442E008
:1013A400FB68DB8C9BB2013B9AB2FB68DA84FB6876
:1013B4009B68B3F5805F22D13B6800937B69002270
:1013C4008021F86800F0B0F90346002B01D0032314
:1013D40046E0BB683B613B691B881A46FB681B6897
:1013E400C2F308025A60FB681B69002B03D1BB6877
:1013F4000233BB6017E0BB680133BB6013E03B689A
:1014040000937B6900228021F86800F08DF903467F
:10141400002B01D0032323E0BB685A1CBA601A785E
:10142400FB681B685A60FB68DB8C9BB2002BB7D14E
:101434003B6800937B6900224021F86800F074F94E
:101444000346002B01D003230AE0FB68202283F823
:101454003920FB68002283F83820002300E00223AF
:1014640018461837BD4680BD80B485B000AFF8601B
:10147400B9601346FB80FB6893F83A30DBB2202B4B
:1014840040D1BB68002B02D0FB88002B01D1012383
:1014940039E0FB6893F83830012B01D1022332E0A4
:1014A400FB68012283F83820FB68BA689A62FB68FB
:1014B400FA889A85FB68FA88DA85FB680022DA6381
:1014C400FB68222283F83A20FB68002283F8382044
:1014D400FB681B68DA68FB681B6842F48072DA6098
:1014E400FB681B685A69FB681B6842F001025A6179
:1014F400FB681B68DA68FB681B6842F02002DA604C
:10150400002300E0022318461437BD4680BC704710
:1015140080B588B000AF78607B681B681B68FB618E
:101524007B681B68DB68BB617B681B685B697B61EC
:1015340000233B610023FB60FB6903F00F033B6165
:101544003B69002B0DD1FB6903F02003002B08D06D
:10155400BB6903F02003002B03D0786800F0CCF9BA
:10156400CBE03B69002B00F0AB807B6903F0010307
:10157400002B05D1BB6903F49073002B00F0A0800D
:10158400FB6903F00103002B0AD0BB6903F48073E9
:10159400002B05D07B68DB6B43F001027B68DA63C8
:1015A400FB6903F00403002B0AD07B6903F00103F9
:1015B400002B05D07B68DB6B43F002027B68DA63A7
:1015C400FB6903F00203002B0AD07B6903F00103DB
:1015D400002B05D07B68DB6B43F004027B68DA6385
:1015E400FB6903F00803002B0AD07B6903F00103B5
:1015F400002B05D07B68DB6B43F008027B68DA6361
:101604007B68DB6B002B77D0FB6903F02003002B96
:1016140007D0BB6903F02003002B02D0786800F0E8
:101624006BF97B681B685B6903F04003002B14BFF4
:1016340001230023DBB2FB607B68DB6B03F0080350
:10164400002B02D1FB68002B31D0786800F0B6F88B
:101654007B681B685B6903F04003002B23D07B6825
:101664001B685A697B681B6822F040025A617B68D8
:101674005B6B002B13D07B685B6B214A5A637B68DE
:101684005B6B1846FEF73CFF0346002B16D07B68C5
:101694005B6B5B6B7A68526B104698470EE0786818
:1016A40000F039F80AE0786800F035F806E0786868
:1016B40000F031F87B680022DA631DE000BF1BE014
:1016C400FB6903F08003002B08D0BB6903F080039F
:1016D400002B03D0786800F0A2F80EE0FB6903F059
:1016E4004003002B09D0BB6903F04003002B04D056
:1016F400786800F0E9F800E000BF2037BD4680BDFF
:10170400FB17000880B483B000AF786000BF0C37CB
:10171400BD4680BC704780B483B000AF786000BF22
:101724000C37BD4680BC704780B584B000AFF8600C
:10173400B9603B601346FB712CE0BB69B3F1FF3F1A
:1017440028D0BB69002B07D0FEF7C2FD02463B68D8
:10175400D31ABA699A421DD2FB681B68DA68FB681F
:101764001B6822F4D072DA60FB681B685A69FB6854
:101774001B6822F001025A61FB68202283F8392099
:10178400FB68202283F83A20FB68002283F8382083
:1017940003230FE0FB681B681A68BB681340BA6830
:1017A4009A420CBF01230023DBB21A46FB799A420A
:1017B400C3D0002318461037BD4680BD80B483B023
:1017C40000AF78607B681B68DA687B681B6822F46A
:1017D4009072DA607B681B685A697B681B6822F028
:1017E40001025A617B68202283F83A2000BF0C373B
:1017F400BD4680BC704780B584B000AF78607B681C
:101804005B6AFB60FB680022DA85FB680022DA84ED
:10181400F868FFF780FF00BF1037BD4680BD80B475
:1018240085B000AF78607B6893F83930DBB2212B48
:1018340044D17B689B68B3F5805F1AD17B681B6ACF
:10184400FB60FB681B881A467B681B68C2F30802AE
:101854005A607B681B69002B05D17B681B6A9A1C44
:101864007B681A620EE07B681B6A5A1C7B681A62EA
:1018740008E07B681B6A591C7A6811621A787B68D5
:101884001B685A607B68DB8C9BB2013B9BB27A6815
:101894001946D184002B0FD17B681B68DA687B68FA
:1018A4001B6822F08002DA607B681B68DA687B6858
:1018B4001B6842F04002DA60002300E0022318466D
:1018C4001437BD4680BC704780B582B000AF7860E5
:1018D4007B681B68DA687B681B6822F04002DA6068
:1018E4007B68202283F839207868FFF70BFF0023F8
:1018F40018460837BD4680BD80B584B000AF786017
:101904007B6893F83A30DBB2222B71D17B689B68F9
:10191400B3F5805F23D17B689B6AFB607B681B699E
:10192400002B0ED17B681B685B689BB2C3F3080372
:101934009AB2FB681A807B689B6A9A1C7B689A62DD
:1019440029E07B681B685B689BB2DBB29AB2FB68D8
:101954001A807B689B6A5A1C7B689A621BE07B68CE
:101964001B69002B0AD17B681B6858687B689B6ADB
:10197400591C7A689162C2B21A700CE07B681B68C9
:101984005B68DAB27B689B6A581C7968886202F0EB
:101994007F02D2B21A707B68DB8D9BB2013B9BB293
:1019A4007A681946D185002B20D17B681B68DA68D8
:1019B4007B681B6822F02002DA607B681B68DA68A7
:1019C4007B681B6822F48072DA607B681B685A6942
:1019D4007B681B6822F001025A617B68202283F82D
:1019E4003A20786800F03CF9002302E0002300E08C
:1019F400022318461037BD4680BD000080B584B070
:101A040000AF78607B681B681B6923F440517B68D6
:101A1400DA687B681B680A431A617B689A687B688A
:101A24001B691A437B685B691343FB607B681B6813
:101A3400DB6823F4B05323F00C037A681268F96866
:101A44000B43D3607B681B685B6923F440717B683C
:101A54009A697B681B680A435A617B681B68524A0F
:101A640093424ED1FFF7E8FBB860BA6813469B0077
:101A740013449A001A447B685B689B00B2FBF3F33F
:101A84004A4AA2FB03235B091901BA6813469B0067
:101A940013449A001A447B685B689B00B2FBF3F220
:101AA400424BA3FB02035B09642000FB03F3D31A3C
:101AB4001B0132333D4AA2FB03235B0903F0F0030D
:101AC4001944BA6813469B0013449A001A447B686D
:101AD4005B689B00B2FBF3F2344BA3FB02035B098C
:101AE400642000FB03F3D31A1B0132332F4AA2FBF9
:101AF40003235B0903F00F027B681B680A449A60A6
:101B04004DE0FFF785FBB860BA6813469B001344A9
:101B14009A001A447B685B689B00B2FBF3F3234A88
:101B2400A2FB03235B091901BA6813469B00134403
:101B34009A001A447B685B689B00B2FBF3F21B4B70
:101B4400A3FB02035B09642000FB03F3D31A1B010C
:101B54003233164AA2FB03235B0903F0F003194452
:101B6400BA6813469B0013449A001A447B685B6866
:101B74009B00B2FBF3F20D4BA3FB02035B09642051
:101B840000FB03F3D31A1B013233084AA2FB0323DD
:101B94005B0903F00F027B681B680A449A6000BF6C
:101BA4001037BD4680BD00BF003801401F85EB5192
:101BB40080B588B000AF07F1100300221A605A60A4
:101BC4009A60DA60234B9B69224A43F04003936195
:101BD400204B9B6903F04003FB60FB681D4B9B6932
:101BE4001C4A43F0100393611A4B9B6903F01003E2
:101BF400BB60BB68174B9B69164A43F004039361AF
:101C0400144B9B6903F004037B607B6801227F21F2
:101C14001148FEF711FF7F233B6101237B61002301
:101C2400BB610223FB6107F1100319460A48FEF762
:101C34006FFD4FF400533B6100237B610123BB61C3
:101C440007F1100319460548FEF762FD00BF20376F
:101C5400BD4680BD00100240001801400010014044
:101C640080B582B000AF78607B681B68224A9342DB
:101C74003ED1224B1B78012B1BD10022022120488C
:101C8400FEF7DAFE002201211D48FEF7D5FE42F2DE
:101C9400107307221B491C48FFF74DFB0122012149
:101CA4001748FEF7C9FE012214491748FFF7DCFB69
:101CB4001EE0124B1B78022B1AD10122022110487C
:101CC400FEF7BAFE002201210D48FEF7B5FE42F2EE
:101CD400107308220D490C48FFF72DFB0122012146
:101CE4000748FEF7A9FE012204490748FFF7BCFB99
:101CF40000BF0837BD4680BD003801407404002091
:101D04000018014014000020780400201C0000206A
:101D140080B500AFFEF784FA00F024F8FFF748FF1F
:101D240000F006F9002202210A48FEF785FE01228E
:101D340009490A48FFF798FB012202210548FEF7EA
:101D44007BFE42F210730C2205490448FFF7F3FAB4
:101D5400FEE700BF0018014074040020780400204E
:101D64000800002080B590B000AF07F118032822C6
:101D74000021184600F0A4F93B1D00221A605A60A5
:101D84009A60DA601A610123BB614FF48033FB610E
:101D940000233B620123BB6202237B634FF4803345
:101DA400BB634FF4E013FB6307F118031846FEF717
:101DB4005BFE0346002B01D000F019F80F237B6073
:101DC4000223BB600023FB604FF480633B6100236C
:101DD4007B613B1D02211846FFF7C6F80346002B22
:101DE40001D000F004F800BF4037BD4680BD80B488
:101DF40000AF00BFBD4680BC7047000080B485B012
:101E040000AF154B9B69144A43F001039361124BD5
:101E14009B6903F00103BB60BB680F4BDB690E4A8F
:101E240043F08053D3610C4BDB6903F080537B6038
:101E34007B680A4B5B68FB60FB6823F0E063FB6034
:101E4400FB6843F00073FB60044AFB68536000BF07
:101E54001437BD4680BC70470010024000000140AA
:101E640080B400AF00BFBD4680BC704780B400AFF3
:101E7400FEE780B400AFFEE780B400AFFEE780B4B5
:101E840000AFFEE780B400AF00BFBD4680BC704722
:101E940080B400AF00BFBD4680BC704780B400AFC3
:101EA40000BFBD4680BC704780B500AFFEF7FEF9A9
:101EB40000BF80BD80B500AF0248FFF729FB00BF1B
:101EC40080BD00BF7804002080B400AF154B1B68B0
:101ED400144A43F001031360124B5A681149124B20
:101EE40013404B600F4B1B680E4A23F0847323F49A
:101EF400803313600B4B1B680A4A23F4802313605E
:101F0400084B5B68074A23F4FE035360054B4FF408
:101F14001F029A60054B4FF000629A6000BFBD46F5
:101F240080BC7047001002400000FFF800ED00E0A4
:101F340080B500AF114B124A1A60104B4FF4E132D6
:101F44005A600E4B00229A600C4B0022DA600B4B55
:101F540000221A61094B0C225A61084B00229A6133
:101F6400064B0022DA610548FFF798F90346002B77
:101F740001D0FFF73CFF00BF80BD00BF7804002004
:101F84000038014080B588B000AF786007F11003D5
:101F940000221A605A609A60DA607B681B68204AE3
:101FA400934239D11F4B9B691E4A43F4804393618A
:101FB4001C4B9B6903F48043FB60FB68194B9B69D2
:101FC400184A43F004039361164B9B6903F004031E
:101FD400BB60BB684FF400733B6102237B61032346
:101FE400FB6107F1100319460F48FEF791FB4FF40C
:101FF40080633B6100237B610023BB6107F1100315
:1020040019460948FEF784FB002200212520FEF72B
:1020140040FA2520FEF759FA00BF2037BD4680BD9F
:10202400003801400010024000080140002103E094
:102034000B4B5B58435004310A480B4B42189A42ED
:10204400F6D30A4A02E0002342F8043B084B9A42C2
:10205400F9D3FFF739FF00F00FF8FFF759FE704787
:10206400942200080000002054040020540400209E
:10207400DC040020FEE7000070B50D4E0D4D761B0C
:10208400B61006D0002455F8043B01349847A64204
:10209400F9D1094E094D00F0D3F8761BB61006D0DD
:1020A400002455F8043B01349847A642F9D170BD89
:1020B400882200088822000890220008882200084C
:1020C400F0B4860746D0541E002A3CD00346CAB258
:1020D40001E0013C37D303F8012B9D07F9D1032C10
:1020E4002AD9CDB245EA05250F2C45EA054534D950
:1020F400A4F1100222F00F0C03F120071609674423
:1021040003F1100242E9045542E902551032BA4281
:10211400F8D1721C14F00C0F03EB021204F00F063A
:1021240013D0331F23F003030433134442F8045B36
:102134009342FBD106F003042CB1CAB21C4403F849
:10214400012B9C42FBD1F0BC704734461346002C53
:10215400F3D1F8E714460346C1E71A462646E0E7FA
:10216400024B13B1024800F005B8704700000000AC
:1021740085210008002301461A46184600F01AB8C3
:1021840038B5084B084D5B1B9C1007D0043B1D441D
:10219400013C55F804399847002CF9D1BDE8384082
:1021A40000F054B89422000890220008704700BF41
:1021B400704700BF2DE9F047DFF880A00646DAF843
:1021C400000098460F469146FFF7F0FF1A4B1B6834
:1021D400D3F8484124B365681F2D26DC5EB96B1C17
:1021E4000235DAF80000636044F82570FFF7E0FF79
:1021F4000020BDE8F087012304EB8501C1F8889035
:10220400D4F88821AB401A43022EC4F88821C1F8BF
:102214000881E4D1D4F88C211343C4F88C31DEE76F
:1022240003F5A674C3F84841D5E7DAF80000FFF7D0
:10223400BFFF4FF0FF30DCE7842200085004002089
:10224400F8B500BFF8BC08BC9E467047F8B500BF9F
:08225400F8BC08BC9E4670476F
:10225C0002030405060708090A0B0C0D0E0F1010DB
:10226C00000000000000000001020304060708093A
:0C227C0000000000010203042800002004
:082288006521000809020008AD
:04229000E50100085C
:10229400100000000100000068656C6C6F636865E5
:1022A4006E0D0A006F70656E0D0A0000636C6F732B
:1022B400650D0A000024F40000000000140300204F
:1022C4007C030020E4030020000000000000000064
:1022D40000000000000000000000000000000000FA
:1022E40000000000000000000000000000000000EA
:1022F40000000000000000000000000000000000DA
:1023040000000000000000000000000000000000C9
:1023140000000000000000000000000000000000B9
:1023240000000000000000000000000000000000A9
:102334000000000000000000000000000000000099
:102344000000000000000000000000000000000089
:102354000000000000000000000000000000000079
:1023640001000000000000000E33CDAB34126DE616
:10237400ECDE05000B00000000000000000000007F
:102384000000000000000000000000000000000049
:102394000000000000000000000000000000000039
:1023A4000000000000000000000000000000000029
:1023B4000000000000000000000000000000000019
:0426E400B804002016
:04000005080020319E
:00000001FF
