:020000040800F2
:10000000000001208D1800080517000811170008CE
:10001000171700081D17000823170008000000002C
:100020000000000000000000000000002917000888
:100030003517000800000000411700084D170008A0
:10004000D5180008D5180008D5180008D5180008DC
:10005000D5180008D5180008D5180008D5180008CC
:10006000D5180008D5180008D5180008D5180008BC
:10007000D5180008D5180008D5180008D5180008AC
:10008000D5180008D5180008D5180008D51800089C
:10009000D5180008D5180008D5180008D51800088C
:1000A000D5180008D5180008D5180008D51800087C
:1000B000D5180008D5180008D5180008D51800086C
:1000C000D5180008D5180008D5180008D51800085C
:1000D000D5180008D5180008D5180008D51800084C
:1000E000D5180008D5180008D5180008D51800083C
:1000F000D5180008D5180008D5180008D51800082C
:10010000D5180008D5180008D5180008D51800081B
:10011000D5180008D518000859170008D518000888
:10012000D5180008D5180008D5180008D5180008FB
:1001300000000000000000000000000000000000BF
:1001400000000000000000000000000000000000AF
:10015000000000000000000000000000000000009F
:10016000000000000000000000000000000000008F
:10017000000000000000000000000000000000007F
:10018000000000000000000000000000000000006F
:10019000000000000000000000000000000000005F
:1001A000000000000000000000000000000000004F
:1001B000000000000000000000000000000000003F
:1001C000000000000000000000000000000000002F
:1001D000000000000000000000000000000000001F
:0401E0005FF8E0F1F3
:1001E40010B5054C237833B9044B13B10448AFF36D
:1001F40000800123237010BD3C0400200000000097
:10020400A01A000808B5034B1BB103490348AFF318
:10021400008008BD0000000040040020A01A00086F
:1002240080B500AF084B1B68074A43F01003136006
:10023400032000F023F9002000F008F801F02EFA62
:100244000023184680BD00BF0020024080B582B064
:1002540000AF7860124B1A68124B1B7819464FF4A2
:100264007A73B3FBF1F3B2FBF3F3184600F03BF9F6
:100274000346002B01D001230EE07B680F2B0AD824
:10028400002279684FF0FF3000F003F9064A7B68DA
:100294001360002300E0012318460837BD4680BDE3
:1002A4000C000020040000200000002080B400AFF7
:1002B400054B1B781A46054B1B681344034A13600D
:1002C40000BFBD4680BC70470400002058040020D5
:1002D40080B400AF024B1B681846BD4680BC704713
:1002E4005804002080B485B000AF78607B6803F0C8
:1002F4000703FB600C4BDB68BB60BA684FF6FF0377
:100304001340BB60FB681A02BB68134343F0BF632E
:1003140043F40033BB60044ABB68D36000BF1437A6
:10032400BD4680BC704700BF00ED00E080B400AF64
:10033400044BDB681B0A03F007031846BD4680BC68
:10034400704700BF00ED00E080B483B000AF034607
:10035400FB7197F90730002B0BDBFB7903F01F02CD
:10036400064997F907305B09012000FA02F241F8C7
:10037400232000BF0C37BD4680BC704700E100E07D
:1003840080B483B000AF03463960FB7197F907303E
:10039400002B0ADB3B68DAB20C4997F907301201EB
:1003A400D2B20B4483F800230AE03B68DAB208496E
:1003B400FB7903F00F03043B1201D2B20B441A760B
:1003C40000BF0C37BD4680BC704700BF00E100E0B1
:1003D40000ED00E080B489B000AFF860B9607A60E5
:1003E400FB6803F00703FB61FB69C3F10703042BFC
:1003F40028BF0423BB61FB690433062B02D9FB69C4
:10040400033B00E000237B614FF0FF32BB6902FA3B
:1004140003F3DA43BB681A407B699A404FF0FF311B
:100424007B6901FA03F3D9437B680B4013431846F5
:100434002437BD4680BC704780B582B000AF786079
:100444007B68013BB3F1807F01D301230FE00A4AAB
:100454007B68013B53600F214FF0FF30FFF790FFA3
:10046400054B00229A60044B07221A6000231846A9
:100474000837BD4680BD00BF10E000E080B582B003
:1004840000AF78607868FFF72DFF00BF0837BD46DE
:1004940080BD80B586B000AF0346B9607A60FB7357
:1004A40000237B61FFF742FF78617A68B968786955
:1004B400FFF790FF024697F90F3011461846FFF7F1
:1004C4005FFF00BF1837BD4680BD80B582B000AF66
:1004D4000346FB7197F907301846FFF735FF00BF55
:1004E4000837BD4680BD80B582B000AF78607868BB
:1004F400FFF7A2FF034618460837BD4680BD00003B
:1005040080B48BB000AF7860396000237B62002335
:100514003B6279E101227B6A02FA03F3FB613B68E7
:100524001B68FA691340BB61BA69FB699A4240F0DF
:1005340068813B685B68A04A93425ED09E4A9342BE
:1005440075D89E4A934258D09C4A93426FD89C4A8D
:10055400934252D09A4A934269D89A4A93424CD0D1
:10056400984A934263D8984A934246D0964A934213
:100574005DD8122B2AD8122B59D801A252F823F095
:10058400FF050008D9050008EB0500082D06000842
:100594003306000833060008330600083306000853
:1005A4003306000833060008330600083306000843
:1005B4003306000833060008330600083306000833
:1005C40033060008E1050008F50500087F4A934258
:1005D40013D02CE03B68DB683B6229E03B68DB68B6
:1005E40004333B6224E03B68DB6808333B621FE072
:1005F4003B68DB680C333B621AE03B689B68002B6A
:1006040002D104233B6213E03B689B68012B05D1B4
:1006140008233B627B68FA691A6109E008233B629C
:100624007B68FA695A6103E000233B6200E000BF83
:10063400BB69FF2B01D87B6801E07B6804337B61D5
:10064400BB69FF2B02D87B6A9B0002E07B6A083BF4
:100654009B003B617B691A680F213B6901FA03F334
:10066400DB431A40396A3B6901FA03F31A437B6995
:100674001A603B685B6803F08053002B00F0C18074
:10068400534B9B69524A43F001039361504B9B695E
:1006940003F00103BB60BB684E4A7B6A9B080233CC
:1006A40052F82330FB607B6A03F003039B000F22A4
:1006B40002FA03F3DB43FA681340FB607B68464AA3
:1006C40093421FD07B68454A934219D07B68444AC1
:1006D400934213D07B68434A93420DD07B68424ACD
:1006E400934207D07B68414A934201D105230AE033
:1006F400062308E0042306E0032304E0022302E0C7
:10070400012300E000237A6A02F00302920093407E
:10071400FA681343FB602F497B6A9B080233FA682B
:1007240041F823203B685B6803F48033002B06D038
:100734002F4B1A682E49BB6913430B6006E02C4B00
:100744001A68BB69DB432A4913400B603B685B684A
:1007540003F40033002B06D0254B5A682449BB69A7
:1007640013434B6006E0224B5A68BB69DB432049C4
:1007740013404B603B685B6803F48013002B06D086
:100784001B4B9A681A49BB6913438B6006E0184BEC
:100794009A68BB69DB43164913408B603B685B680E
:1007A40003F40013002B25D0114BDA681049BB6900
:1007B4001343CB6025E000BF00003210000031106D
:1007C400000022100000211000001210000011107F
:1007D400001002400000014000080140000C0140EC
:1007E400001001400014014000180140001C0140A9
:1007F400000401400B4BDA68BB69DB430949134031
:10080400CB607B6A01337B623B681A687B6A22FA9D
:1008140003F3002B7FF47EAE00BF00BF2C37BD4630
:1008240080BC70470004014080B483B000AF78609E
:100834000B467B8013467B707B78002B03D07A8831
:100844007B681A6103E07B881A047B681A6100BF25
:100854000C37BD4680BC704780B586B000AF786069
:100864007B68002B01D101236CE27B681B6803F0D9
:100874000103002B00F08780924B5B6803F00C03AC
:10088400042B0CD08F4B5B6803F00C03082B12D1A4
:100894008C4B5B6803F48033B3F5803F0BD1894BF9
:1008A4001B6803F40033002B6CD07B685B68002B5F
:1008B40068D1012346E27B685B68B3F5803F06D1CB
:1008C400804B1B687F4A43F4803313602EE07B68BF
:1008D4005B68002B0CD17B4B1B687A4A23F4803372
:1008E4001360784B1B68774A23F4802313601DE060
:1008F4007B685B68B3F5A02F0CD1724B1B68714AFF
:1009040043F4802313606F4B1B686E4A43F48033B7
:1009140013600BE06B4B1B686A4A23F4803313604B
:10092400684B1B68674A23F4802313607B685B6809
:10093400002B13D0FFF7CCFC386108E0FFF7C8FCAC
:1009440002463B69D31A642B01D90323FAE15D4BB8
:100954001B6803F40033002BF0D014E0FFF7B8FC5D
:10096400386108E0FFF7B4FC02463B69D31A642BF4
:1009740001D90323E6E1534B1B6803F40033002B36
:10098400F0D100E000BF7B681B6803F00203002B7A
:1009940063D04C4B5B6803F00C03002B0BD0494B2A
:1009A4005B6803F00C03082B1CD1464B5B6803F413
:1009B4008033002B16D1434B1B6803F00203002B3A
:1009C40005D07B681B69012B01D00123BAE13D4BA3
:1009D4001B6823F0F8027B685B69DB003949134329
:1009E4000B603AE07B681B69002B20D0364B012258
:1009F4001A60FFF76DFC386108E0FFF769FC0246F6
:100A04003B69D31A022B01D903239BE12D4B1B68AD
:100A140003F00203002BF0D02A4B1B6823F0F802EA
:100A24007B685B69DB00274913430B6015E0264BA9
:100A340000221A60FFF74CFC386108E0FFF748FC1D
:100A440002463B69D31A022B01D903237AE11D4BD9
:100A54001B6803F00203002BF0D17B681B6803F0D2
:100A64000803002B3AD07B689B69002B19D0174BE5
:100A740001221A60FFF72CFC386108E0FFF728FC1C
:100A840002463B69D31A022B01D903235AE10D4BC9
:100A94005B6A03F00203002BF0D0012000F0A6FAF9
:100AA4001CE00A4B00221A60FFF712FC38610FE0C9
:100AB400FFF70EFC02463B69D31A022B08D9032325
:100AC40040E100BF00100240000042428004424264
:100AD4009E4B5B6A03F00203002BE9D17B681B6821
:100AE40003F00403002B00F0A6800023FB75974B52
:100AF400DB6903F08053002B0DD1944BDB69934ADF
:100B040043F08053D361914BDB6903F08053BB60A6
:100B1400BB680123FB758E4B1B6803F48073002BA9
:100B240018D18B4B1B688A4A43F480731360FFF718
:100B3400CFFB386108E0FFF7CBFB02463B69D31AD1
:100B4400642B01D90323FDE0814B1B6803F48073FC
:100B5400002BF0D07B68DB68012B06D17B4B1B6A32
:100B64007A4A43F0010313622DE07B68DB68002BB3
:100B74000CD1764B1B6A754A23F001031362734B45
:100B84001B6A724A23F0040313621CE07B68DB686F
:100B9400052B0CD16D4B1B6A6C4A43F004031362A2
:100BA4006A4B1B6A694A43F0010313620BE0674B0B
:100BB4001B6A664A23F001031362644B1B6A634A8F
:100BC40023F0040313627B68DB68002B15D0FFF766
:100BD4007FFB38610AE0FFF77BFB02463B69D31ACF
:100BE40041F28832934201D90323ABE0574B1B6A8D
:100BF40003F00203002BEED014E0FFF769FB386129
:100C04000AE0FFF765FB02463B69D31A41F28832DA
:100C1400934201D9032395E04C4B1B6A03F0020372
:100C2400002BEED1FB7D012B05D1484BDB69474AF4
:100C340023F08053D3617B68DB69002B00F0818053
:100C4400424B5B6803F00C03082B61D07B68DB69C3
:100C5400022B46D13F4B00221A60FFF739FB386163
:100C640008E0FFF735FB02463B69D31A022B01D992
:100C7400032367E0354B1B6803F00073002BF0D1AE
:100C84007B681B6AB3F5803F08D1304B5B6823F463
:100C940000327B689B682D4913434B602B4B5B6888
:100CA40023F474127B68196A7B685B6A0B432749D7
:100CB40013434B60274B01221A60FFF709FB38618D
:100CC40008E0FFF705FB02463B69D31A022B01D962
:100CD400032337E01D4B1B6803F00073002BF0D097
:100CE4002FE01C4B00221A60FFF7F2FA386108E08B
:100CF400FFF7EEFA02463B69D31A022B01D903230C
:100D040020E0124B1B6803F00073002BF0D118E0B5
:100D14007B68DB69012B01D1012313E00B4B5B687A
:100D2400FB60FB6803F480327B681B6A9A4206D13D
:100D3400FB6803F470127B685B6A9A4201D001235A
:100D440000E0002318461837BD4680BD001002405D
:100D5400007000406000424280B584B000AF78600B
:100D640039607B68002B01D10123D0E06A4B1B68FA
:100D740003F007033A689A4210D9674B1B6823F0C3
:100D8400070265493B6813430B60634B1B6803F020
:100D940007033A689A4201D00123B8E07B681B68D4
:100DA40003F00203002B20D07B681B6803F00403CC
:100DB400002B05D0594B5B68584A43F4E0635360F9
:100DC4007B681B6803F00803002B05D0534B5B685A
:100DD400524A43F460535360504B5B6823F0F00273
:100DE4007B689B684D4913434B607B681B6803F029
:100DF4000103002B40D07B685B68012B07D1474B74
:100E04001B6803F40033002B15D101237FE07B68BA
:100E14005B68022B07D1414B1B6803F00073002B66
:100E240009D1012373E03D4B1B6803F00203002B3F
:100E340001D101236BE0394B5B6823F003027B682B
:100E44005B68364913434B60FFF742FAF8600AE0E7
:100E5400FFF73EFA0246FB68D31A41F28832934206
:100E640001D9032353E02D4B5B6803F00C027B682C
:100E74005B689B009A42EBD1274B1B6803F0070386
:100E84003A689A4210D2244B1B6823F00702224985
:100E94003B6813430B60204B1B6803F007033A685D
:100EA4009A4201D0012332E07B681B6803F00403FB
:100EB400002B08D0194B5B6823F4E0627B68DB6885
:100EC400164913434B607B681B6803F00803002B2F
:100ED40009D0124B5B6823F460527B681B69DB000A
:100EE4000E4913434B6000F021F802460B4B5B683C
:100EF4001B0903F00F030A49CB5C22FA03F3094AE6
:100F04001360094B1B681846FFF7A0F90023184625
:100F14001037BD4680BD00BF0020024000100240D3
:100F2400C81A00080C0000200000002090B48AB009
:100F340000AF2A4B3C1D0FCB84E80F0040F2012385
:100F44003B800023FB610023BB6100237B62002301
:100F54007B6100233B62224B5B68FB61FB6903F00E
:100F64000C03042B02D0082B03D02DE01D4B3B6255
:100F74002DE0FB699B0C03F00F0307F128021344D7
:100F840013F8243C7B61FB6903F48033002B13D0FA
:100F9400134B5B685B0C03F0010307F12802134455
:100FA40013F8283CBB617B690E4A02FB03F2BB6960
:100FB400B2FBF3F37B6204E07B690B4A02FB03F3AD
:100FC4007B627B6A3B6202E0064B3B6200BF3B6A8A
:100FD40018462837BD4690BC704700BFB81A0008B1
:100FE4000010024000127A0000093D0080B485B070
:100FF40000AF78600A4B1B680A4AA2FB03235B0A12
:101004007A6802FB03F3FB6000BFFB685A1EFA60B8
:10101400002BF9D100BF00BF1437BD4680BC704718
:101024000C000020D34D621080B582B000AF786010
:101034007B68002B01D101231DE07B6893F83D30D0
:10104400DBB2002B06D17B68002283F83C20786851
:1010540000F0F4FB7B68022283F83D207B681A6869
:101064007B6804331946104600F058F97B68012266
:1010740083F83D20002318460837BD4680BD80B460
:1010840085B000AF78607B681B68DA687B681B6892
:1010940042F00102DA607B681B689B6803F0070377
:1010A400FB60FB68062B07D07B681B681A687B68AB
:1010B4001B6842F001021A60002318461437BD462B
:1010C40080BC704780B582B000AF78607B681B68D5
:1010D4001B6903F00203022B22D17B681B68DB68C7
:1010E40003F00203022B1BD17B681B686FF0020222
:1010F4001A617B6801221A777B681B689B6903F07D
:101104000303002B03D0786800F0EDF805E078685D
:1011140000F0E0F8786800F0EFF87B6800221A77B6
:101124007B681B681B6903F00403042B22D17B68D2
:101134001B68DB6803F00403042B1BD17B681B686A
:101144006FF004021A617B6802221A777B681B68BD
:101154009B6903F44073002B03D0786800F0C3F854
:1011640005E0786800F0B6F8786800F0C5F87B68A8
:1011740000221A777B681B681B6903F00803082B9D
:1011840022D17B681B68DB6803F00803082B1BD1A2
:101194007B681B686FF008021A617B6804221A7767
:1011A4007B681B68DB6903F00303002B03D07868BA
:1011B40000F099F805E0786800F08CF8786800F0A1
:1011C4009BF87B6800221A777B681B681B6903F015
:1011D4001003102B22D17B681B68DB6803F010031B
:1011E400102B1BD17B681B686FF010021A617B689F
:1011F40008221A777B681B68DB6903F44073002BB1
:1012040003D0786800F06FF805E0786800F062F8C1
:10121400786800F071F87B6800221A777B681B6895
:101224001B6903F00103012B0ED17B681B68DB688B
:1012340003F00103012B07D17B681B686FF00102E7
:101244001A61786800F0DAF97B681B681B6903F09F
:101254008003802B0ED17B681B68DB6803F080035E
:10126400802B07D17B681B686FF080021A61786855
:1012740000F01BF97B681B681B6903F04003402BDB
:101284000ED17B681B68DB6803F04003402B07D159
:101294007B681B686FF040021A61786800F035F8CB
:1012A4007B681B681B6903F02003202B0ED17B682D
:1012B4001B68DB6803F02003202B07D17B681B68C5
:1012C4006FF020021A61786800F0E6F800BF083772
:1012D400BD4680BD80B483B000AF786000BF0C37DA
:1012E400BD4680BC704780B483B000AF786000BF57
:1012F4000C37BD4680BC704780B483B000AF7860C3
:1013040000BF0C37BD4680BC704780B483B000AFCB
:10131400786000BF0C37BD4680BC704780B485B090
:1013240000AF786039607B681B68FB607B68334A78
:10133400934213D07B68324A93420FD07B68B3F157
:10134400804F0BD07B682F4A934207D07B682E4A8C
:10135400934203D07B682D4A934208D1FB6823F063
:101364007003FB603B685B68FA681343FB607B684F
:10137400224A934213D07B68214A93420FD07B6860
:10138400B3F1804F0BD07B681E4A934207D07B6831
:101394001D4A934203D07B681C4A934208D1FB68E0
:1013A40023F44073FB603B68DB68FA681343FB601B
:1013B400FB6823F080023B685B691343FB607B6836
:1013C400FA681A603B689A687B68DA623B681A6854
:1013D4007B689A627B68094A934203D07B68084A17
:1013E400934203D13B681A697B681A637B680122C4
:1013F4005A6100BF1437BD4680BC7047002C0140C1
:10140400003401400004004000080040000C00408B
:1014140080B485B000AF786039607B6893F83C3065
:10142400012B01D1022332E07B68012283F83C20A6
:101434007B68022283F83D207B681B685B68FB6045
:101444007B681B689B68BB60FB6823F07003FB60D0
:101454003B681B68FA681343FB60BB6823F0800396
:10146400BB603B685B68BA681343BB607B681B68FE
:10147400FA685A607B681B68BA689A607B680122C4
:1014840083F83D207B68002283F83C200023184623
:101494001437BD4680BC704780B483B000AF786019
:1014A40000BF0C37BD4680BC704780B483B000AF2A
:1014B400786000BF0C37BD4680BC704780B588B0EB
:1014C40000AF07F1100300221A605A609A60DA60D4
:1014D4001D4B9B691C4A43F0400393611A4B9B6963
:1014E40003F04003FB60FB68174B9B69164A43F00B
:1014F40010039361144B9B6903F01003BB60BB683A
:10150400114B9B69104A43F0040393610E4B9B6992
:1015140003F004037B607B680022FF210B48FFF784
:1015240083F9FF233B6101237B610023BB61022319
:10153400FB6107F1100319460448FEF7E1FF00BF01
:101544002037BD4680BD00BF001002400018014096
:1015540080B500AFFEF764FE00F00AF8FFF7AEFFB7
:1015640000F036F90148FFF78AFDFEE75C0400202D
:1015740080B590B000AF07F1180328220021184667
:1015840000F0CCF93B1D00221A605A609A60DA60C0
:101594001A610123BB614FF48033FB6100233B627A
:1015A4000123BB6202237B634FF48033BB634FF49C
:1015B400E013FB6307F118031846FFF74DF90346E0
:1015C400002B01D000F064F80F237B600223BB6082
:1015D4000023FB604FF480633B6100237B613B1D70
:1015E40002211846FFF7B8FB0346002B01D000F098
:1015F4004FF800BF4037BD4680BD000080B582B0C3
:1016040000AF78607B681B681D4A934234D1012285
:10161400FF211C48FFF708F91B4B1A881B4B1B883A
:1016240013439BB2002219461648FFF7FDF8164BE8
:101634001B885B009AB2144B1A80144B1B885B08FE
:101644009AB2124B1A80104B1B88B3F5807F0CBFE3
:1016540001230023DAB20D4B1B88002B0CBF01239E
:101664000023DBB21340DBB2002B05D0064B102263
:101674001A80064B08221A8000BF0837BD4680BD79
:10168400001000400018014006000020080000205F
:1016940080B400AF00BFBD4680BC704780B485B045
:1016A40000AF154B9B69144A43F001039361124B3D
:1016B4009B6903F00103BB60BB680F4BDB690E4AF7
:1016C40043F08053D3610C4BDB6903F080537B60A0
:1016D4007B680A4B5B68FB60FB6823F0E063FB609C
:1016E400FB6843F00073FB60044AFB68536000BF6F
:1016F4001437BD4680BC7047001002400000014012
:1017040080B400AF00BFBD4680BC704780B400AF5A
:10171400FEE780B400AFFEE780B400AFFEE780B41C
:1017240000AFFEE780B400AF00BFBD4680BC704789
:1017340080B400AF00BFBD4680BC704780B400AF2A
:1017440000BFBD4680BC704780B500AFFEF7AEFD5C
:1017540000BF80BD80B500AF0248FFF7B3FC00BFF7
:1017640080BD00BF5C04002080B400AF154B1B6833
:10177400144A43F001031360124B5A681149124B87
:1017840013404B600F4B1B680E4A23F0847323F401
:10179400803313600B4B1B680A4A23F480231360C5
:1017A400084B5B68074A23F4FE035360054B4FF470
:1017B4001F029A60054B4FF000629A6000BFBD465D
:1017C40080BC7047001002400000FFF800ED00E00C
:1017D40080B582B000AF3B4600221A605A60154BB8
:1017E400154A1A60134B41F61F425A60114B0022EE
:1017F4009A60104B42F20F72DA600E4B00229A612B
:101804000C48FFF711FC0346002B01D0FFF740FF03
:1018140000233B6000237B603B4619460548FFF7E5
:10182400F7FD0346002B01D0FFF732FF00BF083756
:10183400BD4680BD5C0400200010004080B584B02B
:1018440000AF78607B681B680D4A934213D10D4B3F
:10185400DB690C4A43F01003D3610A4BDB6903F0E4
:101864001003FB60FB68002200213620FEF711FE06
:101874003620FEF72AFE00BF1037BD4680BD00BFEC
:101884000010004000100240002103E00B4B5B58A5
:10189400435004310A480B4B42189A42F6D30A4A81
:1018A40002E0002342F8043B084B9A42F9D3FFF7C5
:1018B4005BFF00F00FF8FFF74BFE7047E81A0008D3
:1018C400000000203C0400203C040020C004002050
:1018D400FEE7000070B50D4E0D4D761BB61006D018
:1018E400002455F8043B01349847A642F9D1094E27
:1018F400094D00F0D3F8761BB61006D0002455F835
:10190400043B01349847A642F9D170BDDC1A0008A3
:10191400DC1A0008E41A0008DC1A0008F0B4860790
:1019240046D0541E002A3CD00346CAB201E0013C12
:1019340037D303F8012B9D07F9D1032C2AD9CDB253
:1019440045EA05250F2C45EA054534D9A4F11002D2
:1019540022F00F0C03F120071609674403F110026B
:1019640042E9045542E902551032BA42F8D1721CD8
:1019740014F00C0F03EB021204F00F0613D0331F04
:1019840023F003030433134442F8045B9342FBD172
:1019940006F003042CB1CAB21C4403F8012B9C4288
:1019A400FBD1F0BC704734461346002CF3D1F8E762
:1019B40014460346C1E71A462646E0E7024B13B134
:1019C400024800F005B8704700000000E119000863
:1019D400002301461A46184600F01AB838B5084BD9
:1019E400084D5B1B9C1007D0043B1D44013C55F87B
:1019F40004399847002CF9D1BDE8384000F054B8B8
:101A0400E81A0008E41A0008704700BF704700BFD6
:101A14002DE9F047DFF880A00646DAF80000984682
:101A24000F469146FFF7F0FF1A4B1B68D3F8484165
:101A340024B365681F2D26DC5EB96B1C0235DAF809
:101A44000000636044F82570FFF7E0FF0020BDE864
:101A5400F087012304EB8501C1F88890D4F888212C
:101A6400AB401A43022EC4F88821C1F80881E4D19E
:101A7400D4F88C211343C4F88C31DEE703F5A67443
:101A8400C3F84841D5E7DAF80000FFF7BFFF4FF08D
:101A9400FF30DCE7D81A000838040020F8B500BF8E
:101AA400F8BC08BC9E467047F8B500BFF8BC08BC3B
:041AB4009E46704793
:101AB80002030405060708090A0B0C0D0E0F101087
:101AC80000000000000000000102030406070809E6
:041AD80010000020DA
:081ADC00C1190008090200080D
:041AE400E501000810
:101AE8001000000001001000080000000024F400AD
:101AF80000000000FC02002064030020CC0300204A
:101B080000000000000000000000000000000000CD
:101B180000000000000000000000000000000000BD
:101B280000000000000000000000000000000000AD
:101B3800000000000000000000000000000000009D
:101B4800000000000000000000000000000000008D
:101B5800000000000000000000000000000000007D
:101B6800000000000000000000000000000000006D
:101B7800000000000000000000000000000000005D
:101B8800000000000000000000000000000000004D
:101B9800000000000000000001000000000000003C
:101BA8000E33CDAB34126DE6ECDE05000B00000001
:101BB800000000000000000000000000000000001D
:101BC800000000000000000000000000000000000D
:101BD80000000000000000000000000000000000FD
:101BE80000000000000000000000000000000000ED
:0C1F180000000000000000009C040020FD
:040000050800188D4A
:00000001FF
